{
  "contractName": "ClaimsManager",
  "abi": [
    {
      "anonymous": false,
      "inputs": [
        {
          "indexed": true,
          "internalType": "address",
          "name": "_claimer",
          "type": "address"
        },
        {
          "indexed": true,
          "internalType": "uint256",
          "name": "_rewards",
          "type": "uint256"
        },
        {
          "indexed": false,
          "internalType": "uint256",
          "name": "_oldTotal",
          "type": "uint256"
        },
        {
          "indexed": true,
          "internalType": "uint256",
          "name": "_newTotal",
          "type": "uint256"
        }
      ],
      "name": "ClaimProcessed",
      "type": "event"
    },
    {
      "anonymous": false,
      "inputs": [
        {
          "indexed": true,
          "internalType": "address",
          "name": "_newCommunityPoolAddress",
          "type": "address"
        }
      ],
      "name": "CommunityPoolAddressUpdated",
      "type": "event"
    },
    {
      "anonymous": false,
      "inputs": [
        {
          "indexed": true,
          "internalType": "address",
          "name": "_transferAddress",
          "type": "address"
        },
        {
          "indexed": true,
          "internalType": "uint256",
          "name": "_amount",
          "type": "uint256"
        }
      ],
      "name": "CommunityRewardsTransferred",
      "type": "event"
    },
    {
      "anonymous": false,
      "inputs": [
        {
          "indexed": true,
          "internalType": "address",
          "name": "_newDelegateManagerAddress",
          "type": "address"
        }
      ],
      "name": "DelegateManagerAddressUpdated",
      "type": "event"
    },
    {
      "anonymous": false,
      "inputs": [
        {
          "indexed": true,
          "internalType": "uint256",
          "name": "_amount",
          "type": "uint256"
        }
      ],
      "name": "FundingAmountUpdated",
      "type": "event"
    },
    {
      "anonymous": false,
      "inputs": [
        {
          "indexed": true,
          "internalType": "uint256",
          "name": "_blockDifference",
          "type": "uint256"
        }
      ],
      "name": "FundingRoundBlockDiffUpdated",
      "type": "event"
    },
    {
      "anonymous": false,
      "inputs": [
        {
          "indexed": true,
          "internalType": "address",
          "name": "_newGovernanceAddress",
          "type": "address"
        }
      ],
      "name": "GovernanceAddressUpdated",
      "type": "event"
    },
    {
      "anonymous": false,
      "inputs": [
        {
          "indexed": true,
          "internalType": "uint256",
          "name": "_amount",
          "type": "uint256"
        }
      ],
      "name": "RecurringCommunityFundingAmountUpdated",
      "type": "event"
    },
    {
      "anonymous": false,
      "inputs": [
        {
          "indexed": true,
          "internalType": "uint256",
          "name": "_blockNumber",
          "type": "uint256"
        },
        {
          "indexed": true,
          "internalType": "uint256",
          "name": "_roundNumber",
          "type": "uint256"
        },
        {
          "indexed": true,
          "internalType": "uint256",
          "name": "_fundAmount",
          "type": "uint256"
        }
      ],
      "name": "RoundInitiated",
      "type": "event"
    },
    {
      "anonymous": false,
      "inputs": [
        {
          "indexed": true,
          "internalType": "address",
          "name": "_newServiceProviderFactoryAddress",
          "type": "address"
        }
      ],
      "name": "ServiceProviderFactoryAddressUpdated",
      "type": "event"
    },
    {
      "anonymous": false,
      "inputs": [
        {
          "indexed": true,
          "internalType": "address",
          "name": "_newStakingAddress",
          "type": "address"
        }
      ],
      "name": "StakingAddressUpdated",
      "type": "event"
    },
    {
      "constant": false,
      "inputs": [
        {
          "internalType": "address",
          "name": "_tokenAddress",
          "type": "address"
        },
        {
          "internalType": "address",
          "name": "_governanceAddress",
          "type": "address"
        }
      ],
      "name": "initialize",
      "outputs": [],
      "payable": false,
      "stateMutability": "nonpayable",
      "type": "function"
    },
    {
      "constant": false,
      "inputs": [],
      "name": "initialize",
      "outputs": [],
      "payable": false,
      "stateMutability": "nonpayable",
      "type": "function"
    },
    {
      "constant": true,
      "inputs": [],
      "name": "getFundingRoundBlockDiff",
      "outputs": [
        {
          "internalType": "uint256",
          "name": "",
          "type": "uint256"
        }
      ],
      "payable": false,
      "stateMutability": "view",
      "type": "function"
    },
    {
      "constant": true,
      "inputs": [],
      "name": "getLastFundedBlock",
      "outputs": [
        {
          "internalType": "uint256",
          "name": "",
          "type": "uint256"
        }
      ],
      "payable": false,
      "stateMutability": "view",
      "type": "function"
    },
    {
      "constant": true,
      "inputs": [],
      "name": "getFundsPerRound",
      "outputs": [
        {
          "internalType": "uint256",
          "name": "",
          "type": "uint256"
        }
      ],
      "payable": false,
      "stateMutability": "view",
      "type": "function"
    },
    {
      "constant": true,
      "inputs": [],
      "name": "getTotalClaimedInRound",
      "outputs": [
        {
          "internalType": "uint256",
          "name": "",
          "type": "uint256"
        }
      ],
      "payable": false,
      "stateMutability": "view",
      "type": "function"
    },
    {
      "constant": true,
      "inputs": [],
      "name": "getGovernanceAddress",
      "outputs": [
        {
          "internalType": "address",
          "name": "",
          "type": "address"
        }
      ],
      "payable": false,
      "stateMutability": "view",
      "type": "function"
    },
    {
      "constant": true,
      "inputs": [],
      "name": "getServiceProviderFactoryAddress",
      "outputs": [
        {
          "internalType": "address",
          "name": "",
          "type": "address"
        }
      ],
      "payable": false,
      "stateMutability": "view",
      "type": "function"
    },
    {
      "constant": true,
      "inputs": [],
      "name": "getDelegateManagerAddress",
      "outputs": [
        {
          "internalType": "address",
          "name": "",
          "type": "address"
        }
      ],
      "payable": false,
      "stateMutability": "view",
      "type": "function"
    },
    {
      "constant": true,
      "inputs": [],
      "name": "getStakingAddress",
      "outputs": [
        {
          "internalType": "address",
          "name": "",
          "type": "address"
        }
      ],
      "payable": false,
      "stateMutability": "view",
      "type": "function"
    },
    {
      "constant": true,
      "inputs": [],
      "name": "getCommunityPoolAddress",
      "outputs": [
        {
          "internalType": "address",
          "name": "",
          "type": "address"
        }
      ],
      "payable": false,
      "stateMutability": "view",
      "type": "function"
    },
    {
      "constant": true,
      "inputs": [],
      "name": "getRecurringCommunityFundingAmount",
      "outputs": [
        {
          "internalType": "uint256",
          "name": "",
          "type": "uint256"
        }
      ],
      "payable": false,
      "stateMutability": "view",
      "type": "function"
    },
    {
      "constant": false,
      "inputs": [
        {
          "internalType": "address",
          "name": "_governanceAddress",
          "type": "address"
        }
      ],
      "name": "setGovernanceAddress",
      "outputs": [],
      "payable": false,
      "stateMutability": "nonpayable",
      "type": "function"
    },
    {
      "constant": false,
      "inputs": [
        {
          "internalType": "address",
          "name": "_stakingAddress",
          "type": "address"
        }
      ],
      "name": "setStakingAddress",
      "outputs": [],
      "payable": false,
      "stateMutability": "nonpayable",
      "type": "function"
    },
    {
      "constant": false,
      "inputs": [
        {
          "internalType": "address",
          "name": "_serviceProviderFactoryAddress",
          "type": "address"
        }
      ],
      "name": "setServiceProviderFactoryAddress",
      "outputs": [],
      "payable": false,
      "stateMutability": "nonpayable",
      "type": "function"
    },
    {
      "constant": false,
      "inputs": [
        {
          "internalType": "address",
          "name": "_delegateManagerAddress",
          "type": "address"
        }
      ],
      "name": "setDelegateManagerAddress",
      "outputs": [],
      "payable": false,
      "stateMutability": "nonpayable",
      "type": "function"
    },
    {
      "constant": false,
      "inputs": [],
      "name": "initiateRound",
      "outputs": [],
      "payable": false,
      "stateMutability": "nonpayable",
      "type": "function"
    },
    {
      "constant": false,
      "inputs": [
        {
          "internalType": "address",
          "name": "_claimer",
          "type": "address"
        },
        {
          "internalType": "uint256",
          "name": "_totalLockedForSP",
          "type": "uint256"
        }
      ],
      "name": "processClaim",
      "outputs": [
        {
          "internalType": "uint256",
          "name": "",
          "type": "uint256"
        }
      ],
      "payable": false,
      "stateMutability": "nonpayable",
      "type": "function"
    },
    {
      "constant": false,
      "inputs": [
        {
          "internalType": "uint256",
          "name": "_newAmount",
          "type": "uint256"
        }
      ],
      "name": "updateFundingAmount",
      "outputs": [],
      "payable": false,
      "stateMutability": "nonpayable",
      "type": "function"
    },
    {
      "constant": true,
      "inputs": [
        {
          "internalType": "address",
          "name": "_sp",
          "type": "address"
        }
      ],
      "name": "claimPending",
      "outputs": [
        {
          "internalType": "bool",
          "name": "",
          "type": "bool"
        }
      ],
      "payable": false,
      "stateMutability": "view",
      "type": "function"
    },
    {
      "constant": false,
      "inputs": [
        {
          "internalType": "uint256",
          "name": "_newFundingRoundBlockDiff",
          "type": "uint256"
        }
      ],
      "name": "updateFundingRoundBlockDiff",
      "outputs": [],
      "payable": false,
      "stateMutability": "nonpayable",
      "type": "function"
    },
    {
      "constant": false,
      "inputs": [
        {
          "internalType": "uint256",
          "name": "_newRecurringCommunityFundingAmount",
          "type": "uint256"
        }
      ],
      "name": "updateRecurringCommunityFundingAmount",
      "outputs": [],
      "payable": false,
      "stateMutability": "nonpayable",
      "type": "function"
    },
    {
      "constant": false,
      "inputs": [
        {
          "internalType": "address",
          "name": "_newCommunityPoolAddress",
          "type": "address"
        }
      ],
      "name": "updateCommunityPoolAddress",
      "outputs": [],
      "payable": false,
      "stateMutability": "nonpayable",
      "type": "function"
    }
  ],
  "bytecode": "0x608060405234801561001057600080fd5b50611fa6806100206000396000f3fe608060405234801561001057600080fd5b506004361061014c5760003560e01c8063ab0254c2116100c3578063d16543f61161007c578063d16543f6146102f4578063d949d2d0146102fc578063e26cd9ca14610319578063e863cbb614610321578063ea63d6511461033e578063f4e0d9ac146103645761014c565b8063ab0254c214610256578063ad5186f61461027c578063b8a0ca0e14610284578063cfc162541461028c578063d017f483146102b2578063d1158d94146102ec5761014c565b8063485cc95511610115578063485cc955146101c757806351dd2125146101f557806360558c0f146102125780636ffc215c1461021a57806373252494146102465780638129fc1c1461024e5761014c565b80622ae74a146101515780630e9ed68b14610175578063201ae9db1461017d5780632a2085f3146101a557806344616718146101bf575b600080fd5b61015961038a565b604080516001600160a01b039092168252519081900360200190f35b6101596103a4565b6101a36004803603602081101561019357600080fd5b50356001600160a01b03166103be565b005b6101ad6104dd565b60408051918252519081900360200190f35b6101ad6104ee565b6101a3600480360360408110156101dd57600080fd5b506001600160a01b03813581169160200135166104ff565b6101a36004803603602081101561020b57600080fd5b5035610621565b6101ad6106ec565b6101ad6004803603604081101561023057600080fd5b506001600160a01b0381351690602001356106fd565b610159610d07565b6101a3610d26565b6101a36004803603602081101561026c57600080fd5b50356001600160a01b0316610dd5565b610159610eb7565b6101a3610ed1565b6101a3600480360360208110156102a257600080fd5b50356001600160a01b031661113a565b6102d8600480360360208110156102c857600080fd5b50356001600160a01b0316611212565b604080519115158252519081900360200190f35b6101ad611347565b610159611358565b6101a36004803603602081101561031257600080fd5b5035611372565b6101ad61143a565b6101a36004803603602081101561033757600080fd5b503561144b565b6101a36004803603602081101561035457600080fd5b50356001600160a01b0316611516565b6101a36004803603602081101561037a57600080fd5b50356001600160a01b03166115f8565b60006103946116da565b506035546001600160a01b031690565b60006103ae6116da565b506034546001600160a01b031690565b6103c66116da565b603360019054906101000a90046001600160a01b03166001600160a01b0316336001600160a01b031614604051806060016040528060338152602001611dca60339139906104925760405162461bcd60e51b81526004018080602001828103825283818151815260200191508051906020019080838360005b8381101561045757818101518382015260200161043f565b50505050905090810190601f1680156104845780820380516001836020036101000a031916815260200191505b509250505060405180910390fd5b50603580546001600160a01b0319166001600160a01b0383169081179091556040517f373f84f0177a6c2e019f2e0e73c988359e56e111629a261c9bba5c968c383ed190600090a250565b60006104e76116da565b5060385490565b60006104f86116da565b5060375490565b600054610100900460ff16806105185750610518611765565b80610526575060005460ff16155b6105615760405162461bcd60e51b815260040180806020018281038252602e815260200180611e1e602e913960400191505060405180910390fd5b600054610100900460ff1615801561058c576000805460ff1961ff0019909116610100171660011790555b6105958261176b565b603a80546001600160a01b0385166001600160a01b03199182161790915561b5bb6037556a011c4736dd7f17a210c00060385560006039819055604080516060810182528281526020810183905201819052603d819055603e819055603f819055603c55603b8054909116905561060a610d26565b801561061c576000805461ff00191690555b505050565b6106296116da565b603360019054906101000a90046001600160a01b03166001600160a01b0316336001600160a01b031614604051806060016040528060338152602001611dca60339139906106b85760405162461bcd60e51b815260206004820181815283516024840152835190928392604490910191908501908083836000831561045757818101518382015260200161043f565b50603881905560405181907f35f5c1f870f9b4f51737ef93b22b698a62ee1ad3a1b902cb5126f8bec48d551d90600090a250565b60006106f66116da565b50603d5490565b60006107076116da565b61070f611838565b610717611881565b61071f6118c8565b6036546001600160a01b031633146107685760405162461bcd60e51b815260040180806020018281038252603e815260200180611f34603e913960400191505060405180910390fd5b6034546040805163231a857360e11b81526001600160a01b0386811660048301529151919092169160009183916346350ae6916024808301926020929190829003018186803b1580156107ba57600080fd5b505afa1580156107ce573d6000803e3d6000fd5b505050506040513d60208110156107e457600080fd5b5051603d5490915081111561082a5760405162461bcd60e51b815260040180806020018281038252602f815260200180611e4c602f913960400191505060405180910390fd5b603d546040805163ede3842160e01b81526001600160a01b0388811660048301526024820193909352905160009285169163ede38421916044808301926020929190829003018186803b15801561088057600080fd5b505afa158015610894573d6000803e3d6000fd5b505050506040513d60208110156108aa57600080fd5b505160355460408051631e4e7d3560e31b81526001600160a01b038a811660048301529151939450600093919092169163f273e9a89160248083019260c0929190829003018186803b1580156108ff57600080fd5b505afa158015610913573d6000803e3d6000fd5b505050506040513d60c081101561092957600080fd5b506040015190506000610942838863ffffffff61190f16565b90506000856001600160a01b031663c9c53232603d600001546040518263ffffffff1660e01b81526004018082815260200191505060206040518083038186803b15801561098f57600080fd5b505afa1580156109a3573d6000803e3d6000fd5b505050506040513d60208110156109b957600080fd5b50516038549091506000906109e79083906109db90869063ffffffff61195816565b9063ffffffff6119b116565b90508315806109f4575080155b15610ab55760408051635172f39f60e11b81526000600482018190526001600160a01b038d811660248401529251928a169263a2e5e73e92604480820193929182900301818387803b158015610a4957600080fd5b505af1158015610a5d573d6000803e3d6000fd5b505050508260008b6001600160a01b03167fd87a3f3b3833d1f959bcb6d7c5810d9242d8cf6a77a4240184b33859ceccf8b7886040518082815260200191505060405180910390a46000975050505050505050610d01565b603a54604080516340c10f1960e01b81523060048201526024810184905290516001600160a01b03909216916340c10f19916044808201926020929091908290030181600087803b158015610b0957600080fd5b505af1158015610b1d573d6000803e3d6000fd5b505050506040513d6020811015610b3357600080fd5b5050603a546034546040805163095ea7b360e01b81526001600160a01b039283166004820152602481018590529051919092169163095ea7b39160448083019260209291908290030181600087803b158015610b8e57600080fd5b505af1158015610ba2573d6000803e3d6000fd5b505050506040513d6020811015610bb857600080fd5b505060408051639b172b3560e01b8152600481018390526001600160a01b038c81166024830152915191891691639b172b359160448082019260009290919082900301818387803b158015610c0c57600080fd5b505af1158015610c20573d6000803e3d6000fd5b5050603f54610c38925090508263ffffffff6119f316565b603f5560408051634b341aed60e01b81526001600160a01b038c8116600483015291516000928a1691634b341aed916024808301926020929190829003018186803b158015610c8657600080fd5b505afa158015610c9a573d6000803e3d6000fd5b505050506040513d6020811015610cb057600080fd5b5051604080518881529051919250829184916001600160a01b038f16917fd87a3f3b3833d1f959bcb6d7c5810d9242d8cf6a77a4240184b33859ceccf8b79181900360200190a45096505050505050505b92915050565b6000610d116116da565b5060335461010090046001600160a01b031690565b600054610100900460ff1680610d3f5750610d3f611765565b80610d4d575060005460ff16155b610d885760405162461bcd60e51b815260040180806020018281038252602e815260200180611e1e602e913960400191505060405180910390fd5b600054610100900460ff16158015610db3576000805460ff1961ff0019909116610100171660011790555b6033805460ff191660011790558015610dd2576000805461ff00191690555b50565b610ddd6116da565b603360019054906101000a90046001600160a01b03166001600160a01b0316336001600160a01b031614604051806060016040528060338152602001611dca6033913990610e6c5760405162461bcd60e51b815260206004820181815283516024840152835190928392604490910191908501908083836000831561045757818101518382015260200161043f565b50603b80546001600160a01b0319166001600160a01b0383169081179091556040517fc5ca1722c22b0f252e610ced534cb4e638625687f2dce278c50154281fb064a190600090a250565b6000610ec16116da565b50603b546001600160a01b031690565b610ed96116da565b610ee1611838565b603754603d54610ef890439063ffffffff61190f16565b11610f345760405162461bcd60e51b8152600401808060200182810382526030815260200180611e7b6030913960400191505060405180910390fd5b604080516060810182524380825260385460208301819052600092909301829052603d55603e91909155603f55603954610f7590600163ffffffff6119f316565b603955603c5415801590610f935750603b546001600160a01b031615155b1561110657603a54603c54604080516340c10f1960e01b81523060048201526024810192909252516001600160a01b03909216916340c10f19916044808201926020929091908290030181600087803b158015610fef57600080fd5b505af1158015611003573d6000803e3d6000fd5b505050506040513d602081101561101957600080fd5b5050603a54603b54603c546040805163095ea7b360e01b81526001600160a01b039384166004820152602481019290925251919092169163095ea7b39160448083019260209291908290030181600087803b15801561107757600080fd5b505af115801561108b573d6000803e3d6000fd5b505050506040513d60208110156110a157600080fd5b5050603b54603c54603a546110ca926001600160a01b039182169291169063ffffffff611a4d16565b603c54603b546040516001600160a01b03909116907fce08e5ed436b159ce771e0bb9b9f9e6bfc01fed01422fe1461feecf4c3d15eb190600090a35b603e54603954603d546040517f50c871fcfd35cc7fec951a160fcf2767a7d9d81da9da506207ec65402a369c0790600090a4565b6111426116da565b603360019054906101000a90046001600160a01b03166001600160a01b0316336001600160a01b031614604051806060016040528060338152602001611dca60339139906111d15760405162461bcd60e51b815260206004820181815283516024840152835190928392604490910191908501908083836000831561045757818101518382015260200161043f565b506111db8161176b565b6040516001600160a01b038216907fd0e77a42021adb46a85dc0dbcdd75417f2042ed5c51474cb43a25ce0f1049a1e90600090a250565b600061121c6116da565b611224611838565b61122c6118c8565b6034546040805163231a857360e11b81526001600160a01b038581166004830152915160009392909216916346350ae691602480820192602092909190829003018186803b15801561127d57600080fd5b505afa158015611291573d6000803e3d6000fd5b505050506040513d60208110156112a757600080fd5b505160355460408051631e4e7d3560e31b81526001600160a01b0387811660048301529151939450600093919092169163f273e9a89160248083019260c0929190829003018186803b1580156112fc57600080fd5b505afa158015611310573d6000803e3d6000fd5b505050506040513d60c081101561132657600080fd5b5060600151603d549091508210801561133f5750600081115b949350505050565b60006113516116da565b50603f5490565b60006113626116da565b506036546001600160a01b031690565b61137a6116da565b603360019054906101000a90046001600160a01b03166001600160a01b0316336001600160a01b031614604051806060016040528060338152602001611dca60339139906114095760405162461bcd60e51b815260206004820181815283516024840152835190928392604490910191908501908083836000831561045757818101518382015260200161043f565b5060405181907fb232cc65f47f6afbf081c311f328ec4a698b72b5048af6fda8f11ba0c7557a2190600090a2603755565b60006114446116da565b50603c5490565b6114536116da565b603360019054906101000a90046001600160a01b03166001600160a01b0316336001600160a01b031614604051806060016040528060338152602001611dca60339139906114e25760405162461bcd60e51b815260206004820181815283516024840152835190928392604490910191908501908083836000831561045757818101518382015260200161043f565b50603c81905560405181907f8b2bf6a6ffc7c8ed425995eb7107a342bf51229917a1326a1c885f2b9d91232790600090a250565b61151e6116da565b603360019054906101000a90046001600160a01b03166001600160a01b0316336001600160a01b031614604051806060016040528060338152602001611dca60339139906115ad5760405162461bcd60e51b815260206004820181815283516024840152835190928392604490910191908501908083836000831561045757818101518382015260200161043f565b50603680546001600160a01b0319166001600160a01b0383169081179091556040517fc6f2f93d680d907c15617652a0861512922e68a2c4c4821732a8aa324ec541ea90600090a250565b6116006116da565b603360019054906101000a90046001600160a01b03166001600160a01b0316336001600160a01b031614604051806060016040528060338152602001611dca603391399061168f5760405162461bcd60e51b815260206004820181815283516024840152835190928392604490910191908501908083836000831561045757818101518382015260200161043f565b50603480546001600160a01b0319166001600160a01b0383169081179091556040517f8ae96d8af35324a34b19e4f33e72d620b502f69595bb43870ab5fd7a7de7823990600090a250565b6033546040805180820190915260208082527f496e697469616c697a61626c6556323a204e6f7420696e697469616c697a6564908201529060ff161515600114610dd25760405162461bcd60e51b815260206004820181815283516024840152835190928392604490910191908501908083836000831561045757818101518382015260200161043f565b303b1590565b806001600160a01b0316630ea773076040518163ffffffff1660e01b815260040160206040518083038186803b1580156117a457600080fd5b505afa1580156117b8573d6000803e3d6000fd5b505050506040513d60208110156117ce57600080fd5b505115156001146118105760405162461bcd60e51b8152600401808060200182810382526044815260200180611d566044913960600191505060405180910390fd5b603380546001600160a01b0390921661010002610100600160a81b0319909216919091179055565b6034546001600160a01b031661187f5760405162461bcd60e51b8152600401808060200182810382526028815260200180611f0c6028913960400191505060405180910390fd5b565b6036546001600160a01b031661187f5760405162461bcd60e51b8152600401808060200182810382526030815260200180611d9a6030913960400191505060405180910390fd5b6035546001600160a01b031661187f5760405162461bcd60e51b8152600401808060200182810382526037815260200180611eab6037913960400191505060405180910390fd5b600061195183836040518060400160405280601e81526020017f536166654d6174683a207375627472616374696f6e206f766572666c6f770000815250611a9f565b9392505050565b60008261196757506000610d01565b8282028284828161197457fe5b04146119515760405162461bcd60e51b8152600401808060200182810382526021815260200180611dfd6021913960400191505060405180910390fd5b600061195183836040518060400160405280601a81526020017f536166654d6174683a206469766973696f6e206279207a65726f000000000000815250611af9565b600082820183811015611951576040805162461bcd60e51b815260206004820152601b60248201527f536166654d6174683a206164646974696f6e206f766572666c6f770000000000604482015290519081900360640190fd5b604080516001600160a01b038416602482015260448082018490528251808303909101815260649091019091526020810180516001600160e01b031663a9059cbb60e01b17905261061c908490611b5e565b60008184841115611af15760405162461bcd60e51b815260206004820181815283516024840152835190928392604490910191908501908083836000831561045757818101518382015260200161043f565b505050900390565b60008183611b485760405162461bcd60e51b815260206004820181815283516024840152835190928392604490910191908501908083836000831561045757818101518382015260200161043f565b506000838581611b5457fe5b0495945050505050565b611b70826001600160a01b0316611d1c565b611bc1576040805162461bcd60e51b815260206004820152601f60248201527f5361666545524332303a2063616c6c20746f206e6f6e2d636f6e747261637400604482015290519081900360640190fd5b60006060836001600160a01b0316836040518082805190602001908083835b60208310611bff5780518252601f199092019160209182019101611be0565b6001836020036101000a0380198251168184511680821785525050505050509050019150506000604051808303816000865af19150503d8060008114611c61576040519150601f19603f3d011682016040523d82523d6000602084013e611c66565b606091505b509150915081611cbd576040805162461bcd60e51b815260206004820181905260248201527f5361666545524332303a206c6f772d6c6576656c2063616c6c206661696c6564604482015290519081900360640190fd5b805115611d1657808060200190516020811015611cd957600080fd5b5051611d165760405162461bcd60e51b815260040180806020018281038252602a815260200180611ee2602a913960400191505060405180910390fd5b50505050565b6000813f7fc5d2460186f7233c927e7db2dcc703c0e500b653ca82273b7bfad8045d85a47081811480159061133f57505015159291505056fe436c61696d734d616e616765723a205f676f7665726e616e636541646472657373206973206e6f7420612076616c696420676f7665726e616e636520636f6e7472616374436c61696d734d616e616765723a2064656c65676174654d616e6167657241646472657373206973206e6f7420736574436c61696d734d616e616765723a204f6e6c792063616c6c61626c6520627920476f7665726e616e636520636f6e7472616374536166654d6174683a206d756c7469706c69636174696f6e206f766572666c6f77436f6e747261637420696e7374616e63652068617320616c7265616479206265656e20696e697469616c697a6564436c61696d734d616e616765723a20436c61696d20616c72656164792070726f63657373656420666f722075736572436c61696d734d616e616765723a20526571756972656420626c6f636b20646966666572656e6365206e6f74206d6574436c61696d734d616e616765723a207365727669636550726f7669646572466163746f727941646472657373206973206e6f74207365745361666545524332303a204552433230206f7065726174696f6e20646964206e6f742073756363656564436c61696d734d616e616765723a207374616b696e6741646472657373206973206e6f7420736574436c61696d734d616e616765723a2050726f63657373436c61696d206f6e6c792061636365737369626c6520746f2044656c65676174654d616e61676572a265627a7a7231582031e92cf044d49f9569d44ef4e22e1f103d9e40b36b2e919c463b46ac823adcb164736f6c63430005110032",
  "source": "pragma solidity ^0.5.0;\nimport \"./Staking.sol\";\nimport \"@openzeppelin/contracts-ethereum-package/contracts/token/ERC20/ERC20Mintable.sol\";\nimport \"./ServiceProviderFactory.sol\";\n/// @notice ERC20 imported via Staking.sol\n/// @notice SafeERC20 imported via Staking.sol\n/// @notice Governance imported via Staking.sol\n/// @notice SafeMath imported via ServiceProviderFactory.sol\n\n\n/**\n * Designed to automate claim funding, minting tokens as necessary\n * @notice - will call InitializableV2 constructor\n */\ncontract ClaimsManager is InitializableV2 {\n    using SafeMath for uint256;\n    using SafeERC20 for ERC20;\n\n    string private constant ERROR_ONLY_GOVERNANCE = (\n        \"ClaimsManager: Only callable by Governance contract\"\n    );\n\n    address private governanceAddress;\n    address private stakingAddress;\n    address private serviceProviderFactoryAddress;\n    address private delegateManagerAddress;\n\n    /**\n      * @notice - Minimum number of blocks between funding rounds\n      *       604800 seconds / week\n      *       Avg block time - 13s\n      *       604800 / 13 = 46523.0769231 blocks\n      */\n    uint256 private fundingRoundBlockDiff;\n\n    /**\n      * @notice - Configures the current funding amount per round\n      *  Weekly rounds, 7% PA inflation = 70,000,000 new tokens in first year\n      *                                 = 70,000,000/365*7 (year is slightly more than a week)\n      *                                 = 1342465.75342 new AUDS per week\n      *                                 = 1342465753420000000000000 new wei units per week\n      * @dev - Past a certain block height, this schedule will be updated\n      *      - Logic determining schedule will be sourced from an external contract\n      */\n    uint256 private fundingAmount;\n\n    // Denotes current round\n    uint256 private roundNumber;\n\n    // Staking contract ref\n    ERC20Mintable private audiusToken;\n\n    /// @dev - Address to which recurringCommunityFundingAmount is transferred at funding round start\n    address private communityPoolAddress;\n\n    /// @dev - Reward amount transferred to communityPoolAddress at funding round start\n    uint256 private recurringCommunityFundingAmount;\n\n    // Struct representing round state\n    // 1) Block at which round was funded\n    // 2) Total funded for this round\n    // 3) Total claimed in round\n    struct Round {\n        uint256 fundedBlock;\n        uint256 fundedAmount;\n        uint256 totalClaimedInRound;\n    }\n\n    // Current round information\n    Round private currentRound;\n\n    event RoundInitiated(\n      uint256 indexed _blockNumber,\n      uint256 indexed _roundNumber,\n      uint256 indexed _fundAmount\n    );\n\n    event ClaimProcessed(\n      address indexed _claimer,\n      uint256 indexed _rewards,\n      uint256 _oldTotal,\n      uint256 indexed _newTotal\n    );\n\n    event CommunityRewardsTransferred(\n      address indexed _transferAddress,\n      uint256 indexed _amount\n    );\n\n    event FundingAmountUpdated(uint256 indexed _amount);\n    event FundingRoundBlockDiffUpdated(uint256 indexed _blockDifference);\n    event GovernanceAddressUpdated(address indexed _newGovernanceAddress);\n    event StakingAddressUpdated(address indexed _newStakingAddress);\n    event ServiceProviderFactoryAddressUpdated(address indexed _newServiceProviderFactoryAddress);\n    event DelegateManagerAddressUpdated(address indexed _newDelegateManagerAddress);\n    event RecurringCommunityFundingAmountUpdated(uint256 indexed _amount);\n    event CommunityPoolAddressUpdated(address indexed _newCommunityPoolAddress);\n\n    /**\n     * @notice Function to initialize the contract\n     * @dev stakingAddress must be initialized separately after Staking contract is deployed\n     * @dev serviceProviderFactoryAddress must be initialized separately after ServiceProviderFactory contract is deployed\n     * @dev delegateManagerAddress must be initialized separately after DelegateManager contract is deployed\n     * @param _tokenAddress - address of ERC20 token that will be claimed\n     * @param _governanceAddress - address for Governance proxy contract\n     */\n    function initialize(\n        address _tokenAddress,\n        address _governanceAddress\n    ) public initializer\n    {\n        _updateGovernanceAddress(_governanceAddress);\n\n        audiusToken = ERC20Mintable(_tokenAddress);\n\n        fundingRoundBlockDiff = 46523;\n        fundingAmount = 1342465753420000000000000; // 1342465.75342 AUDS\n        roundNumber = 0;\n\n        currentRound = Round({\n            fundedBlock: 0,\n            fundedAmount: 0,\n            totalClaimedInRound: 0\n        });\n\n        // Community pool funding amount and address initialized to zero\n        recurringCommunityFundingAmount = 0;\n        communityPoolAddress = address(0x0);\n\n        InitializableV2.initialize();\n    }\n\n    /// @notice Get the duration of a funding round in blocks\n    function getFundingRoundBlockDiff() external view returns (uint256)\n    {\n        _requireIsInitialized();\n\n        return fundingRoundBlockDiff;\n    }\n\n    /// @notice Get the last block where a funding round was initiated\n    function getLastFundedBlock() external view returns (uint256)\n    {\n        _requireIsInitialized();\n\n        return currentRound.fundedBlock;\n    }\n\n    /// @notice Get the amount funded per round in wei\n    function getFundsPerRound() external view returns (uint256)\n    {\n        _requireIsInitialized();\n\n        return fundingAmount;\n    }\n\n    /// @notice Get the total amount claimed in the current round\n    function getTotalClaimedInRound() external view returns (uint256)\n    {\n        _requireIsInitialized();\n\n        return currentRound.totalClaimedInRound;\n    }\n\n    /// @notice Get the Governance address\n    function getGovernanceAddress() external view returns (address) {\n        _requireIsInitialized();\n\n        return governanceAddress;\n    }\n\n    /// @notice Get the ServiceProviderFactory address\n    function getServiceProviderFactoryAddress() external view returns (address) {\n        _requireIsInitialized();\n\n        return serviceProviderFactoryAddress;\n    }\n\n    /// @notice Get the DelegateManager address\n    function getDelegateManagerAddress() external view returns (address) {\n        _requireIsInitialized();\n\n        return delegateManagerAddress;\n    }\n\n    /**\n     * @notice Get the Staking address\n     */\n    function getStakingAddress() external view returns (address)\n    {\n        _requireIsInitialized();\n\n        return stakingAddress;\n    }\n\n    /**\n     * @notice Get the community pool address\n     */\n    function getCommunityPoolAddress() external view returns (address)\n    {\n        _requireIsInitialized();\n\n        return communityPoolAddress;\n    }\n\n    /**\n     * @notice Get the community funding amount\n     */\n    function getRecurringCommunityFundingAmount() external view returns (uint256)\n    {\n        _requireIsInitialized();\n\n        return recurringCommunityFundingAmount;\n    }\n\n    /**\n     * @notice Set the Governance address\n     * @dev Only callable by Governance address\n     * @param _governanceAddress - address for new Governance contract\n     */\n    function setGovernanceAddress(address _governanceAddress) external {\n        _requireIsInitialized();\n\n        require(msg.sender == governanceAddress, ERROR_ONLY_GOVERNANCE);\n        _updateGovernanceAddress(_governanceAddress);\n        emit GovernanceAddressUpdated(_governanceAddress);\n    }\n\n    /**\n     * @notice Set the Staking address\n     * @dev Only callable by Governance address\n     * @param _stakingAddress - address for new Staking contract\n     */\n    function setStakingAddress(address _stakingAddress) external {\n        _requireIsInitialized();\n\n        require(msg.sender == governanceAddress, ERROR_ONLY_GOVERNANCE);\n        stakingAddress = _stakingAddress;\n        emit StakingAddressUpdated(_stakingAddress);\n    }\n\n    /**\n     * @notice Set the ServiceProviderFactory address\n     * @dev Only callable by Governance address\n     * @param _serviceProviderFactoryAddress - address for new ServiceProviderFactory contract\n     */\n    function setServiceProviderFactoryAddress(address _serviceProviderFactoryAddress) external {\n        _requireIsInitialized();\n\n        require(msg.sender == governanceAddress, ERROR_ONLY_GOVERNANCE);\n        serviceProviderFactoryAddress = _serviceProviderFactoryAddress;\n        emit ServiceProviderFactoryAddressUpdated(_serviceProviderFactoryAddress);\n    }\n\n    /**\n     * @notice Set the DelegateManager address\n     * @dev Only callable by Governance address\n     * @param _delegateManagerAddress - address for new DelegateManager contract\n     */\n    function setDelegateManagerAddress(address _delegateManagerAddress) external {\n        _requireIsInitialized();\n\n        require(msg.sender == governanceAddress, ERROR_ONLY_GOVERNANCE);\n        delegateManagerAddress = _delegateManagerAddress;\n        emit DelegateManagerAddressUpdated(_delegateManagerAddress);\n    }\n\n    /**\n     * @notice Start a new funding round\n     * @dev Permissioned to be callable by stakers or governance contract\n     */\n    function initiateRound() external {\n        _requireIsInitialized();\n        _requireStakingAddressIsSet();\n\n        require(\n            block.number.sub(currentRound.fundedBlock) > fundingRoundBlockDiff,\n            \"ClaimsManager: Required block difference not met\"\n        );\n\n        currentRound = Round({\n            fundedBlock: block.number,\n            fundedAmount: fundingAmount,\n            totalClaimedInRound: 0\n        });\n\n        roundNumber = roundNumber.add(1);\n\n        /*\n         * Transfer community funding amount to community pool address, if set\n         */\n        if (recurringCommunityFundingAmount > 0 && communityPoolAddress != address(0x0)) {\n            // ERC20Mintable always returns true\n            audiusToken.mint(address(this), recurringCommunityFundingAmount);\n\n            // Approve transfer to community pool address\n            audiusToken.approve(communityPoolAddress, recurringCommunityFundingAmount);\n\n            // Transfer to community pool address\n            ERC20(address(audiusToken)).safeTransfer(communityPoolAddress, recurringCommunityFundingAmount);\n\n            emit CommunityRewardsTransferred(communityPoolAddress, recurringCommunityFundingAmount);\n        }\n\n        emit RoundInitiated(\n            currentRound.fundedBlock,\n            roundNumber,\n            currentRound.fundedAmount\n        );\n    }\n\n    /**\n     * @notice Mints and stakes tokens on behalf of ServiceProvider + delegators\n     * @dev Callable through DelegateManager by Service Provider\n     * @param _claimer  - service provider address\n     * @param _totalLockedForSP - amount of tokens locked up across DelegateManager + ServiceProvider\n     * @return minted rewards for this claimer\n     */\n    function processClaim(\n        address _claimer,\n        uint256 _totalLockedForSP\n    ) external returns (uint256)\n    {\n        _requireIsInitialized();\n        _requireStakingAddressIsSet();\n        _requireDelegateManagerAddressIsSet();\n        _requireServiceProviderFactoryAddressIsSet();\n\n        require(\n            msg.sender == delegateManagerAddress,\n            \"ClaimsManager: ProcessClaim only accessible to DelegateManager\"\n        );\n\n        Staking stakingContract = Staking(stakingAddress);\n        // Prevent duplicate claim\n        uint256 lastUserClaimBlock = stakingContract.lastClaimedFor(_claimer);\n        require(\n            lastUserClaimBlock <= currentRound.fundedBlock,\n            \"ClaimsManager: Claim already processed for user\"\n        );\n        uint256 totalStakedAtFundBlockForClaimer = stakingContract.totalStakedForAt(\n            _claimer,\n            currentRound.fundedBlock);\n\n        (,,bool withinBounds,,,) = (\n            ServiceProviderFactory(serviceProviderFactoryAddress).getServiceProviderDetails(_claimer)\n        );\n\n        // Once they claim the zero reward amount, stake can be modified once again\n        // Subtract total locked amount for SP from stake at fund block\n        uint256 totalActiveClaimerStake = totalStakedAtFundBlockForClaimer.sub(_totalLockedForSP);\n        uint256 totalStakedAtFundBlock = stakingContract.totalStakedAt(currentRound.fundedBlock);\n\n        // Calculate claimer rewards\n        uint256 rewardsForClaimer = (\n          totalActiveClaimerStake.mul(fundingAmount)\n        ).div(totalStakedAtFundBlock);\n\n        // For a claimer violating bounds, no new tokens are minted\n        // Claim history is marked to zero and function is short-circuited\n        // Total rewards can be zero if all stake is currently locked up\n        if (!withinBounds || rewardsForClaimer == 0) {\n            stakingContract.updateClaimHistory(0, _claimer);\n            emit ClaimProcessed(\n                _claimer,\n                0,\n                totalStakedAtFundBlockForClaimer,\n                totalActiveClaimerStake\n            );\n            return 0;\n        }\n\n        // ERC20Mintable always returns true\n        audiusToken.mint(address(this), rewardsForClaimer);\n\n        // Approve transfer to staking address for claimer rewards\n        // ERC20 always returns true\n        audiusToken.approve(stakingAddress, rewardsForClaimer);\n\n        // Transfer rewards\n        stakingContract.stakeRewards(rewardsForClaimer, _claimer);\n\n        // Update round claim value\n        currentRound.totalClaimedInRound = currentRound.totalClaimedInRound.add(rewardsForClaimer);\n\n        // Update round claim value\n        uint256 newTotal = stakingContract.totalStakedFor(_claimer);\n\n        emit ClaimProcessed(\n            _claimer,\n            rewardsForClaimer,\n            totalStakedAtFundBlockForClaimer,\n            newTotal\n        );\n\n        return rewardsForClaimer;\n    }\n\n    /**\n     * @notice Modify funding amount per round\n     * @param _newAmount - new amount to fund per round in wei\n     */\n    function updateFundingAmount(uint256 _newAmount) external\n    {\n        _requireIsInitialized();\n        require(msg.sender == governanceAddress, ERROR_ONLY_GOVERNANCE);\n        fundingAmount = _newAmount;\n        emit FundingAmountUpdated(_newAmount);\n    }\n\n    /**\n     * @notice Returns boolean indicating whether a claim is considered pending\n     * @dev Note that an address with no endpoints can never have a pending claim\n     * @param _sp - address of the service provider to check\n     * @return true if eligible for claim, false if not\n     */\n    function claimPending(address _sp) external view returns (bool) {\n        _requireIsInitialized();\n        _requireStakingAddressIsSet();\n        _requireServiceProviderFactoryAddressIsSet();\n\n        uint256 lastClaimedForSP = Staking(stakingAddress).lastClaimedFor(_sp);\n        (,,,uint256 numEndpoints,,) = (\n            ServiceProviderFactory(serviceProviderFactoryAddress).getServiceProviderDetails(_sp)\n        );\n        return (lastClaimedForSP < currentRound.fundedBlock && numEndpoints > 0);\n    }\n\n    /**\n     * @notice Modify minimum block difference between funding rounds\n     * @param _newFundingRoundBlockDiff - new min block difference to set\n     */\n    function updateFundingRoundBlockDiff(uint256 _newFundingRoundBlockDiff) external {\n        _requireIsInitialized();\n\n        require(msg.sender == governanceAddress, ERROR_ONLY_GOVERNANCE);\n        emit FundingRoundBlockDiffUpdated(_newFundingRoundBlockDiff);\n        fundingRoundBlockDiff = _newFundingRoundBlockDiff;\n    }\n\n    /**\n     * @notice Modify community funding amound for each round\n     * @param _newRecurringCommunityFundingAmount - new reward amount transferred to\n     *          communityPoolAddress at funding round start\n     */\n    function updateRecurringCommunityFundingAmount(\n        uint256 _newRecurringCommunityFundingAmount\n    ) external {\n        _requireIsInitialized();\n\n        require(msg.sender == governanceAddress, ERROR_ONLY_GOVERNANCE);\n        recurringCommunityFundingAmount = _newRecurringCommunityFundingAmount;\n        emit RecurringCommunityFundingAmountUpdated(_newRecurringCommunityFundingAmount);\n    }\n\n    /**\n     * @notice Modify community pool address\n     * @param _newCommunityPoolAddress - new address to which recurringCommunityFundingAmount\n     *          is transferred at funding round start\n     */\n    function updateCommunityPoolAddress(address _newCommunityPoolAddress) external {\n        _requireIsInitialized();\n\n        require(msg.sender == governanceAddress, ERROR_ONLY_GOVERNANCE);\n        communityPoolAddress = _newCommunityPoolAddress;\n        emit CommunityPoolAddressUpdated(_newCommunityPoolAddress);\n    }\n\n    // ========================================= Private Functions =========================================\n\n    /**\n     * @notice Set the governance address after confirming contract identity\n     * @param _governanceAddress - Incoming governance address\n     */\n    function _updateGovernanceAddress(address _governanceAddress) private {\n        require(\n            Governance(_governanceAddress).isGovernanceAddress() == true,\n            \"ClaimsManager: _governanceAddress is not a valid governance contract\"\n        );\n        governanceAddress = _governanceAddress;\n    }\n\n    function _requireStakingAddressIsSet() private view {\n        require(stakingAddress != address(0x00), \"ClaimsManager: stakingAddress is not set\");\n    }\n\n    function _requireDelegateManagerAddressIsSet() private view {\n        require(\n            delegateManagerAddress != address(0x00),\n            \"ClaimsManager: delegateManagerAddress is not set\"\n        );\n    }\n\n    function _requireServiceProviderFactoryAddressIsSet() private view {\n        require(\n            serviceProviderFactoryAddress != address(0x00),\n            \"ClaimsManager: serviceProviderFactoryAddress is not set\"\n        );\n    }\n}\n",
  "sourcePath": "/Users/joey/workspace/audius-protocol/eth-contracts/contracts/ClaimsManager.sol",
  "compiler": {
    "name": "solc",
    "version": "0.5.17+commit.d19bba13.Emscripten.clang"
  },
  "schemaVersion": "3.1.0",
  "updatedAt": "2020-12-10T14:59:32.376Z",
  "networkType": "ethereum",
  "devdoc": {
    "methods": {
      "claimPending(address)": {
        "details": "Note that an address with no endpoints can never have a pending claim",
        "params": {
          "_sp": "- address of the service provider to check"
        },
        "return": "true if eligible for claim, false if not"
      },
      "initialize(address,address)": {
        "details": "stakingAddress must be initialized separately after Staking contract is deployedserviceProviderFactoryAddress must be initialized separately after ServiceProviderFactory contract is deployeddelegateManagerAddress must be initialized separately after DelegateManager contract is deployed",
        "params": {
          "_governanceAddress": "- address for Governance proxy contract",
          "_tokenAddress": "- address of ERC20 token that will be claimed"
        }
      },
      "initiateRound()": {
        "details": "Permissioned to be callable by stakers or governance contract"
      },
      "processClaim(address,uint256)": {
        "details": "Callable through DelegateManager by Service Provider",
        "params": {
          "_claimer": "- service provider address",
          "_totalLockedForSP": "- amount of tokens locked up across DelegateManager + ServiceProvider"
        },
        "return": "minted rewards for this claimer"
      },
      "setDelegateManagerAddress(address)": {
        "details": "Only callable by Governance address",
        "params": {
          "_delegateManagerAddress": "- address for new DelegateManager contract"
        }
      },
      "setGovernanceAddress(address)": {
        "details": "Only callable by Governance address",
        "params": {
          "_governanceAddress": "- address for new Governance contract"
        }
      },
      "setServiceProviderFactoryAddress(address)": {
        "details": "Only callable by Governance address",
        "params": {
          "_serviceProviderFactoryAddress": "- address for new ServiceProviderFactory contract"
        }
      },
      "setStakingAddress(address)": {
        "details": "Only callable by Governance address",
        "params": {
          "_stakingAddress": "- address for new Staking contract"
        }
      },
      "updateCommunityPoolAddress(address)": {
        "params": {
          "_newCommunityPoolAddress": "- new address to which recurringCommunityFundingAmount         is transferred at funding round start"
        }
      },
      "updateFundingAmount(uint256)": {
        "params": {
          "_newAmount": "- new amount to fund per round in wei"
        }
      },
      "updateFundingRoundBlockDiff(uint256)": {
        "params": {
          "_newFundingRoundBlockDiff": "- new min block difference to set"
        }
      },
      "updateRecurringCommunityFundingAmount(uint256)": {
        "params": {
          "_newRecurringCommunityFundingAmount": "- new reward amount transferred to         communityPoolAddress at funding round start"
        }
      }
    }
  },
  "userdoc": {
    "methods": {
      "claimPending(address)": {
        "notice": "Returns boolean indicating whether a claim is considered pending"
      },
      "getCommunityPoolAddress()": {
        "notice": "Get the community pool address"
      },
      "getDelegateManagerAddress()": {
        "notice": "Get the DelegateManager address"
      },
      "getFundingRoundBlockDiff()": {
        "notice": "Get the duration of a funding round in blocks"
      },
      "getFundsPerRound()": {
        "notice": "Get the amount funded per round in wei"
      },
      "getGovernanceAddress()": {
        "notice": "Get the Governance address"
      },
      "getLastFundedBlock()": {
        "notice": "Get the last block where a funding round was initiated"
      },
      "getRecurringCommunityFundingAmount()": {
        "notice": "Get the community funding amount"
      },
      "getServiceProviderFactoryAddress()": {
        "notice": "Get the ServiceProviderFactory address"
      },
      "getStakingAddress()": {
        "notice": "Get the Staking address"
      },
      "getTotalClaimedInRound()": {
        "notice": "Get the total amount claimed in the current round"
      },
      "initialize()": {
        "notice": "wrapper function around parent contract Initializable's `initializable` modifier     initializable modifier ensures this function can only be called once by each deployed child contract     sets isInitialized flag to true to which is used by _requireIsInitialized()"
      },
      "initialize(address,address)": {
        "notice": "Function to initialize the contract"
      },
      "initiateRound()": {
        "notice": "Start a new funding round"
      },
      "processClaim(address,uint256)": {
        "notice": "Mints and stakes tokens on behalf of ServiceProvider + delegators"
      },
      "setDelegateManagerAddress(address)": {
        "notice": "Set the DelegateManager address"
      },
      "setGovernanceAddress(address)": {
        "notice": "Set the Governance address"
      },
      "setServiceProviderFactoryAddress(address)": {
        "notice": "Set the ServiceProviderFactory address"
      },
      "setStakingAddress(address)": {
        "notice": "Set the Staking address"
      },
      "updateCommunityPoolAddress(address)": {
        "notice": "Modify community pool address"
      },
      "updateFundingAmount(uint256)": {
        "notice": "Modify funding amount per round"
      },
      "updateFundingRoundBlockDiff(uint256)": {
        "notice": "Modify minimum block difference between funding rounds"
      },
      "updateRecurringCommunityFundingAmount(uint256)": {
        "notice": "Modify community funding amound for each round"
      }
    },
    "notice": "Designed to automate claim funding, minting tokens as necessary- will call InitializableV2 constructor"
  }
}