{
  "contractName": "Governance",
  "abi": [
    {
      "anonymous": false,
      "inputs": [
        {
          "indexed": true,
          "internalType": "uint256",
          "name": "_newExecutionDelay",
          "type": "uint256"
        }
      ],
      "name": "ExecutionDelayUpdated",
      "type": "event"
    },
    {
      "anonymous": false,
      "inputs": [
        {
          "indexed": true,
          "internalType": "address",
          "name": "_targetContractAddress",
          "type": "address"
        },
        {
          "indexed": false,
          "internalType": "uint256",
          "name": "_callValue",
          "type": "uint256"
        },
        {
          "indexed": true,
          "internalType": "string",
          "name": "_functionSignature",
          "type": "string"
        },
        {
          "indexed": true,
          "internalType": "bytes",
          "name": "_callData",
          "type": "bytes"
        },
        {
          "indexed": false,
          "internalType": "bytes",
          "name": "_returnData",
          "type": "bytes"
        }
      ],
      "name": "GuardianTransactionExecuted",
      "type": "event"
    },
    {
      "anonymous": false,
      "inputs": [
        {
          "indexed": true,
          "internalType": "address",
          "name": "_newGuardianAddress",
          "type": "address"
        }
      ],
      "name": "GuardianshipTransferred",
      "type": "event"
    },
    {
      "anonymous": false,
      "inputs": [
        {
          "indexed": true,
          "internalType": "uint256",
          "name": "_newMaxInProgressProposals",
          "type": "uint256"
        }
      ],
      "name": "MaxInProgressProposalsUpdated",
      "type": "event"
    },
    {
      "anonymous": false,
      "inputs": [
        {
          "indexed": true,
          "internalType": "uint256",
          "name": "_proposalId",
          "type": "uint256"
        },
        {
          "indexed": true,
          "internalType": "enum Governance.Outcome",
          "name": "_outcome",
          "type": "uint8"
        },
        {
          "indexed": false,
          "internalType": "uint256",
          "name": "_voteMagnitudeYes",
          "type": "uint256"
        },
        {
          "indexed": false,
          "internalType": "uint256",
          "name": "_voteMagnitudeNo",
          "type": "uint256"
        },
        {
          "indexed": false,
          "internalType": "uint256",
          "name": "_numVotes",
          "type": "uint256"
        }
      ],
      "name": "ProposalOutcomeEvaluated",
      "type": "event"
    },
    {
      "anonymous": false,
      "inputs": [
        {
          "indexed": true,
          "internalType": "uint256",
          "name": "_proposalId",
          "type": "uint256"
        },
        {
          "indexed": true,
          "internalType": "address",
          "name": "_proposer",
          "type": "address"
        },
        {
          "indexed": false,
          "internalType": "string",
          "name": "_name",
          "type": "string"
        },
        {
          "indexed": false,
          "internalType": "string",
          "name": "_description",
          "type": "string"
        }
      ],
      "name": "ProposalSubmitted",
      "type": "event"
    },
    {
      "anonymous": false,
      "inputs": [
        {
          "indexed": true,
          "internalType": "uint256",
          "name": "_proposalId",
          "type": "uint256"
        },
        {
          "indexed": true,
          "internalType": "bool",
          "name": "_success",
          "type": "bool"
        },
        {
          "indexed": false,
          "internalType": "bytes",
          "name": "_returnData",
          "type": "bytes"
        }
      ],
      "name": "ProposalTransactionExecuted",
      "type": "event"
    },
    {
      "anonymous": false,
      "inputs": [
        {
          "indexed": true,
          "internalType": "uint256",
          "name": "_proposalId",
          "type": "uint256"
        }
      ],
      "name": "ProposalVetoed",
      "type": "event"
    },
    {
      "anonymous": false,
      "inputs": [
        {
          "indexed": true,
          "internalType": "uint256",
          "name": "_proposalId",
          "type": "uint256"
        },
        {
          "indexed": true,
          "internalType": "address",
          "name": "_voter",
          "type": "address"
        },
        {
          "indexed": true,
          "internalType": "enum Governance.Vote",
          "name": "_vote",
          "type": "uint8"
        },
        {
          "indexed": false,
          "internalType": "uint256",
          "name": "_voterStake",
          "type": "uint256"
        }
      ],
      "name": "ProposalVoteSubmitted",
      "type": "event"
    },
    {
      "anonymous": false,
      "inputs": [
        {
          "indexed": true,
          "internalType": "uint256",
          "name": "_proposalId",
          "type": "uint256"
        },
        {
          "indexed": true,
          "internalType": "address",
          "name": "_voter",
          "type": "address"
        },
        {
          "indexed": true,
          "internalType": "enum Governance.Vote",
          "name": "_vote",
          "type": "uint8"
        },
        {
          "indexed": false,
          "internalType": "uint256",
          "name": "_voterStake",
          "type": "uint256"
        },
        {
          "indexed": false,
          "internalType": "enum Governance.Vote",
          "name": "_previousVote",
          "type": "uint8"
        }
      ],
      "name": "ProposalVoteUpdated",
      "type": "event"
    },
    {
      "anonymous": false,
      "inputs": [
        {
          "indexed": true,
          "internalType": "address",
          "name": "_newRegistryAddress",
          "type": "address"
        }
      ],
      "name": "RegistryAddressUpdated",
      "type": "event"
    },
    {
      "anonymous": false,
      "inputs": [
        {
          "indexed": true,
          "internalType": "uint256",
          "name": "_newVotingPeriod",
          "type": "uint256"
        }
      ],
      "name": "VotingPeriodUpdated",
      "type": "event"
    },
    {
      "anonymous": false,
      "inputs": [
        {
          "indexed": true,
          "internalType": "uint256",
          "name": "_newVotingQuorumPercent",
          "type": "uint256"
        }
      ],
      "name": "VotingQuorumPercentUpdated",
      "type": "event"
    },
    {
      "constant": false,
      "inputs": [
        {
          "internalType": "address",
          "name": "_registryAddress",
          "type": "address"
        },
        {
          "internalType": "uint256",
          "name": "_votingPeriod",
          "type": "uint256"
        },
        {
          "internalType": "uint256",
          "name": "_executionDelay",
          "type": "uint256"
        },
        {
          "internalType": "uint256",
          "name": "_votingQuorumPercent",
          "type": "uint256"
        },
        {
          "internalType": "uint16",
          "name": "_maxInProgressProposals",
          "type": "uint16"
        },
        {
          "internalType": "address",
          "name": "_guardianAddress",
          "type": "address"
        }
      ],
      "name": "initialize",
      "outputs": [],
      "payable": false,
      "stateMutability": "nonpayable",
      "type": "function"
    },
    {
      "constant": false,
      "inputs": [],
      "name": "initialize",
      "outputs": [],
      "payable": false,
      "stateMutability": "nonpayable",
      "type": "function"
    },
    {
      "constant": false,
      "inputs": [
        {
          "internalType": "bytes32",
          "name": "_targetContractRegistryKey",
          "type": "bytes32"
        },
        {
          "internalType": "uint256",
          "name": "_callValue",
          "type": "uint256"
        },
        {
          "internalType": "string",
          "name": "_functionSignature",
          "type": "string"
        },
        {
          "internalType": "bytes",
          "name": "_callData",
          "type": "bytes"
        },
        {
          "internalType": "string",
          "name": "_name",
          "type": "string"
        },
        {
          "internalType": "string",
          "name": "_description",
          "type": "string"
        }
      ],
      "name": "submitProposal",
      "outputs": [
        {
          "internalType": "uint256",
          "name": "",
          "type": "uint256"
        }
      ],
      "payable": false,
      "stateMutability": "nonpayable",
      "type": "function"
    },
    {
      "constant": false,
      "inputs": [
        {
          "internalType": "uint256",
          "name": "_proposalId",
          "type": "uint256"
        },
        {
          "internalType": "enum Governance.Vote",
          "name": "_vote",
          "type": "uint8"
        }
      ],
      "name": "submitVote",
      "outputs": [],
      "payable": false,
      "stateMutability": "nonpayable",
      "type": "function"
    },
    {
      "constant": false,
      "inputs": [
        {
          "internalType": "uint256",
          "name": "_proposalId",
          "type": "uint256"
        },
        {
          "internalType": "enum Governance.Vote",
          "name": "_vote",
          "type": "uint8"
        }
      ],
      "name": "updateVote",
      "outputs": [],
      "payable": false,
      "stateMutability": "nonpayable",
      "type": "function"
    },
    {
      "constant": false,
      "inputs": [
        {
          "internalType": "uint256",
          "name": "_proposalId",
          "type": "uint256"
        }
      ],
      "name": "evaluateProposalOutcome",
      "outputs": [
        {
          "internalType": "enum Governance.Outcome",
          "name": "",
          "type": "uint8"
        }
      ],
      "payable": false,
      "stateMutability": "nonpayable",
      "type": "function"
    },
    {
      "constant": false,
      "inputs": [
        {
          "internalType": "uint256",
          "name": "_proposalId",
          "type": "uint256"
        }
      ],
      "name": "vetoProposal",
      "outputs": [],
      "payable": false,
      "stateMutability": "nonpayable",
      "type": "function"
    },
    {
      "constant": false,
      "inputs": [
        {
          "internalType": "address",
          "name": "_stakingAddress",
          "type": "address"
        }
      ],
      "name": "setStakingAddress",
      "outputs": [],
      "payable": false,
      "stateMutability": "nonpayable",
      "type": "function"
    },
    {
      "constant": false,
      "inputs": [
        {
          "internalType": "address",
          "name": "_serviceProviderFactoryAddress",
          "type": "address"
        }
      ],
      "name": "setServiceProviderFactoryAddress",
      "outputs": [],
      "payable": false,
      "stateMutability": "nonpayable",
      "type": "function"
    },
    {
      "constant": false,
      "inputs": [
        {
          "internalType": "address",
          "name": "_delegateManagerAddress",
          "type": "address"
        }
      ],
      "name": "setDelegateManagerAddress",
      "outputs": [],
      "payable": false,
      "stateMutability": "nonpayable",
      "type": "function"
    },
    {
      "constant": false,
      "inputs": [
        {
          "internalType": "uint256",
          "name": "_votingPeriod",
          "type": "uint256"
        }
      ],
      "name": "setVotingPeriod",
      "outputs": [],
      "payable": false,
      "stateMutability": "nonpayable",
      "type": "function"
    },
    {
      "constant": false,
      "inputs": [
        {
          "internalType": "uint256",
          "name": "_votingQuorumPercent",
          "type": "uint256"
        }
      ],
      "name": "setVotingQuorumPercent",
      "outputs": [],
      "payable": false,
      "stateMutability": "nonpayable",
      "type": "function"
    },
    {
      "constant": false,
      "inputs": [
        {
          "internalType": "address",
          "name": "_registryAddress",
          "type": "address"
        }
      ],
      "name": "setRegistryAddress",
      "outputs": [],
      "payable": false,
      "stateMutability": "nonpayable",
      "type": "function"
    },
    {
      "constant": false,
      "inputs": [
        {
          "internalType": "uint16",
          "name": "_newMaxInProgressProposals",
          "type": "uint16"
        }
      ],
      "name": "setMaxInProgressProposals",
      "outputs": [],
      "payable": false,
      "stateMutability": "nonpayable",
      "type": "function"
    },
    {
      "constant": false,
      "inputs": [
        {
          "internalType": "uint256",
          "name": "_newExecutionDelay",
          "type": "uint256"
        }
      ],
      "name": "setExecutionDelay",
      "outputs": [],
      "payable": false,
      "stateMutability": "nonpayable",
      "type": "function"
    },
    {
      "constant": false,
      "inputs": [
        {
          "internalType": "bytes32",
          "name": "_targetContractRegistryKey",
          "type": "bytes32"
        },
        {
          "internalType": "uint256",
          "name": "_callValue",
          "type": "uint256"
        },
        {
          "internalType": "string",
          "name": "_functionSignature",
          "type": "string"
        },
        {
          "internalType": "bytes",
          "name": "_callData",
          "type": "bytes"
        }
      ],
      "name": "guardianExecuteTransaction",
      "outputs": [],
      "payable": false,
      "stateMutability": "nonpayable",
      "type": "function"
    },
    {
      "constant": false,
      "inputs": [
        {
          "internalType": "address",
          "name": "_newGuardianAddress",
          "type": "address"
        }
      ],
      "name": "transferGuardianship",
      "outputs": [],
      "payable": false,
      "stateMutability": "nonpayable",
      "type": "function"
    },
    {
      "constant": true,
      "inputs": [
        {
          "internalType": "uint256",
          "name": "_proposalId",
          "type": "uint256"
        }
      ],
      "name": "getProposalById",
      "outputs": [
        {
          "internalType": "uint256",
          "name": "proposalId",
          "type": "uint256"
        },
        {
          "internalType": "address",
          "name": "proposer",
          "type": "address"
        },
        {
          "internalType": "uint256",
          "name": "submissionBlockNumber",
          "type": "uint256"
        },
        {
          "internalType": "bytes32",
          "name": "targetContractRegistryKey",
          "type": "bytes32"
        },
        {
          "internalType": "address",
          "name": "targetContractAddress",
          "type": "address"
        },
        {
          "internalType": "uint256",
          "name": "callValue",
          "type": "uint256"
        },
        {
          "internalType": "string",
          "name": "functionSignature",
          "type": "string"
        },
        {
          "internalType": "bytes",
          "name": "callData",
          "type": "bytes"
        },
        {
          "internalType": "enum Governance.Outcome",
          "name": "outcome",
          "type": "uint8"
        },
        {
          "internalType": "uint256",
          "name": "voteMagnitudeYes",
          "type": "uint256"
        },
        {
          "internalType": "uint256",
          "name": "voteMagnitudeNo",
          "type": "uint256"
        },
        {
          "internalType": "uint256",
          "name": "numVotes",
          "type": "uint256"
        }
      ],
      "payable": false,
      "stateMutability": "view",
      "type": "function"
    },
    {
      "constant": true,
      "inputs": [
        {
          "internalType": "uint256",
          "name": "_proposalId",
          "type": "uint256"
        }
      ],
      "name": "getProposalTargetContractHash",
      "outputs": [
        {
          "internalType": "bytes32",
          "name": "",
          "type": "bytes32"
        }
      ],
      "payable": false,
      "stateMutability": "view",
      "type": "function"
    },
    {
      "constant": true,
      "inputs": [
        {
          "internalType": "uint256",
          "name": "_proposalId",
          "type": "uint256"
        },
        {
          "internalType": "address",
          "name": "_voter",
          "type": "address"
        }
      ],
      "name": "getVoteInfoByProposalAndVoter",
      "outputs": [
        {
          "internalType": "enum Governance.Vote",
          "name": "vote",
          "type": "uint8"
        },
        {
          "internalType": "uint256",
          "name": "voteMagnitude",
          "type": "uint256"
        }
      ],
      "payable": false,
      "stateMutability": "view",
      "type": "function"
    },
    {
      "constant": true,
      "inputs": [],
      "name": "getGuardianAddress",
      "outputs": [
        {
          "internalType": "address",
          "name": "",
          "type": "address"
        }
      ],
      "payable": false,
      "stateMutability": "view",
      "type": "function"
    },
    {
      "constant": true,
      "inputs": [],
      "name": "getStakingAddress",
      "outputs": [
        {
          "internalType": "address",
          "name": "",
          "type": "address"
        }
      ],
      "payable": false,
      "stateMutability": "view",
      "type": "function"
    },
    {
      "constant": true,
      "inputs": [],
      "name": "getServiceProviderFactoryAddress",
      "outputs": [
        {
          "internalType": "address",
          "name": "",
          "type": "address"
        }
      ],
      "payable": false,
      "stateMutability": "view",
      "type": "function"
    },
    {
      "constant": true,
      "inputs": [],
      "name": "getDelegateManagerAddress",
      "outputs": [
        {
          "internalType": "address",
          "name": "",
          "type": "address"
        }
      ],
      "payable": false,
      "stateMutability": "view",
      "type": "function"
    },
    {
      "constant": true,
      "inputs": [],
      "name": "getVotingPeriod",
      "outputs": [
        {
          "internalType": "uint256",
          "name": "",
          "type": "uint256"
        }
      ],
      "payable": false,
      "stateMutability": "view",
      "type": "function"
    },
    {
      "constant": true,
      "inputs": [],
      "name": "getVotingQuorumPercent",
      "outputs": [
        {
          "internalType": "uint256",
          "name": "",
          "type": "uint256"
        }
      ],
      "payable": false,
      "stateMutability": "view",
      "type": "function"
    },
    {
      "constant": true,
      "inputs": [],
      "name": "getRegistryAddress",
      "outputs": [
        {
          "internalType": "address",
          "name": "",
          "type": "address"
        }
      ],
      "payable": false,
      "stateMutability": "view",
      "type": "function"
    },
    {
      "constant": true,
      "inputs": [],
      "name": "isGovernanceAddress",
      "outputs": [
        {
          "internalType": "bool",
          "name": "",
          "type": "bool"
        }
      ],
      "payable": false,
      "stateMutability": "pure",
      "type": "function"
    },
    {
      "constant": true,
      "inputs": [],
      "name": "getMaxInProgressProposals",
      "outputs": [
        {
          "internalType": "uint16",
          "name": "",
          "type": "uint16"
        }
      ],
      "payable": false,
      "stateMutability": "view",
      "type": "function"
    },
    {
      "constant": true,
      "inputs": [],
      "name": "getExecutionDelay",
      "outputs": [
        {
          "internalType": "uint256",
          "name": "",
          "type": "uint256"
        }
      ],
      "payable": false,
      "stateMutability": "view",
      "type": "function"
    },
    {
      "constant": true,
      "inputs": [],
      "name": "getInProgressProposals",
      "outputs": [
        {
          "internalType": "uint256[]",
          "name": "",
          "type": "uint256[]"
        }
      ],
      "payable": false,
      "stateMutability": "view",
      "type": "function"
    },
    {
      "constant": true,
      "inputs": [],
      "name": "inProgressProposalsAreUpToDate",
      "outputs": [
        {
          "internalType": "bool",
          "name": "",
          "type": "bool"
        }
      ],
      "payable": false,
      "stateMutability": "view",
      "type": "function"
    }
  ],
  "bytecode": "0x60806040526000603b5534801561001557600080fd5b506141f2806100256000396000f3fe608060405234801561001057600080fd5b50600436106101ef5760003560e01c80638aeda86b1161010f578063c47afb54116100a2578063ea63d65111610071578063ea63d651146108f0578063ea7e6ffb14610916578063f21de1e81461091e578063f4e0d9ac14610926576101ef565b8063c47afb541461088d578063d16543f6146108ae578063e4917d9f146108b6578063ea0217cf146108d3576101ef565b80639cef4240116100de5780639cef42401461060d5780639fa0bc9414610633578063ab7b49931461079d578063b4e12e2c146107c3576101ef565b80638aeda86b146105555780638b6572901461057257806398b93cb51461058f57806399653fbe146105e7576101ef565b80633ecc6a43116101875780636f65108c116101565780636f65108c146104985780637476f748146104b55780638129fc1c146104f65780638aad517d146104fe576101ef565b80633ecc6a431461041857806355c66ac1146104205780635c51bc731461046a5780636ec9e64414610472576101ef565b80630ea77307116101c35780630ea7730714610259578063201ae9db146102755780632b95acf31461029d5780633656de21146102a5576101ef565b80622ae74a146101f457806306288885146102185780630b0543f9146102325780630e9ed68b14610251575b600080fd5b6101fc61094c565b604080516001600160a01b039092168252519081900360200190f35b610220610967565b60408051918252519081900360200190f35b61023a610978565b6040805161ffff9092168252519081900360200190f35b6101fc61098d565b6102616109a7565b604080519115158252519081900360200190f35b61029b6004803603602081101561028b57600080fd5b50356001600160a01b03166109ac565b005b610220610ac2565b6102c2600480360360208110156102bb57600080fd5b5035610ad3565b604051808d81526020018c6001600160a01b03166001600160a01b031681526020018b81526020018a8152602001896001600160a01b03166001600160a01b03168152602001888152602001806020018060200187600881111561032257fe5b60ff168152602001868152602001858152602001848152602001838103835289818151815260200191508051906020019080838360005b83811015610371578181015183820152602001610359565b50505050905090810190601f16801561039e5780820380516001836020036101000a031916815260200191505b5083810382528851815288516020918201918a019080838360005b838110156103d15781810151838201526020016103b9565b50505050905090810190601f1680156103fe5780820380516001836020036101000a031916815260200191505b509e50505050505050505050505050505060405180910390f35b610220610d46565b61029b600480360360c081101561043657600080fd5b506001600160a01b03813581169160208101359160408201359160608101359161ffff6080830135169160a0013516610d57565b6101fc61104b565b61029b6004803603604081101561048857600080fd5b508035906020013560ff1661106b565b61029b600480360360208110156104ae57600080fd5b5035611333565b6104d2600480360360208110156104cb57600080fd5b5035611443565b604051808260088111156104e257fe5b60ff16815260200191505060405180910390f35b61029b611b05565b61052a6004803603604081101561051457600080fd5b50803590602001356001600160a01b0316611bb4565b6040518083600281111561053a57fe5b60ff1681526020018281526020019250505060405180910390f35b61029b6004803603602081101561056b57600080fd5b5035611c07565b6102206004803603602081101561058857600080fd5b5035611d23565b610597611d4c565b60408051602080825283518183015283519192839290830191858101910280838360005b838110156105d35781810151838201526020016105bb565b505050509050019250505060405180910390f35b61029b600480360360408110156105fd57600080fd5b508035906020013560ff16611dac565b61029b6004803603602081101561062357600080fd5b50356001600160a01b0316612085565b610220600480360360c081101561064957600080fd5b813591602081013591810190606081016040820135600160201b81111561066f57600080fd5b82018360208201111561068157600080fd5b803590602001918460018302840111600160201b831117156106a257600080fd5b919390929091602081019035600160201b8111156106bf57600080fd5b8201836020820111156106d157600080fd5b803590602001918460018302840111600160201b831117156106f257600080fd5b919390929091602081019035600160201b81111561070f57600080fd5b82018360208201111561072157600080fd5b803590602001918460018302840111600160201b8311171561074257600080fd5b919390929091602081019035600160201b81111561075f57600080fd5b82018360208201111561077157600080fd5b803590602001918460018302840111600160201b8311171561079257600080fd5b509092509050612146565b61029b600480360360208110156107b357600080fd5b50356001600160a01b0316612708565b61029b600480360360808110156107d957600080fd5b813591602081013591810190606081016040820135600160201b8111156107ff57600080fd5b82018360208201111561081157600080fd5b803590602001918460018302840111600160201b8311171561083257600080fd5b919390929091602081019035600160201b81111561084f57600080fd5b82018360208201111561086157600080fd5b803590602001918460018302840111600160201b8311171561088257600080fd5b509092509050612849565b61029b600480360360208110156108a357600080fd5b503561ffff16612b75565b6101fc612c6a565b61029b600480360360208110156108cc57600080fd5b5035612c84565b61029b600480360360208110156108e957600080fd5b5035612d29565b61029b6004803603602081101561090657600080fd5b50356001600160a01b0316612e38565b610261612f11565b6101fc612f91565b61029b6004803603602081101561093c57600080fd5b50356001600160a01b0316612fb0565b6000610956613089565b506035546001600160a01b03165b90565b6000610971613089565b5060385490565b6000610982613089565b50603a5461ffff1690565b6000610997613089565b506034546001600160a01b031690565b600190565b6109b4613089565b604080516060810190915260218082523330149190613fb1602083013990610a5a5760405162461bcd60e51b81526004018080602001828103825283818151815260200191508051906020019080838360005b83811015610a1f578181015183820152602001610a07565b50505050905090810190601f168015610a4c5780820380516001836020036101000a031916815260200191505b509250505060405180910390fd5b506001600160a01b038116610aa05760405162461bcd60e51b815260040180806020018281038252603c815260200180613c6b603c913960400191505060405180910390fd5b603580546001600160a01b0319166001600160a01b0392909216919091179055565b6000610acc613089565b5060395490565b600080600080600080606080600080600080610aed613089565b610af68d613114565b610afe6139d7565b60008e8152603c602090815260409182902082516101a081018452815481526001808301546001600160a01b0390811683860152600280850154848801526003850154606085015260048501549091166080840152600584015460a084015260068401805487516101009482161594909402600019011691909104601f81018690048602830186019096528582529194929360c086019391929190830182828015610bea5780601f10610bbf57610100808354040283529160200191610bea565b820191906000526020600020905b815481529060010190602001808311610bcd57829003601f168201915b505050918352505060078201805460408051602060026001851615610100026000190190941693909304601f8101849004840282018401909252818152938201939291830182828015610c7e5780601f10610c5357610100808354040283529160200191610c7e565b820191906000526020600020905b815481529060010190602001808311610c6157829003601f168201915b505050918352505060088281015460209092019160ff1690811115610c9f57fe5b6008811115610caa57fe5b815260200160098201548152602001600a8201548152602001600b8201548152602001600e820154815250509050806000015181602001518260400151836060015184608001518560a001518660c001518760e001518861010001518961012001518a61014001518b61016001518595508494509c509c509c509c509c509c509c509c509c509c509c509c505091939597999b5091939597999b565b6000610d50613089565b5060375490565b600054610100900460ff1680610d705750610d70613161565b80610d7e575060005460ff16155b610db95760405162461bcd60e51b815260040180806020018281038252602e815260200180613f83602e913960400191505060405180910390fd5b600054610100900460ff16158015610de4576000805460ff1961ff0019909116610100171660011790555b60006001600160a01b0316876001600160a01b031614156040518060600160405280602e8152602001613df9602e913990610e605760405162461bcd60e51b8152602060048201818152835160248401528351909283926044909101919085019080838360008315610a1f578181015183820152602001610a07565b5060338054610100600160a81b0319166101006001600160a01b038a16021790556040805160608101909152602b8082528715159190613ca7602083013990610eea5760405162461bcd60e51b8152602060048201818152835160248401528351909283926044909101919085019080838360008315610a1f578181015183820152602001610a07565b506037869055603885905561ffff8316610f355760405162461bcd60e51b8152600401808060200182810382526035815260200180613dc46035913960400191505060405180910390fd5b603a805461ffff191661ffff85161790558315801590610f56575060648411155b604051806060016040528060398152602001613be36039913990610fbb5760405162461bcd60e51b8152602060048201818152835160248401528351909283926044909101919085019080838360008315610a1f578181015183820152602001610a07565b5060398490556001600160a01b0382166110065760405162461bcd60e51b815260040180806020018281038252602e815260200180613b0f602e913960400191505060405180910390fd5b603a805462010000600160b01b031916620100006001600160a01b03851602179055611030611b05565b8015611042576000805461ff00191690555b50505050505050565b6000611055613089565b50603a546201000090046001600160a01b031690565b611073613089565b61107b613167565b6110836131b0565b61108b6131f7565b61109482613114565b6000828152603c60205260408120600201546037543392906110bd90839063ffffffff61323e16565b905081431180156110ce5750804311155b6111095760405162461bcd60e51b815260040180806020018281038252602b815260200180613ff6602b913960400191505060405180910390fd5b6000858152603c602090815260408083206001600160a01b0387168452600c0190915281205460ff169081600281111561113f57fe5b141561117c5760405162461bcd60e51b8152600401808060200182810382526031815260200180613d616031913960400191505060405180910390fd5b600285600281111561118a57fe5b14806111a15750600185600281111561119f57fe5b145b6111dc5760405162461bcd60e51b815260040180806020018281038252602c815260200180613e27602c913960400191505060405180910390fd5b6000868152603c602090815260408083206001600160a01b0388168452600c019091529020805486919060ff1916600183600281111561121857fe5b02179055506000868152603c602090815260408083206001600160a01b0388168452600d01909152902054600282600281111561125157fe5b1480156112695750600186600281111561126757fe5b145b156112875761127887826132a1565b61128287826132dc565b6112c6565b600182600281111561129557fe5b1480156112ad575060028660028111156112ab57fe5b145b156112c6576112bc8782613317565b6112c68782613339565b8560028111156112d257fe5b856001600160a01b0316887fce17252ae577424288e3ad071d9d5e757aeb4cdfaa1877449a20b54951474a3a84866040518083815260200182600281111561131657fe5b60ff1681526020019250505060405180910390a450505050505050565b61133b613089565b61134481613114565b603a546201000090046001600160a01b031633146113935760405162461bcd60e51b815260040180806020018281038252602d815260200180613bb6602d913960400191505060405180910390fd5b6000818152603c6020526040812060089081015460ff16908111156113b457fe5b146113f05760405162461bcd60e51b815260040180806020018281038252602a815260200180613c41602a913960400191505060405180910390fd5b6000818152603c60205260409020600801805460ff191660061790556114158161335b565b60405181907fde0cea2a3a0097cc3d981d40c375407760e85bc9c5e69aea449ac3885f8615c690600090a250565b600061144d613089565b611455613167565b61145d6131b0565b6114656131f7565b61146e82613114565b6000828152603c6020526040812060089081015460ff169081111561148f57fe5b146114cb5760405162461bcd60e51b8152600401808060200182810382526032815260200180613d926032913960400191505060405180910390fd5b6000828152603c6020526040812060088101805460ff1916600517905560020154603854603754919291611511919061150590859061323e565b9063ffffffff61323e16565b90508043116115515760405162461bcd60e51b815260040180806020018281038252604e815260200180613b3d604e913960600191505060405180910390fd5b6033546000858152603c60209081526040808320600301548151631c2d8fb360e31b815260048101919091529051929361010090046001600160a01b03169263e16c7d9892602480840193919291829003018186803b1580156115b357600080fd5b505afa1580156115c7573d6000803e3d6000fd5b505050506040513d60208110156115dd57600080fd5b50516000868152603c6020526040812060040154919250906001600160a01b0380841691161461160f57506007611a52565b6000868152603c60205260409020600e015461162a836133f4565b1461163757506008611a52565b6000868152603c602090815260409182902082516101a081018452815481526001808301546001600160a01b0390811683860152600280850154848801526003850154606085015260048501549091166080840152600584015460a084015260068401805487516101009482161594909402600019011691909104601f810186900486028301860190965285825261181f95929460c0860193908301828280156117225780601f106116f757610100808354040283529160200191611722565b820191906000526020600020905b81548152906001019060200180831161170557829003601f168201915b505050918352505060078201805460408051602060026001851615610100026000190190941693909304601f81018490048402820184019092528181529382019392918301828280156117b65780601f1061178b576101008083540402835291602001916117b6565b820191906000526020600020905b81548152906001019060200180831161179957829003601f168201915b505050918352505060088281015460209092019160ff16908111156117d757fe5b60088111156117e257fe5b815260098201546020820152600a8201546040820152600b8201546060820152600e909101546080909101526034546001600160a01b03166133f8565b61182b57506003611a52565b6000868152603c60205260409020600a8101546009909101541115611a4e576000868152603c60209081526040808320600581015460069091018054835160026001831615610100026000190190921691909104601f810186900486028201860190945283815260609461199294899493918301828280156118ee5780601f106118c3576101008083540402835291602001916118ee565b820191906000526020600020905b8154815290600101906020018083116118d157829003601f168201915b50505060008e8152603c60209081526040918290206007018054835160026001831615610100026000190190921691909104601f8101849004840282018401909452838152945092508301828280156119885780601f1061195d57610100808354040283529160200191611988565b820191906000526020600020905b81548152906001019060200180831161196b57829003601f168201915b50505050506134a9565b91509150811515887fa85727613e00cfd4688ad13995391ed4b4cd9e493bcb978393d8fddeec804dbd836040518080602001828103825283818151815260200191508051906020019080838360005b838110156119f95781810151838201526020016119e1565b50505050905090810190601f168015611a265780820380516001836020036101000a031916815260200191505b509250505060405180910390a38115611a425760029250611a47565b600492505b5050611a52565b5060015b6000868152603c6020526040902060089081018054839260ff19909116906001908490811115611a7e57fe5b0217905550611a8c8661335b565b806008811115611a9857fe5b6000878152603c60209081526040918290206009810154600a820154600b9092015484519182529281019190915280830191909152905188917fb5c05f2b4df457fb2a62ca282c87338fa901f0b7de530321f507d59859cc11cf919081900360600190a395945050505050565b600054610100900460ff1680611b1e5750611b1e613161565b80611b2c575060005460ff16155b611b675760405162461bcd60e51b815260040180806020018281038252602e815260200180613f83602e913960400191505060405180910390fd5b600054610100900460ff16158015611b92576000805460ff1961ff0019909116610100171660011790555b6033805460ff191660011790558015611bb1576000805461ff00191690555b50565b600080611bbf613089565b611bc884613114565b50506000918252603c602090815260408084206001600160a01b03939093168452600c8301825280842054600d9093019091529091205460ff90911691565b611c0f613089565b604080516060810190915260218082523330149190613fb1602083013990611c785760405162461bcd60e51b8152602060048201818152835160248401528351909283926044909101919085019080838360008315610a1f578181015183820152602001610a07565b50600081118015611c8a575060648111155b604051806060016040528060398152602001613be36039913990611cef5760405162461bcd60e51b8152602060048201818152835160248401528351909283926044909101919085019080838360008315610a1f578181015183820152602001610a07565b50603981905560405181907fdff2dad820b0b9218ba7ff3552dda2e644f04c9933b9c6e6e30db59568056d7690600090a250565b6000611d2d613089565b611d3682613114565b506000908152603c60205260409020600e015490565b6060611d56613089565b603d805480602002602001604051908101604052809291908181526020018280548015611da257602002820191906000526020600020905b815481526020019060010190808311611d8e575b5050505050905090565b611db4613089565b611dbc613167565b611dc46131b0565b611dcc6131f7565b611dd582613114565b6000828152603c6020526040812060020154603754339290611dfe90839063ffffffff61323e16565b90508143118015611e0f5750804311155b611e4a5760405162461bcd60e51b815260040180806020018281038252602b815260200180613ff6602b913960400191505060405180910390fd5b6000611e55846135eb565b905060008111611e965760405162461bcd60e51b81526004018080602001828103825260438152602001806140836043913960600191505060405180910390fd5b6000868152603c602090815260408083206001600160a01b0388168452600c0190915281205460ff166002811115611eca57fe5b14611f065760405162461bcd60e51b8152600401808060200182810382526036815260200180613f4d6036913960400191505060405180910390fd5b6002856002811115611f1457fe5b1480611f2b57506001856002811115611f2957fe5b145b611f665760405162461bcd60e51b815260040180806020018281038252602c815260200180613e27602c913960400191505060405180910390fd5b6000868152603c602090815260408083206001600160a01b0388168452600c019091529020805486919060ff19166001836002811115611fa257fe5b02179055506000868152603c602090815260408083206001600160a01b0388168452600d0190915290208190556002856002811115611fdd57fe5b1415611ff257611fed8682613339565b611ffc565b611ffc86826132dc565b6000868152603c60205260409020600b015461201f90600163ffffffff61323e16565b6000878152603c60205260409020600b015584600281111561203d57fe5b6040805183815290516001600160a01b0387169189917ff3f11b6b0f2367aeeec3a6b96f9528d1b57165334563e1d7083be608cdb64a549181900360200190a4505050505050565b61208d613089565b603a546201000090046001600160a01b031633146120f2576040805162461bcd60e51b815260206004820152601a60248201527f476f7665726e616e63653a204f6e6c7920677561726469616e2e000000000000604482015290519081900360640190fd5b603a805462010000600160b01b031916620100006001600160a01b038416908102919091179091556040517f83791e7c241cba88803a090fb286396572e88ebaea51be583bd10f82356ac41690600090a250565b6000612150613089565b612158613167565b6121606131b0565b6121686131f7565b6000339050306001600160a01b031663ea7e6ffb6040518163ffffffff1660e01b815260040160206040518083038186803b1580156121a657600080fd5b505afa1580156121ba573d6000803e3d6000fd5b505050506040513d60208110156121d057600080fd5b505161220d5760405162461bcd60e51b81526004018080602001828103825260608152602001806140c66060913960600191505060405180910390fd5b603a54603d5461ffff909116116122555760405162461bcd60e51b815260040180806020018281038252608f815260200180613cd2608f913960a00191505060405180910390fd5b6000612260826135eb565b118061227f5750603a546001600160a01b038281166201000090920416145b6122ba5760405162461bcd60e51b815260040180806020018281038252605c815260200180613ea1605c913960600191505060405180910390fd5b60335460408051631c2d8fb360e31b8152600481018f9052905160009261010090046001600160a01b03169163e16c7d98916024808301926020929190829003018186803b15801561230b57600080fd5b505afa15801561231f573d6000803e3d6000fd5b505050506040513d602081101561233557600080fd5b505190506001600160a01b03811661237e5760405162461bcd60e51b815260040180806020018281038252604e815260200180613e53604e913960600191505060405180910390fd5b896123ba5760405162461bcd60e51b815260040180806020018281038252602f815260200180613f1e602f913960400191505060405180910390fd5b836123f65760405162461bcd60e51b815260040180806020018281038252602b815260200180613b8b602b913960400191505060405180910390fd5b856124325760405162461bcd60e51b8152600401808060200182810382526024815260200180613fd26024913960400191505060405180910390fd5b603b5460009061244990600163ffffffff61323e16565b9050604051806101a00160405280828152602001846001600160a01b031681526020014381526020018f8152602001836001600160a01b031681526020018e81526020018d8d8080601f016020809104026020016040519081016040528093929190818152602001838380828437600092019190915250505090825250604080516020601f8e018190048102820181019092528c815291810191908d908d908190840183828082843760009201829052509385525050602090920191508152602001600081526020016000815260200160008152602001612529846133f4565b90526000828152603c602090815260409182902083518155838201516001820180546001600160a01b03199081166001600160a01b039384161790915593850151600283015560608501516003830155608085015160048301805490951691161790925560a0830151600583015560c083015180516125ae9260068501920190613a42565b5060e082015180516125ca916007840191602090910190613a42565b506101008201518160080160006101000a81548160ff021916908360088111156125f057fe5b02179055506101208201516009820155610140820151600a820155610160820151600b82015561018090910151600e90910155603d80546001810182556000919091527fece66cfdbd22e3f37d348a3d8e19074452862cd65fd4b9a11f0336d1ac6d1dc301819055604080518181529081018890526001600160a01b0384169082907f7edc618964f595eb3f96e87d2c01643484aa8490797eb47bd46680d0ad4c7f72908b908b908b908b90806020810160608201878780828437600083820152601f01601f191690910184810383528581526020019050858580828437600083820152604051601f909101601f19169092018290039850909650505050505050a3603b8190559d9c50505050505050505050505050565b612710613089565b604080516060810190915260218082523330149190613fb16020830139906127795760405162461bcd60e51b8152602060048201818152835160248401528351909283926044909101919085019080838360008315610a1f578181015183820152602001610a07565b5060006001600160a01b0316816001600160a01b031614156040518060600160405280602e8152602001613df9602e9139906127f65760405162461bcd60e51b8152602060048201818152835160248401528351909283926044909101919085019080838360008315610a1f578181015183820152602001610a07565b5060338054610100600160a81b0319166101006001600160a01b038416908102919091179091556040517fc533a624c353ec88e315b162298e52e2b02aa03d5fb5afdbf13445a26f1d10c790600090a250565b612851613089565b603a546201000090046001600160a01b031633146128b6576040805162461bcd60e51b815260206004820152601a60248201527f476f7665726e616e63653a204f6e6c7920677561726469616e2e000000000000604482015290519081900360640190fd5b60335460408051631c2d8fb360e31b815260048101899052905160009261010090046001600160a01b03169163e16c7d98916024808301926020929190829003018186803b15801561290757600080fd5b505afa15801561291b573d6000803e3d6000fd5b505050506040513d602081101561293157600080fd5b505190506001600160a01b03811661297a5760405162461bcd60e51b815260040180806020018281038252604e815260200180613e53604e913960600191505060405180910390fd5b836129b65760405162461bcd60e51b815260040180806020018281038252602f815260200180613f1e602f913960400191505060405180910390fd5b60006060612a2f838989898080601f01602080910402602001604051908101604052809392919081815260200183838082843760009201919091525050604080516020601f8d018190048102820181019092528b815292508b91508a90819084018382808284376000920191909152506134a992505050565b9150915081612a85576040805162461bcd60e51b815260206004820152601f60248201527f476f7665726e616e63653a205472616e73616374696f6e206661696c65642e00604482015290519081900360640190fd5b8484604051808383808284376040519201829003822094508b93508a925081905083838082843780830192505050925050506040518091039020846001600160a01b03167f1ed1b90f960f5def1ae3c55d9fe576389498fe6a1e2e44659f7f08f74f4f21ce8b856040518083815260200180602001828103825283818151815260200191508051906020019080838360005b83811015612b2f578181015183820152602001612b17565b50505050905090810190601f168015612b5c5780820380516001836020036101000a031916815260200191505b50935050505060405180910390a4505050505050505050565b612b7d613089565b604080516060810190915260218082523330149190613fb1602083013990612be65760405162461bcd60e51b8152602060048201818152835160248401528351909283926044909101919085019080838360008315610a1f578181015183820152602001610a07565b5060008161ffff1611612c2a5760405162461bcd60e51b81526004018080602001828103825260388152602001806141536038913960400191505060405180910390fd5b603a805461ffff191661ffff83169081179091556040517f79913f9e27696795126259d88dbe46a5e074cd2602541360f5311a5755c4215090600090a250565b6000612c74613089565b506036546001600160a01b031690565b612c8c613089565b604080516060810190915260218082523330149190613fb1602083013990612cf55760405162461bcd60e51b8152602060048201818152835160248401528351909283926044909101919085019080838360008315610a1f578181015183820152602001610a07565b50603881905560405181907f04aa79a5e8a5e68218f378c9b9ecf136054085d35534faf89462199fb969d1c690600090a250565b612d31613089565b604080516060810190915260218082523330149190613fb1602083013990612d9a5760405162461bcd60e51b8152602060048201818152835160248401528351909283926044909101919085019080838360008315610a1f578181015183820152602001610a07565b50600081116040518060600160405280602b8152602001613ca7602b913990612e045760405162461bcd60e51b8152602060048201818152835160248401528351909283926044909101919085019080838360008315610a1f578181015183820152602001610a07565b50603781905560405181907f651c77f42613a075437aa794c44471e3abc3a661956a67aaee165bb7396974aa90600090a250565b612e40613089565b604080516060810190915260218082523330149190613fb1602083013990612ea95760405162461bcd60e51b8152602060048201818152835160248401528351909283926044909101919085019080838360008315610a1f578181015183820152602001610a07565b506001600160a01b038116612eef5760405162461bcd60e51b815260040180806020018281038252603581526020018061404e6035913960400191505060405180910390fd5b603680546001600160a01b0319166001600160a01b0392909216919091179055565b6000612f1b613089565b60005b603d54811015612f8957612f70603854611505603754603c6000603d8781548110612f4557fe5b906000526020600020015481526020019081526020016000206002015461323e90919063ffffffff16565b431115612f81576000915050610964565b600101612f1e565b506001905090565b6000612f9b613089565b5060335461010090046001600160a01b031690565b612fb8613089565b604080516060810190915260218082523330149190613fb16020830139906130215760405162461bcd60e51b8152602060048201818152835160248401528351909283926044909101919085019080838360008315610a1f578181015183820152602001610a07565b506001600160a01b0381166130675760405162461bcd60e51b815260040180806020018281038252602d815260200180614021602d913960400191505060405180910390fd5b603480546001600160a01b0319166001600160a01b0392909216919091179055565b6033546040805180820190915260208082527f496e697469616c697a61626c6556323a204e6f7420696e697469616c697a6564908201529060ff161515600114611bb15760405162461bcd60e51b8152602060048201818152835160248401528351909283926044909101919085019080838360008315610a1f578181015183820152602001610a07565b603b5481111580156131265750600081115b611bb15760405162461bcd60e51b815260040180806020018281038252603381526020018061418b6033913960400191505060405180910390fd5b303b1590565b6034546001600160a01b03166131ae5760405162461bcd60e51b8152600401808060200182810382526025815260200180613c1c6025913960400191505060405180910390fd5b565b6035546001600160a01b03166131ae5760405162461bcd60e51b8152600401808060200182810382526034815260200180613adb6034913960400191505060405180910390fd5b6036546001600160a01b03166131ae5760405162461bcd60e51b815260040180806020018281038252602d815260200180614126602d913960400191505060405180910390fd5b600082820183811015613298576040805162461bcd60e51b815260206004820152601b60248201527f536166654d6174683a206164646974696f6e206f766572666c6f770000000000604482015290519081900360640190fd5b90505b92915050565b6000828152603c60205260409020600901546132c3908263ffffffff61383b16565b6000928352603c60205260409092206009019190915550565b6000828152603c60205260409020600a01546132fe908263ffffffff61323e16565b6000928352603c6020526040909220600a019190915550565b6000828152603c60205260409020600a01546132fe908263ffffffff61383b16565b6000828152603c60205260409020600901546132c3908263ffffffff61323e16565b6000805b603d548110156133985782603d828154811061337757fe5b9060005260206000200154141561339057809150613398565b60010161335f565b50603d805460001981019081106133ab57fe5b9060005260206000200154603d82815481106133c357fe5b600091825260209091200155603d8054806133da57fe5b600190038181906000526020600020016000905590555050565b3f90565b60008061349c836001600160a01b031663c9c5323286604001516040518263ffffffff1660e01b81526004018082815260200191505060206040518083038186803b15801561344657600080fd5b505afa15801561345a573d6000803e3d6000fd5b505050506040513d602081101561347057600080fd5b50516101408601516101208701516134909101606463ffffffff61387d16565b9063ffffffff6138d616565b6039541115949350505050565b600060608084805190602001208460405160200180836001600160e01b0319166001600160e01b031916815260040182805190602001908083835b602083106135035780518252601f1990920191602091820191016134e4565b6001836020036101000a038019825116818451168082178552505050505050905001925050506040516020818303038152906040529050866001600160a01b031686826040518082805190602001908083835b602083106135755780518252601f199092019160209182019101613556565b6001836020036101000a03801982511681845116808217855250505050505090500191505060006040518083038185875af1925050503d80600081146135d7576040519150601f19603f3d011682016040523d82523d6000602084013e6135dc565b606091505b50909890975095505050505050565b60355460365460408051631e4e7d3560e31b81526001600160a01b0385811660048301529151600094831693909216918491849163f273e9a89160248082019260c092909190829003018186803b15801561364557600080fd5b505afa158015613659573d6000803e3d6000fd5b505050506040513d60c081101561366f57600080fd5b5051604080516001624d61bb60e11b031981526001600160a01b03888116600483015282519394506000939087169263ff653c8a9260248082019391829003018186803b1580156136bf57600080fd5b505afa1580156136d3573d6000803e3d6000fd5b505050506040513d60408110156136e957600080fd5b5051905060006136ff838363ffffffff61383b16565b90506000846001600160a01b031663b0303b75896040518263ffffffff1660e01b815260040180826001600160a01b03166001600160a01b0316815260200191505060206040518083038186803b15801561375957600080fd5b505afa15801561376d573d6000803e3d6000fd5b505050506040513d602081101561378357600080fd5b505160408051639336086f60e01b81526001600160a01b038b81166004830152915192935060009291881691639336086f91602480820192606092909190829003018186803b1580156137d557600080fd5b505afa1580156137e9573d6000803e3d6000fd5b505050506040513d60608110156137ff57600080fd5b506020015190506000613818838363ffffffff61383b16565b9050600061382c858363ffffffff61323e16565b9b9a5050505050505050505050565b600061329883836040518060400160405280601e81526020017f536166654d6174683a207375627472616374696f6e206f766572666c6f770000815250613918565b60008261388c5750600061329b565b8282028284828161389957fe5b04146132985760405162461bcd60e51b8152600401808060200182810382526021815260200180613efd6021913960400191505060405180910390fd5b600061329883836040518060400160405280601a81526020017f536166654d6174683a206469766973696f6e206279207a65726f000000000000815250613972565b6000818484111561396a5760405162461bcd60e51b8152602060048201818152835160248401528351909283926044909101919085019080838360008315610a1f578181015183820152602001610a07565b505050900390565b600081836139c15760405162461bcd60e51b8152602060048201818152835160248401528351909283926044909101919085019080838360008315610a1f578181015183820152602001610a07565b5060008385816139cd57fe5b0495945050505050565b604080516101a08101825260008082526020820181905291810182905260608082018390526080820183905260a0820183905260c0820181905260e0820152906101008201908152602001600081526020016000815260200160008152602001600080191681525090565b828054600181600116156101000203166002900490600052602060002090601f016020900481019282601f10613a8357805160ff1916838001178555613ab0565b82800160010185558215613ab0579182015b82811115613ab0578251825591602001919060010190613a95565b50613abc929150613ac0565b5090565b61096491905b80821115613abc5760008155600101613ac656fe476f7665726e616e63653a207365727669636550726f7669646572466163746f727941646472657373206973206e6f7420736574476f7665726e616e63653a205265717569726573206e6f6e2d7a65726f205f677561726469616e41646472657373476f7665726e616e63653a2050726f706f73616c20766f74696e67506572696f64202620657865637574696f6e44656c6179206d75737420656e64206265666f7265206576616c756174696f6e2e476f7665726e616e63653a205f6465736372697074696f6e206c656e677468206d757374206265203e2030476f7665726e616e63653a204f6e6c7920677561726469616e2063616e207665746f2070726f706f73616c732e476f7665726e616e63653a205265717569726573205f766f74696e6751756f72756d50657263656e74206265747765656e2031202620313030476f7665726e616e63653a207374616b696e6741646472657373206973206e6f7420736574476f7665726e616e63653a2043616e6e6f74207665746f20696e6163746976652070726f706f73616c2e476f7665726e616e63653a205265717569726573206e6f6e2d7a65726f205f7365727669636550726f7669646572466163746f727941646472657373476f7665726e616e63653a205265717569726573206e6f6e2d7a65726f205f766f74696e67506572696f64476f7665726e616e63653a204e756d626572206f6620496e50726f67726573732070726f706f73616c7320616c7265616479206174206d61782e20506c65617365206576616c7561746520696620706f737369626c652c206f72207761697420666f722063757272656e742070726f706f73616c732720766f74696e67506572696f647320746f206578706972652e476f7665726e616e63653a20546f207375626d6974206e657720766f74652c2063616c6c207375626d6974566f74652829476f7665726e616e63653a2043616e206f6e6c79206576616c7561746520496e50726f67726573732070726f706f73616c2e476f7665726e616e63653a205265717569726573206e6f6e2d7a65726f205f6d6178496e50726f677265737350726f706f73616c73476f7665726e616e63653a205265717569726573206e6f6e2d7a65726f205f726567697374727941646472657373476f7665726e616e63653a2043616e206f6e6c79207375626d6974206120596573206f72204e6f20766f7465476f7665726e616e63653a205f746172676574436f6e747261637452656769737472794b6579206d75737420706f696e7420746f2076616c6964207265676973746572656420636f6e7472616374476f7665726e616e63653a2050726f706f736572206d75737420626520616464726573732077697468206e6f6e2d7a65726f20746f74616c20616374697665207374616b65206f7220626520677561726469616e416464726573732e536166654d6174683a206d756c7469706c69636174696f6e206f766572666c6f77476f7665726e616e63653a205f66756e6374696f6e5369676e61747572652063616e6e6f7420626520656d7074792e476f7665726e616e63653a20546f207570646174652070726576696f757320766f74652c2063616c6c20757064617465566f74652829436f6e747261637420696e7374616e63652068617320616c7265616479206265656e20696e697469616c697a6564476f7665726e616e63653a204f6e6c792063616c6c61626c652062792073656c66476f7665726e616e63653a205f6e616d65206c656e677468206d757374206265203e2030476f7665726e616e63653a2050726f706f73616c20766f74696e67506572696f642068617320656e646564476f7665726e616e63653a205265717569726573206e6f6e2d7a65726f205f7374616b696e6741646472657373476f7665726e616e63653a205265717569726573206e6f6e2d7a65726f205f64656c65676174654d616e6167657241646472657373476f7665726e616e63653a20566f746572206d75737420626520616464726573732077697468206e6f6e2d7a65726f20746f74616c20616374697665207374616b652e476f7665726e616e63653a2043616e6e6f74207375626d6974206e65772070726f706f73616c20756e74696c20616c6c206576616c75617461626c6520496e50726f67726573732070726f706f73616c7320617265206576616c75617465642e476f7665726e616e63653a2064656c65676174654d616e6167657241646472657373206973206e6f7420736574476f7665726e616e63653a205265717569726573206e6f6e2d7a65726f205f6e65774d6178496e50726f677265737350726f706f73616c73476f7665726e616e63653a204d7573742070726f766964652076616c6964206e6f6e2d7a65726f205f70726f706f73616c4964a265627a7a723158202b767b3d5dc44aa901dc6c519b446d0e98f3c0bfe26d88f243b6d29530d87b9d64736f6c63430005110032",
  "source": "pragma solidity ^0.5.0;\n\nimport \"@openzeppelin/contracts-ethereum-package/contracts/math/SafeMath.sol\";\nimport \"./Staking.sol\";\nimport \"./ServiceProviderFactory.sol\";\nimport \"./DelegateManager.sol\";\nimport \"./registry/Registry.sol\";\nimport \"./InitializableV2.sol\";\n\n\ncontract Governance is InitializableV2 {\n    using SafeMath for uint256;\n\n    string private constant ERROR_ONLY_GOVERNANCE = (\n        \"Governance: Only callable by self\"\n    );\n    string private constant ERROR_INVALID_VOTING_PERIOD = (\n        \"Governance: Requires non-zero _votingPeriod\"\n    );\n    string private constant ERROR_INVALID_REGISTRY = (\n        \"Governance: Requires non-zero _registryAddress\"\n    );\n    string private constant ERROR_INVALID_VOTING_QUORUM = (\n        \"Governance: Requires _votingQuorumPercent between 1 & 100\"\n    );\n\n    /**\n     * @notice Address and contract instance of Audius Registry. Used to ensure this contract\n     *      can only govern contracts that are registered in the Audius Registry.\n     */\n    Registry private registry;\n\n    /// @notice Address of Audius staking contract, used to permission Governance method calls\n    address private stakingAddress;\n\n    /// @notice Address of Audius ServiceProvider contract, used to permission Governance method calls\n    address private serviceProviderFactoryAddress;\n\n    /// @notice Address of Audius DelegateManager contract, used to permission Governance method calls\n    address private delegateManagerAddress;\n\n    /// @notice Period in blocks for which a governance proposal is open for voting\n    uint256 private votingPeriod;\n\n    /// @notice Number of blocks that must pass after votingPeriod has expired before proposal can be evaluated/executed\n    uint256 private executionDelay;\n\n    /// @notice Required minimum percentage of total stake to have voted to consider a proposal valid\n    ///         Percentaged stored as a uint256 between 0 & 100\n    ///         Calculated as: 100 * sum of voter stakes / total staked in Staking (at proposal submission block)\n    uint256 private votingQuorumPercent;\n\n    /// @notice Max number of InProgress proposals possible at once\n    /// @dev uint16 gives max possible value of 65,535\n    uint16 private maxInProgressProposals;\n\n    /**\n     * @notice Address of account that has special Governance permissions. Can veto proposals\n     *      and execute transactions directly on contracts.\n     */\n    address private guardianAddress;\n\n    /***** Enums *****/\n\n    /**\n     * @notice All Proposal Outcome states.\n     *      InProgress - Proposal is active and can be voted on.\n     *      Rejected - Proposal votingPeriod has closed and vote failed to pass. Proposal will not be executed.\n     *      ApprovedExecuted - Proposal votingPeriod has closed and vote passed. Proposal was successfully executed.\n     *      QuorumNotMet - Proposal votingPeriod has closed and votingQuorumPercent was not met. Proposal will not be executed.\n     *      ApprovedExecutionFailed - Proposal vote passed, but transaction execution failed.\n     *      Evaluating - Proposal vote passed, and evaluateProposalOutcome function is currently running.\n     *          This status is transiently used inside that function to prevent re-entrancy.\n     *      Vetoed - Proposal was vetoed by Guardian.\n     *      TargetContractAddressChanged - Proposal considered invalid since target contract address changed\n     *      TargetContractCodeHashChanged - Proposal considered invalid since code has at target contract address has changed\n     */\n    enum Outcome {\n        InProgress,\n        Rejected,\n        ApprovedExecuted,\n        QuorumNotMet,\n        ApprovedExecutionFailed,\n        Evaluating,\n        Vetoed,\n        TargetContractAddressChanged,\n        TargetContractCodeHashChanged\n    }\n\n    /**\n     * @notice All Proposal Vote states for a voter.\n     *      None - The default state, for any account that has not previously voted on this Proposal.\n     *      No - The account voted No on this Proposal.\n     *      Yes - The account voted Yes on this Proposal.\n     * @dev Enum values map to uints, so first value in Enum always is 0.\n     */\n    enum Vote {None, No, Yes}\n\n    struct Proposal {\n        uint256 proposalId;\n        address proposer;\n        uint256 submissionBlockNumber;\n        bytes32 targetContractRegistryKey;\n        address targetContractAddress;\n        uint256 callValue;\n        string functionSignature;\n        bytes callData;\n        Outcome outcome;\n        uint256 voteMagnitudeYes;\n        uint256 voteMagnitudeNo;\n        uint256 numVotes;\n        mapping(address => Vote) votes;\n        mapping(address => uint256) voteMagnitudes;\n        bytes32 contractHash;\n    }\n\n    /***** Proposal storage *****/\n\n    /// @notice ID of most recently created proposal. Ids are monotonically increasing and 1-indexed.\n    uint256 lastProposalId = 0;\n\n    /// @notice mapping of proposalId to Proposal struct with all proposal state\n    mapping(uint256 => Proposal) proposals;\n\n    /// @notice array of proposals with InProgress state\n    uint256[] inProgressProposals;\n\n\n    /***** Events *****/\n    event ProposalSubmitted(\n        uint256 indexed _proposalId,\n        address indexed _proposer,\n        string _name,\n        string _description\n    );\n    event ProposalVoteSubmitted(\n        uint256 indexed _proposalId,\n        address indexed _voter,\n        Vote indexed _vote,\n        uint256 _voterStake\n    );\n    event ProposalVoteUpdated(\n        uint256 indexed _proposalId,\n        address indexed _voter,\n        Vote indexed _vote,\n        uint256 _voterStake,\n        Vote _previousVote\n    );\n    event ProposalOutcomeEvaluated(\n        uint256 indexed _proposalId,\n        Outcome indexed _outcome,\n        uint256 _voteMagnitudeYes,\n        uint256 _voteMagnitudeNo,\n        uint256 _numVotes\n    );\n    event ProposalTransactionExecuted(\n        uint256 indexed _proposalId,\n        bool indexed _success,\n        bytes _returnData\n    );\n    event GuardianTransactionExecuted(\n        address indexed _targetContractAddress,\n        uint256 _callValue,\n        string indexed _functionSignature,\n        bytes indexed _callData,\n        bytes _returnData\n    );\n    event ProposalVetoed(uint256 indexed _proposalId);\n    event RegistryAddressUpdated(address indexed _newRegistryAddress);\n    event GuardianshipTransferred(address indexed _newGuardianAddress);\n    event VotingPeriodUpdated(uint256 indexed _newVotingPeriod);\n    event ExecutionDelayUpdated(uint256 indexed _newExecutionDelay);\n    event VotingQuorumPercentUpdated(uint256 indexed _newVotingQuorumPercent);\n    event MaxInProgressProposalsUpdated(uint256 indexed _newMaxInProgressProposals);\n\n    /**\n     * @notice Initialize the Governance contract\n     * @dev _votingPeriod <= DelegateManager.undelegateLockupDuration\n     * @dev stakingAddress must be initialized separately after Staking contract is deployed\n     * @param _registryAddress - address of the registry proxy contract\n     * @param _votingPeriod - period in blocks for which a governance proposal is open for voting\n     * @param _executionDelay - number of blocks that must pass after votingPeriod has expired before proposal can be evaluated/executed\n     * @param _votingQuorumPercent - required minimum percentage of total stake to have voted to consider a proposal valid\n     * @param _maxInProgressProposals - max number of InProgress proposals possible at once\n     * @param _guardianAddress - address of account that has special Governance permissions\n     */\n    function initialize(\n        address _registryAddress,\n        uint256 _votingPeriod,\n        uint256 _executionDelay,\n        uint256 _votingQuorumPercent,\n        uint16 _maxInProgressProposals,\n        address _guardianAddress\n    ) public initializer {\n        require(_registryAddress != address(0x00), ERROR_INVALID_REGISTRY);\n        registry = Registry(_registryAddress);\n\n        require(_votingPeriod > 0, ERROR_INVALID_VOTING_PERIOD);\n        votingPeriod = _votingPeriod;\n\n        // executionDelay does not have to be non-zero\n        executionDelay = _executionDelay;\n\n        require(\n            _maxInProgressProposals > 0,\n            \"Governance: Requires non-zero _maxInProgressProposals\"\n        );\n        maxInProgressProposals = _maxInProgressProposals;\n\n        require(\n            _votingQuorumPercent > 0 && _votingQuorumPercent <= 100,\n            ERROR_INVALID_VOTING_QUORUM\n        );\n        votingQuorumPercent = _votingQuorumPercent;\n\n        require(\n            _guardianAddress != address(0x00),\n            \"Governance: Requires non-zero _guardianAddress\"\n        );\n        guardianAddress = _guardianAddress;  //Guardian address becomes the only party\n\n        InitializableV2.initialize();\n    }\n\n    // ========================================= Governance Actions =========================================\n\n    /**\n     * @notice Submit a proposal for vote. Only callable by addresses with non-zero total active stake.\n     *      total active stake = total active deployer stake + total active delegator stake\n     *\n     * @dev _name and _description length is not enforced since they aren't stored on-chain and only event emitted\n     *\n     * @param _targetContractRegistryKey - Registry key for the contract concerning this proposal\n     * @param _callValue - amount of wei to pass with function call if a token transfer is involved\n     * @param _functionSignature - function signature of the function to be executed if proposal is successful\n     * @param _callData - encoded value(s) to call function with if proposal is successful\n     * @param _name - Text name of proposal to be emitted in event\n     * @param _description - Text description of proposal to be emitted in event\n     *\n     * @return - ID of new proposal\n     */\n    function submitProposal(\n        bytes32 _targetContractRegistryKey,\n        uint256 _callValue,\n        string calldata _functionSignature,\n        bytes calldata _callData,\n        string calldata _name,\n        string calldata _description\n    ) external returns (uint256)\n    {\n        _requireIsInitialized();\n        _requireStakingAddressIsSet();\n        _requireServiceProviderFactoryAddressIsSet();\n        _requireDelegateManagerAddressIsSet();\n\n        address proposer = msg.sender;\n\n        // Require all InProgress proposals that can be evaluated have been evaluated before new proposal submission\n        require(\n            this.inProgressProposalsAreUpToDate(),\n            \"Governance: Cannot submit new proposal until all evaluatable InProgress proposals are evaluated.\"\n        );\n\n        // Require new proposal submission would not push number of InProgress proposals over max number\n        require(\n            inProgressProposals.length < maxInProgressProposals,\n            \"Governance: Number of InProgress proposals already at max. Please evaluate if possible, or wait for current proposals' votingPeriods to expire.\"\n        );\n\n        // Require proposer has non-zero total active stake or is guardian address\n        require(\n            _calculateAddressActiveStake(proposer) > 0 || proposer == guardianAddress,\n            \"Governance: Proposer must be address with non-zero total active stake or be guardianAddress.\"\n        );\n\n        // Require _targetContractRegistryKey points to a valid registered contract\n        address targetContractAddress = registry.getContract(_targetContractRegistryKey);\n        require(\n            targetContractAddress != address(0x00),\n            \"Governance: _targetContractRegistryKey must point to valid registered contract\"\n        );\n\n        // Signature cannot be empty\n        require(\n            bytes(_functionSignature).length != 0,\n            \"Governance: _functionSignature cannot be empty.\"\n        );\n\n        // Require non-zero description length\n        require(bytes(_description).length > 0, \"Governance: _description length must be > 0\");\n\n        // Require non-zero name length\n        require(bytes(_name).length > 0, \"Governance: _name length must be > 0\");\n\n        // set proposalId\n        uint256 newProposalId = lastProposalId.add(1);\n\n        // Store new Proposal obj in proposals mapping\n        proposals[newProposalId] = Proposal({\n            proposalId: newProposalId,\n            proposer: proposer,\n            submissionBlockNumber: block.number,\n            targetContractRegistryKey: _targetContractRegistryKey,\n            targetContractAddress: targetContractAddress,\n            callValue: _callValue,\n            functionSignature: _functionSignature,\n            callData: _callData,\n            outcome: Outcome.InProgress,\n            voteMagnitudeYes: 0,\n            voteMagnitudeNo: 0,\n            numVotes: 0,\n            contractHash: _getCodeHash(targetContractAddress)\n            /* votes: mappings are auto-initialized to default state */\n            /* voteMagnitudes: mappings are auto-initialized to default state */\n        });\n\n        // Append new proposalId to inProgressProposals array\n        inProgressProposals.push(newProposalId);\n\n        emit ProposalSubmitted(\n            newProposalId,\n            proposer,\n            _name,\n            _description\n        );\n\n        lastProposalId = newProposalId;\n\n        return newProposalId;\n    }\n\n    /**\n     * @notice Vote on an active Proposal. Only callable by addresses with non-zero active stake.\n     * @param _proposalId - id of the proposal this vote is for\n     * @param _vote - can be either {Yes, No} from Vote enum. No other values allowed\n     */\n    function submitVote(uint256 _proposalId, Vote _vote) external {\n        _requireIsInitialized();\n        _requireStakingAddressIsSet();\n        _requireServiceProviderFactoryAddressIsSet();\n        _requireDelegateManagerAddressIsSet();\n        _requireValidProposalId(_proposalId);\n\n        address voter = msg.sender;\n\n        // Require proposal votingPeriod is still active\n        uint256 submissionBlockNumber = proposals[_proposalId].submissionBlockNumber;\n        uint256 endBlockNumber = submissionBlockNumber.add(votingPeriod);\n        require(\n            block.number > submissionBlockNumber && block.number <= endBlockNumber,\n            \"Governance: Proposal votingPeriod has ended\"\n        );\n\n        // Require voter has non-zero total active stake\n        uint256 voterActiveStake = _calculateAddressActiveStake(voter);\n        require(\n            voterActiveStake > 0,\n            \"Governance: Voter must be address with non-zero total active stake.\"\n        );\n\n        // Require previous vote is None\n        require(\n            proposals[_proposalId].votes[voter] == Vote.None,\n            \"Governance: To update previous vote, call updateVote()\"\n        );\n\n        // Require vote is either Yes or No\n        require(\n            _vote == Vote.Yes || _vote == Vote.No,\n            \"Governance: Can only submit a Yes or No vote\"\n        );\n\n        // Record vote\n        proposals[_proposalId].votes[voter] = _vote;\n\n        // Record voteMagnitude for voter\n        proposals[_proposalId].voteMagnitudes[voter] = voterActiveStake;\n\n        // Update proposal cumulative vote magnitudes\n        if (_vote == Vote.Yes) {\n            _increaseVoteMagnitudeYes(_proposalId, voterActiveStake);\n        } else {\n            _increaseVoteMagnitudeNo(_proposalId, voterActiveStake);\n        }\n\n        // Increment proposal numVotes\n        proposals[_proposalId].numVotes = proposals[_proposalId].numVotes.add(1);\n\n        emit ProposalVoteSubmitted(\n            _proposalId,\n            voter,\n            _vote,\n            voterActiveStake\n        );\n    }\n\n    /**\n     * @notice Update previous vote on an active Proposal. Only callable by addresses with non-zero active stake.\n     * @param _proposalId - id of the proposal this vote is for\n     * @param _vote - can be either {Yes, No} from Vote enum. No other values allowed\n     */\n    function updateVote(uint256 _proposalId, Vote _vote) external {\n        _requireIsInitialized();\n        _requireStakingAddressIsSet();\n        _requireServiceProviderFactoryAddressIsSet();\n        _requireDelegateManagerAddressIsSet();\n        _requireValidProposalId(_proposalId);\n\n        address voter = msg.sender;\n\n        // Require proposal votingPeriod is still active\n        uint256 submissionBlockNumber = proposals[_proposalId].submissionBlockNumber;\n        uint256 endBlockNumber = submissionBlockNumber.add(votingPeriod);\n        require(\n            block.number > submissionBlockNumber && block.number <= endBlockNumber,\n            \"Governance: Proposal votingPeriod has ended\"\n        );\n\n        // Retrieve previous vote\n        Vote previousVote = proposals[_proposalId].votes[voter];\n\n        // Require previous vote is not None\n        require(\n            previousVote != Vote.None,\n            \"Governance: To submit new vote, call submitVote()\"\n        );\n\n        // Require vote is either Yes or No\n        require(\n            _vote == Vote.Yes || _vote == Vote.No,\n            \"Governance: Can only submit a Yes or No vote\"\n        );\n\n        // Record updated vote\n        proposals[_proposalId].votes[voter] = _vote;\n\n        // Update vote magnitudes, using vote magnitude from when previous vote was submitted\n        uint256 voteMagnitude = proposals[_proposalId].voteMagnitudes[voter];\n        if (previousVote == Vote.Yes && _vote == Vote.No) {\n            _decreaseVoteMagnitudeYes(_proposalId, voteMagnitude);\n            _increaseVoteMagnitudeNo(_proposalId, voteMagnitude);\n        } else if (previousVote == Vote.No && _vote == Vote.Yes) {\n            _decreaseVoteMagnitudeNo(_proposalId, voteMagnitude);\n            _increaseVoteMagnitudeYes(_proposalId, voteMagnitude);\n        }\n        // If _vote == previousVote, no changes needed to vote magnitudes.\n\n        // Do not update numVotes\n\n        emit ProposalVoteUpdated(\n            _proposalId,\n            voter,\n            _vote,\n            voteMagnitude,\n            previousVote\n        );\n    }\n\n    /**\n     * @notice Once the voting period + executionDelay for a proposal has ended, evaluate the outcome and\n     *      execute the proposal if voting quorum met & vote passes.\n     *      To pass, stake-weighted vote must be > 50% Yes.\n     * @dev Requires that caller is an active staker at the time the proposal is created\n     * @param _proposalId - id of the proposal\n     * @return Outcome of proposal evaluation\n     */\n    function evaluateProposalOutcome(uint256 _proposalId)\n    external returns (Outcome)\n    {\n        _requireIsInitialized();\n        _requireStakingAddressIsSet();\n        _requireServiceProviderFactoryAddressIsSet();\n        _requireDelegateManagerAddressIsSet();\n        _requireValidProposalId(_proposalId);\n\n        // Require proposal has not already been evaluated.\n        require(\n            proposals[_proposalId].outcome == Outcome.InProgress,\n            \"Governance: Can only evaluate InProgress proposal.\"\n        );\n\n        // Re-entrancy should not be possible here since this switches the status of the\n        // proposal to 'Evaluating' so it should fail the status is 'InProgress' check\n        proposals[_proposalId].outcome = Outcome.Evaluating;\n\n        // Require proposal votingPeriod + executionDelay have ended.\n        uint256 submissionBlockNumber = proposals[_proposalId].submissionBlockNumber;\n        uint256 endBlockNumber = submissionBlockNumber.add(votingPeriod).add(executionDelay);\n        require(\n            block.number > endBlockNumber,\n            \"Governance: Proposal votingPeriod & executionDelay must end before evaluation.\"\n        );\n\n        address targetContractAddress = registry.getContract(\n            proposals[_proposalId].targetContractRegistryKey\n        );\n\n        Outcome outcome;\n\n        // target contract address changed -> close proposal without execution.\n        if (targetContractAddress != proposals[_proposalId].targetContractAddress) {\n            outcome = Outcome.TargetContractAddressChanged;\n        }\n        // target contract code hash changed -> close proposal without execution.\n        else if (_getCodeHash(targetContractAddress) != proposals[_proposalId].contractHash) {\n            outcome = Outcome.TargetContractCodeHashChanged;\n        }\n        // voting quorum not met -> close proposal without execution.\n        else if (_quorumMet(proposals[_proposalId], Staking(stakingAddress)) == false) {\n            outcome = Outcome.QuorumNotMet;\n        }\n        // votingQuorumPercent met & vote passed -> execute proposed transaction & close proposal.\n        else if (\n            proposals[_proposalId].voteMagnitudeYes > proposals[_proposalId].voteMagnitudeNo\n        ) {\n            (bool success, bytes memory returnData) = _executeTransaction(\n                targetContractAddress,\n                proposals[_proposalId].callValue,\n                proposals[_proposalId].functionSignature,\n                proposals[_proposalId].callData\n            );\n\n            emit ProposalTransactionExecuted(\n                _proposalId,\n                success,\n                returnData\n            );\n\n            // Proposal outcome depends on success of transaction execution.\n            if (success) {\n                outcome = Outcome.ApprovedExecuted;\n            } else {\n                outcome = Outcome.ApprovedExecutionFailed;\n            }\n        }\n        // votingQuorumPercent met & vote did not pass -> close proposal without transaction execution.\n        else {\n            outcome = Outcome.Rejected;\n        }\n\n        // This records the final outcome in the proposals mapping\n        proposals[_proposalId].outcome = outcome;\n\n        // Remove from inProgressProposals array\n        _removeFromInProgressProposals(_proposalId);\n\n        emit ProposalOutcomeEvaluated(\n            _proposalId,\n            outcome,\n            proposals[_proposalId].voteMagnitudeYes,\n            proposals[_proposalId].voteMagnitudeNo,\n            proposals[_proposalId].numVotes\n        );\n\n        return outcome;\n    }\n\n    /**\n     * @notice Action limited to the guardian address that can veto a proposal\n     * @param _proposalId - id of the proposal\n     */\n    function vetoProposal(uint256 _proposalId) external {\n        _requireIsInitialized();\n        _requireValidProposalId(_proposalId);\n\n        require(\n            msg.sender == guardianAddress,\n            \"Governance: Only guardian can veto proposals.\"\n        );\n\n        require(\n            proposals[_proposalId].outcome == Outcome.InProgress,\n            \"Governance: Cannot veto inactive proposal.\"\n        );\n\n        proposals[_proposalId].outcome = Outcome.Vetoed;\n\n        // Remove from inProgressProposals array\n        _removeFromInProgressProposals(_proposalId);\n\n        emit ProposalVetoed(_proposalId);\n    }\n\n    // ========================================= Config Setters =========================================\n\n    /**\n     * @notice Set the Staking address\n     * @dev Only callable by self via _executeTransaction\n     * @param _stakingAddress - address for new Staking contract\n     */\n    function setStakingAddress(address _stakingAddress) external {\n        _requireIsInitialized();\n\n        require(msg.sender == address(this), ERROR_ONLY_GOVERNANCE);\n        require(_stakingAddress != address(0x00), \"Governance: Requires non-zero _stakingAddress\");\n        stakingAddress = _stakingAddress;\n    }\n\n    /**\n     * @notice Set the ServiceProviderFactory address\n     * @dev Only callable by self via _executeTransaction\n     * @param _serviceProviderFactoryAddress - address for new ServiceProviderFactory contract\n     */\n    function setServiceProviderFactoryAddress(address _serviceProviderFactoryAddress) external {\n        _requireIsInitialized();\n\n        require(msg.sender == address(this), ERROR_ONLY_GOVERNANCE);\n        require(\n            _serviceProviderFactoryAddress != address(0x00),\n            \"Governance: Requires non-zero _serviceProviderFactoryAddress\"\n        );\n        serviceProviderFactoryAddress = _serviceProviderFactoryAddress;\n    }\n\n    /**\n     * @notice Set the DelegateManager address\n     * @dev Only callable by self via _executeTransaction\n     * @param _delegateManagerAddress - address for new DelegateManager contract\n     */\n    function setDelegateManagerAddress(address _delegateManagerAddress) external {\n        _requireIsInitialized();\n\n        require(msg.sender == address(this), ERROR_ONLY_GOVERNANCE);\n        require(\n            _delegateManagerAddress != address(0x00),\n            \"Governance: Requires non-zero _delegateManagerAddress\"\n        );\n        delegateManagerAddress = _delegateManagerAddress;\n    }\n\n    /**\n     * @notice Set the voting period for a Governance proposal\n     * @dev Only callable by self via _executeTransaction\n     * @param _votingPeriod - new voting period\n     */\n    function setVotingPeriod(uint256 _votingPeriod) external {\n        _requireIsInitialized();\n\n        require(msg.sender == address(this), ERROR_ONLY_GOVERNANCE);\n        require(_votingPeriod > 0, ERROR_INVALID_VOTING_PERIOD);\n        votingPeriod = _votingPeriod;\n        emit VotingPeriodUpdated(_votingPeriod);\n    }\n\n    /**\n     * @notice Set the voting quorum percentage for a Governance proposal\n     * @dev Only callable by self via _executeTransaction\n     * @param _votingQuorumPercent - new voting period\n     */\n    function setVotingQuorumPercent(uint256 _votingQuorumPercent) external {\n        _requireIsInitialized();\n\n        require(msg.sender == address(this), ERROR_ONLY_GOVERNANCE);\n        require(\n            _votingQuorumPercent > 0 && _votingQuorumPercent <= 100,\n            ERROR_INVALID_VOTING_QUORUM\n        );\n        votingQuorumPercent = _votingQuorumPercent;\n        emit VotingQuorumPercentUpdated(_votingQuorumPercent);\n    }\n\n    /**\n     * @notice Set the Registry address\n     * @dev Only callable by self via _executeTransaction\n     * @param _registryAddress - address for new Registry contract\n     */\n    function setRegistryAddress(address _registryAddress) external {\n        _requireIsInitialized();\n\n        require(msg.sender == address(this), ERROR_ONLY_GOVERNANCE);\n        require(_registryAddress != address(0x00), ERROR_INVALID_REGISTRY);\n\n        registry = Registry(_registryAddress);\n\n        emit RegistryAddressUpdated(_registryAddress);\n    }\n\n    /**\n     * @notice Set the max number of concurrent InProgress proposals\n     * @dev Only callable by self via _executeTransaction\n     * @param _newMaxInProgressProposals - new value for maxInProgressProposals\n     */\n    function setMaxInProgressProposals(uint16 _newMaxInProgressProposals) external {\n        _requireIsInitialized();\n\n        require(msg.sender == address(this), ERROR_ONLY_GOVERNANCE);\n        require(\n            _newMaxInProgressProposals > 0,\n            \"Governance: Requires non-zero _newMaxInProgressProposals\"\n        );\n        maxInProgressProposals = _newMaxInProgressProposals;\n        emit MaxInProgressProposalsUpdated(_newMaxInProgressProposals);\n    }\n\n    /**\n     * @notice Set the execution delay for a proposal\n     * @dev Only callable by self via _executeTransaction\n     * @param _newExecutionDelay - new value for executionDelay\n     */\n    function setExecutionDelay(uint256 _newExecutionDelay) external {\n        _requireIsInitialized();\n\n        require(msg.sender == address(this), ERROR_ONLY_GOVERNANCE);\n        // executionDelay does not have to be non-zero\n        executionDelay = _newExecutionDelay;\n        emit ExecutionDelayUpdated(_newExecutionDelay);\n    }\n\n    // ========================================= Guardian Actions =========================================\n\n    /**\n     * @notice Allows the guardianAddress to execute protocol actions\n     * @param _targetContractRegistryKey - key in registry of target contract\n     * @param _callValue - amount of wei if a token transfer is involved\n     * @param _functionSignature - function signature of the function to be executed if proposal is successful\n     * @param _callData - encoded value(s) to call function with if proposal is successful\n     */\n    function guardianExecuteTransaction(\n        bytes32 _targetContractRegistryKey,\n        uint256 _callValue,\n        string calldata _functionSignature,\n        bytes calldata _callData\n    ) external\n    {\n        _requireIsInitialized();\n\n        require(\n            msg.sender == guardianAddress,\n            \"Governance: Only guardian.\"\n        );\n\n        // _targetContractRegistryKey must point to a valid registered contract\n        address targetContractAddress = registry.getContract(_targetContractRegistryKey);\n        require(\n            targetContractAddress != address(0x00),\n            \"Governance: _targetContractRegistryKey must point to valid registered contract\"\n        );\n\n        // Signature cannot be empty\n        require(\n            bytes(_functionSignature).length != 0,\n            \"Governance: _functionSignature cannot be empty.\"\n        );\n\n        (bool success, bytes memory returnData) = _executeTransaction(\n            targetContractAddress,\n            _callValue,\n            _functionSignature,\n            _callData\n        );\n\n        require(success, \"Governance: Transaction failed.\");\n\n        emit GuardianTransactionExecuted(\n            targetContractAddress,\n            _callValue,\n            _functionSignature,\n            _callData,\n            returnData\n        );\n    }\n\n    /**\n     * @notice Change the guardian address\n     * @dev Only callable by current guardian\n     * @param _newGuardianAddress - new guardian address\n     */\n    function transferGuardianship(address _newGuardianAddress) external {\n        _requireIsInitialized();\n\n        require(\n            msg.sender == guardianAddress,\n            \"Governance: Only guardian.\"\n        );\n\n        guardianAddress = _newGuardianAddress;\n\n        emit GuardianshipTransferred(_newGuardianAddress);\n    }\n\n    // ========================================= Getter Functions =========================================\n\n    /**\n     * @notice Get proposal information by proposal Id\n     * @param _proposalId - id of proposal\n     */\n    function getProposalById(uint256 _proposalId)\n    external view returns (\n        uint256 proposalId,\n        address proposer,\n        uint256 submissionBlockNumber,\n        bytes32 targetContractRegistryKey,\n        address targetContractAddress,\n        uint256 callValue,\n        string memory functionSignature,\n        bytes memory callData,\n        Outcome outcome,\n        uint256 voteMagnitudeYes,\n        uint256 voteMagnitudeNo,\n        uint256 numVotes\n    )\n    {\n        _requireIsInitialized();\n        _requireValidProposalId(_proposalId);\n\n        Proposal memory proposal = proposals[_proposalId];\n        return (\n            proposal.proposalId,\n            proposal.proposer,\n            proposal.submissionBlockNumber,\n            proposal.targetContractRegistryKey,\n            proposal.targetContractAddress,\n            proposal.callValue,\n            proposal.functionSignature,\n            proposal.callData,\n            proposal.outcome,\n            proposal.voteMagnitudeYes,\n            proposal.voteMagnitudeNo,\n            proposal.numVotes\n            /** @notice - votes mapping cannot be returned by external function */\n            /** @notice - voteMagnitudes mapping cannot be returned by external function */\n            /** @notice - returning contractHash leads to stack too deep compiler error, see getProposalTargetContractHash() */\n        );\n    }\n\n    /**\n     * @notice Get proposal target contract hash by proposalId\n     * @dev This is a separate function because the getProposalById returns too many\n            variables already and by adding more, you get the error\n            `InternalCompilerError: Stack too deep, try using fewer variables`\n     * @param _proposalId - id of proposal\n     */\n    function getProposalTargetContractHash(uint256 _proposalId)\n    external view returns (bytes32)\n    {\n        _requireIsInitialized();\n        _requireValidProposalId(_proposalId);\n\n        return (proposals[_proposalId].contractHash);\n    }\n\n    /**\n     * @notice Get vote direction and vote magnitude for a given proposal and voter\n     * @param _proposalId - id of the proposal\n     * @param _voter - address of the voter we want to check\n     * @return returns vote direction and magnitude if valid vote, else default values\n     */\n    function getVoteInfoByProposalAndVoter(uint256 _proposalId, address _voter)\n    external view returns (Vote vote, uint256 voteMagnitude)\n    {\n        _requireIsInitialized();\n        _requireValidProposalId(_proposalId);\n\n        return (\n            proposals[_proposalId].votes[_voter],\n            proposals[_proposalId].voteMagnitudes[_voter]\n        );\n    }\n\n    /// @notice Get the contract Guardian address\n    function getGuardianAddress() external view returns (address) {\n        _requireIsInitialized();\n\n        return guardianAddress;\n    }\n\n    /// @notice Get the Staking address\n    function getStakingAddress() external view returns (address) {\n        _requireIsInitialized();\n\n        return stakingAddress;\n    }\n\n    /// @notice Get the ServiceProviderFactory address\n    function getServiceProviderFactoryAddress() external view returns (address) {\n        _requireIsInitialized();\n\n        return serviceProviderFactoryAddress;\n    }\n\n    /// @notice Get the DelegateManager address\n    function getDelegateManagerAddress() external view returns (address) {\n        _requireIsInitialized();\n\n        return delegateManagerAddress;\n    }\n\n    /// @notice Get the contract voting period\n    function getVotingPeriod() external view returns (uint256) {\n        _requireIsInitialized();\n\n        return votingPeriod;\n    }\n\n    /// @notice Get the contract voting quorum percent\n    function getVotingQuorumPercent() external view returns (uint256) {\n        _requireIsInitialized();\n\n        return votingQuorumPercent;\n    }\n\n    /// @notice Get the registry address\n    function getRegistryAddress() external view returns (address) {\n        _requireIsInitialized();\n\n        return address(registry);\n    }\n\n    /// @notice Used to check if is governance contract before setting governance address in other contracts\n    function isGovernanceAddress() external pure returns (bool) {\n        return true;\n    }\n\n    /// @notice Get the max number of concurrent InProgress proposals\n    function getMaxInProgressProposals() external view returns (uint16) {\n        _requireIsInitialized();\n\n        return maxInProgressProposals;\n    }\n\n    /// @notice Get the proposal execution delay\n    function getExecutionDelay() external view returns (uint256) {\n        _requireIsInitialized();\n\n        return executionDelay;\n    }\n\n    /// @notice Get the array of all InProgress proposal Ids\n    function getInProgressProposals() external view returns (uint256[] memory) {\n        _requireIsInitialized();\n\n        return inProgressProposals;\n    }\n\n    /**\n     * @notice Returns false if any proposals in inProgressProposals array are evaluatable\n     *          Evaluatable = proposals with closed votingPeriod\n     * @dev Is public since its called internally in `submitProposal()` as well as externally in UI\n     */\n    function inProgressProposalsAreUpToDate() external view returns (bool) {\n        _requireIsInitialized();\n\n        // compare current block number against endBlockNumber of each proposal\n        for (uint256 i = 0; i < inProgressProposals.length; i++) {\n            if (\n                block.number >\n                (proposals[inProgressProposals[i]].submissionBlockNumber).add(votingPeriod).add(executionDelay)\n            ) {\n                return false;\n            }\n        }\n\n        return true;\n    }\n\n    // ========================================= Internal Functions =========================================\n\n    /**\n     * @notice Execute a transaction attached to a governance proposal\n     * @dev We are aware of both potential re-entrancy issues and the risks associated with low-level solidity\n     *      function calls here, but have chosen to keep this code with those issues in mind. All governance\n     *      proposals go through a voting process, and all will be reviewed carefully to ensure that they\n     *      adhere to the expected behaviors of this call - but adding restrictions here would limit the ability\n     *      of the governance system to do required work in a generic way.\n     * @param _targetContractAddress - address of registry proxy contract to execute transaction on\n     * @param _callValue - amount of wei if a token transfer is involved\n     * @param _functionSignature - function signature of the function to be executed if proposal is successful\n     * @param _callData - encoded value(s) to call function with if proposal is successful\n     */\n    function _executeTransaction(\n        address _targetContractAddress,\n        uint256 _callValue,\n        string memory _functionSignature,\n        bytes memory _callData\n    ) internal returns (bool success, bytes memory returnData)\n    {\n        bytes memory encodedCallData = abi.encodePacked(\n            bytes4(keccak256(bytes(_functionSignature))),\n            _callData\n        );\n        (success, returnData) = (\n            // solium-disable-next-line security/no-call-value\n            _targetContractAddress.call.value(_callValue)(encodedCallData)\n        );\n\n        return (success, returnData);\n    }\n\n    function _increaseVoteMagnitudeYes(uint256 _proposalId, uint256 _voterStake) internal {\n        proposals[_proposalId].voteMagnitudeYes = (\n            proposals[_proposalId].voteMagnitudeYes.add(_voterStake)\n        );\n    }\n\n    function _increaseVoteMagnitudeNo(uint256 _proposalId, uint256 _voterStake) internal {\n        proposals[_proposalId].voteMagnitudeNo = (\n            proposals[_proposalId].voteMagnitudeNo.add(_voterStake)\n        );\n    }\n\n    function _decreaseVoteMagnitudeYes(uint256 _proposalId, uint256 _voterStake) internal {\n        proposals[_proposalId].voteMagnitudeYes = (\n            proposals[_proposalId].voteMagnitudeYes.sub(_voterStake)\n        );\n    }\n\n    function _decreaseVoteMagnitudeNo(uint256 _proposalId, uint256 _voterStake) internal {\n        proposals[_proposalId].voteMagnitudeNo = (\n            proposals[_proposalId].voteMagnitudeNo.sub(_voterStake)\n        );\n    }\n\n    /**\n     * @dev Can make O(1) by storing index pointer in proposals mapping.\n     *      Requires inProgressProposals to be 1-indexed, since all proposals that are not present\n     *          will have pointer set to 0.\n     */\n    function _removeFromInProgressProposals(uint256 _proposalId) internal {\n        uint256 index = 0;\n        for (uint256 i = 0; i < inProgressProposals.length; i++) {\n            if (inProgressProposals[i] == _proposalId) {\n                index = i;\n                break;\n            }\n        }\n\n        // Swap proposalId to end of array + pop (deletes last elem + decrements array length)\n        inProgressProposals[index] = inProgressProposals[inProgressProposals.length - 1];\n        inProgressProposals.pop();\n    }\n\n    /**\n     * @notice Returns true if voting quorum percentage met for proposal, else false.\n     * @dev Quorum is met if total voteMagnitude * 100 / total active stake in Staking\n     * @dev Eventual multiplication overflow:\n     *      (proposal.voteMagnitudeYes + proposal.voteMagnitudeNo), with 100% staking participation,\n     *          can sum to at most the entire token supply of 10^27\n     *      With 7% annual token supply inflation, multiplication can overflow ~1635 years at the earliest:\n     *      log(2^256/(10^27*100))/log(1.07) ~= 1635\n     *\n     * @dev Note that quorum is evaluated based on total staked at proposal submission\n     *      not total staked at proposal evaluation, this is expected behavior\n     */\n    function _quorumMet(Proposal memory proposal, Staking stakingContract)\n    internal view returns (bool)\n    {\n        uint256 participation = (\n            (proposal.voteMagnitudeYes + proposal.voteMagnitudeNo)\n            .mul(100)\n            .div(stakingContract.totalStakedAt(proposal.submissionBlockNumber))\n        );\n        return participation >= votingQuorumPercent;\n    }\n\n    // ========================================= Private Functions =========================================\n\n    function _requireStakingAddressIsSet() private view {\n        require(\n            stakingAddress != address(0x00),\n            \"Governance: stakingAddress is not set\"\n        );\n    }\n\n    function _requireServiceProviderFactoryAddressIsSet() private view {\n        require(\n            serviceProviderFactoryAddress != address(0x00),\n            \"Governance: serviceProviderFactoryAddress is not set\"\n        );\n    }\n\n    function _requireDelegateManagerAddressIsSet() private view {\n        require(\n            delegateManagerAddress != address(0x00),\n            \"Governance: delegateManagerAddress is not set\"\n        );\n    }\n\n    function _requireValidProposalId(uint256 _proposalId) private view {\n        require(\n            _proposalId <= lastProposalId && _proposalId > 0,\n            \"Governance: Must provide valid non-zero _proposalId\"\n        );\n    }\n\n    /**\n     * Calculates and returns active stake for address\n     *\n     * Active stake = (active deployer stake + active delegator stake)\n     *      active deployer stake = (direct deployer stake - locked deployer stake)\n     *          locked deployer stake = amount of pending decreaseStakeRequest for address\n     *      active delegator stake = (total delegator stake - locked delegator stake)\n     *          locked delegator stake = amount of pending undelegateRequest for address\n     */\n    function _calculateAddressActiveStake(address _address) private view returns (uint256) {\n        ServiceProviderFactory spFactory = ServiceProviderFactory(serviceProviderFactoryAddress);\n        DelegateManager delegateManager = DelegateManager(delegateManagerAddress);\n\n        // Amount directly staked by address, if any, in ServiceProviderFactory\n        (uint256 directDeployerStake,,,,,) = spFactory.getServiceProviderDetails(_address);\n        // Amount of pending decreasedStakeRequest for address, if any, in ServiceProviderFactory\n        (uint256 lockedDeployerStake,) = spFactory.getPendingDecreaseStakeRequest(_address);\n        // active deployer stake = (direct deployer stake - locked deployer stake)\n        uint256 activeDeployerStake = directDeployerStake.sub(lockedDeployerStake);\n\n        // Total amount delegated by address, if any, in DelegateManager\n        uint256 totalDelegatorStake = delegateManager.getTotalDelegatorStake(_address);\n        // Amount of pending undelegateRequest for address, if any, in DelegateManager\n        (,uint256 lockedDelegatorStake, ) = delegateManager.getPendingUndelegateRequest(_address);\n        // active delegator stake = (total delegator stake - locked delegator stake)\n        uint256 activeDelegatorStake = totalDelegatorStake.sub(lockedDelegatorStake);\n\n        // activeStake = (activeDeployerStake + activeDelegatorStake)\n        uint256 activeStake = activeDeployerStake.add(activeDelegatorStake);\n\n        return activeStake;\n    }\n\n    // solium-disable security/no-inline-assembly\n    /**\n     * @notice Helper function to generate the code hash for a contract address\n     * @return contract code hash\n     */\n    function _getCodeHash(address _contract) private view returns (bytes32) {\n        bytes32 contractHash;\n        assembly {\n          contractHash := extcodehash(_contract)\n        }\n        return contractHash;\n    }\n}\n",
  "sourcePath": "/Users/joey/workspace/audius-protocol/eth-contracts/contracts/Governance.sol",
  "compiler": {
    "name": "solc",
    "version": "0.5.17+commit.d19bba13.Emscripten.clang"
  },
  "schemaVersion": "3.1.0",
  "updatedAt": "2020-12-10T14:59:32.290Z",
  "networkType": "ethereum",
  "devdoc": {
    "methods": {
      "evaluateProposalOutcome(uint256)": {
        "details": "Requires that caller is an active staker at the time the proposal is created",
        "params": {
          "_proposalId": "- id of the proposal"
        },
        "return": "Outcome of proposal evaluation"
      },
      "getProposalById(uint256)": {
        "params": {
          "_proposalId": "- id of proposal"
        }
      },
      "getProposalTargetContractHash(uint256)": {
        "details": "This is a separate function because the getProposalById returns too many variables already and by adding more, you get the error `InternalCompilerError: Stack too deep, try using fewer variables`",
        "params": {
          "_proposalId": "- id of proposal"
        }
      },
      "getVoteInfoByProposalAndVoter(uint256,address)": {
        "params": {
          "_proposalId": "- id of the proposal",
          "_voter": "- address of the voter we want to check"
        },
        "return": "returns vote direction and magnitude if valid vote, else default values"
      },
      "guardianExecuteTransaction(bytes32,uint256,string,bytes)": {
        "params": {
          "_callData": "- encoded value(s) to call function with if proposal is successful",
          "_callValue": "- amount of wei if a token transfer is involved",
          "_functionSignature": "- function signature of the function to be executed if proposal is successful",
          "_targetContractRegistryKey": "- key in registry of target contract"
        }
      },
      "inProgressProposalsAreUpToDate()": {
        "details": "Is public since its called internally in `submitProposal()` as well as externally in UI"
      },
      "initialize(address,uint256,uint256,uint256,uint16,address)": {
        "details": "_votingPeriod <= DelegateManager.undelegateLockupDurationstakingAddress must be initialized separately after Staking contract is deployed",
        "params": {
          "_executionDelay": "- number of blocks that must pass after votingPeriod has expired before proposal can be evaluated/executed",
          "_guardianAddress": "- address of account that has special Governance permissions",
          "_maxInProgressProposals": "- max number of InProgress proposals possible at once",
          "_registryAddress": "- address of the registry proxy contract",
          "_votingPeriod": "- period in blocks for which a governance proposal is open for voting",
          "_votingQuorumPercent": "- required minimum percentage of total stake to have voted to consider a proposal valid"
        }
      },
      "setDelegateManagerAddress(address)": {
        "details": "Only callable by self via _executeTransaction",
        "params": {
          "_delegateManagerAddress": "- address for new DelegateManager contract"
        }
      },
      "setExecutionDelay(uint256)": {
        "details": "Only callable by self via _executeTransaction",
        "params": {
          "_newExecutionDelay": "- new value for executionDelay"
        }
      },
      "setMaxInProgressProposals(uint16)": {
        "details": "Only callable by self via _executeTransaction",
        "params": {
          "_newMaxInProgressProposals": "- new value for maxInProgressProposals"
        }
      },
      "setRegistryAddress(address)": {
        "details": "Only callable by self via _executeTransaction",
        "params": {
          "_registryAddress": "- address for new Registry contract"
        }
      },
      "setServiceProviderFactoryAddress(address)": {
        "details": "Only callable by self via _executeTransaction",
        "params": {
          "_serviceProviderFactoryAddress": "- address for new ServiceProviderFactory contract"
        }
      },
      "setStakingAddress(address)": {
        "details": "Only callable by self via _executeTransaction",
        "params": {
          "_stakingAddress": "- address for new Staking contract"
        }
      },
      "setVotingPeriod(uint256)": {
        "details": "Only callable by self via _executeTransaction",
        "params": {
          "_votingPeriod": "- new voting period"
        }
      },
      "setVotingQuorumPercent(uint256)": {
        "details": "Only callable by self via _executeTransaction",
        "params": {
          "_votingQuorumPercent": "- new voting period"
        }
      },
      "submitProposal(bytes32,uint256,string,bytes,string,string)": {
        "details": "_name and _description length is not enforced since they aren't stored on-chain and only event emitted",
        "params": {
          "_callData": "- encoded value(s) to call function with if proposal is successful",
          "_callValue": "- amount of wei to pass with function call if a token transfer is involved",
          "_description": "- Text description of proposal to be emitted in event",
          "_functionSignature": "- function signature of the function to be executed if proposal is successful",
          "_name": "- Text name of proposal to be emitted in event",
          "_targetContractRegistryKey": "- Registry key for the contract concerning this proposal"
        },
        "return": "- ID of new proposal"
      },
      "submitVote(uint256,uint8)": {
        "params": {
          "_proposalId": "- id of the proposal this vote is for",
          "_vote": "- can be either {Yes, No} from Vote enum. No other values allowed"
        }
      },
      "transferGuardianship(address)": {
        "details": "Only callable by current guardian",
        "params": {
          "_newGuardianAddress": "- new guardian address"
        }
      },
      "updateVote(uint256,uint8)": {
        "params": {
          "_proposalId": "- id of the proposal this vote is for",
          "_vote": "- can be either {Yes, No} from Vote enum. No other values allowed"
        }
      },
      "vetoProposal(uint256)": {
        "params": {
          "_proposalId": "- id of the proposal"
        }
      }
    }
  },
  "userdoc": {
    "methods": {
      "evaluateProposalOutcome(uint256)": {
        "notice": "Once the voting period + executionDelay for a proposal has ended, evaluate the outcome and     execute the proposal if voting quorum met & vote passes.     To pass, stake-weighted vote must be > 50% Yes."
      },
      "getDelegateManagerAddress()": {
        "notice": "Get the DelegateManager address"
      },
      "getExecutionDelay()": {
        "notice": "Get the proposal execution delay"
      },
      "getGuardianAddress()": {
        "notice": "Get the contract Guardian address"
      },
      "getInProgressProposals()": {
        "notice": "Get the array of all InProgress proposal Ids"
      },
      "getMaxInProgressProposals()": {
        "notice": "Get the max number of concurrent InProgress proposals"
      },
      "getProposalById(uint256)": {
        "notice": "Get proposal information by proposal Id"
      },
      "getProposalTargetContractHash(uint256)": {
        "notice": "Get proposal target contract hash by proposalId"
      },
      "getRegistryAddress()": {
        "notice": "Get the registry address"
      },
      "getServiceProviderFactoryAddress()": {
        "notice": "Get the ServiceProviderFactory address"
      },
      "getStakingAddress()": {
        "notice": "Get the Staking address"
      },
      "getVoteInfoByProposalAndVoter(uint256,address)": {
        "notice": "Get vote direction and vote magnitude for a given proposal and voter"
      },
      "getVotingPeriod()": {
        "notice": "Get the contract voting period"
      },
      "getVotingQuorumPercent()": {
        "notice": "Get the contract voting quorum percent"
      },
      "guardianExecuteTransaction(bytes32,uint256,string,bytes)": {
        "notice": "Allows the guardianAddress to execute protocol actions"
      },
      "inProgressProposalsAreUpToDate()": {
        "notice": "Returns false if any proposals in inProgressProposals array are evaluatable         Evaluatable = proposals with closed votingPeriod"
      },
      "initialize()": {
        "notice": "wrapper function around parent contract Initializable's `initializable` modifier     initializable modifier ensures this function can only be called once by each deployed child contract     sets isInitialized flag to true to which is used by _requireIsInitialized()"
      },
      "initialize(address,uint256,uint256,uint256,uint16,address)": {
        "notice": "Initialize the Governance contract"
      },
      "isGovernanceAddress()": {
        "notice": "Used to check if is governance contract before setting governance address in other contracts"
      },
      "setDelegateManagerAddress(address)": {
        "notice": "Set the DelegateManager address"
      },
      "setExecutionDelay(uint256)": {
        "notice": "Set the execution delay for a proposal"
      },
      "setMaxInProgressProposals(uint16)": {
        "notice": "Set the max number of concurrent InProgress proposals"
      },
      "setRegistryAddress(address)": {
        "notice": "Set the Registry address"
      },
      "setServiceProviderFactoryAddress(address)": {
        "notice": "Set the ServiceProviderFactory address"
      },
      "setStakingAddress(address)": {
        "notice": "Set the Staking address"
      },
      "setVotingPeriod(uint256)": {
        "notice": "Set the voting period for a Governance proposal"
      },
      "setVotingQuorumPercent(uint256)": {
        "notice": "Set the voting quorum percentage for a Governance proposal"
      },
      "submitProposal(bytes32,uint256,string,bytes,string,string)": {
        "notice": "Submit a proposal for vote. Only callable by addresses with non-zero total active stake.     total active stake = total active deployer stake + total active delegator stake"
      },
      "submitVote(uint256,uint8)": {
        "notice": "Vote on an active Proposal. Only callable by addresses with non-zero active stake."
      },
      "transferGuardianship(address)": {
        "notice": "Change the guardian address"
      },
      "updateVote(uint256,uint8)": {
        "notice": "Update previous vote on an active Proposal. Only callable by addresses with non-zero active stake."
      },
      "vetoProposal(uint256)": {
        "notice": "Action limited to the guardian address that can veto a proposal"
      }
    }
  }
}