{
  "contractName": "InitializableV2",
  "abi": [
    {
      "constant": false,
      "inputs": [],
      "name": "initialize",
      "outputs": [],
      "payable": false,
      "stateMutability": "nonpayable",
      "type": "function"
    }
  ],
  "bytecode": "0x608060405234801561001057600080fd5b50610152806100206000396000f3fe608060405234801561001057600080fd5b506004361061002b5760003560e01c80638129fc1c14610030575b600080fd5b61003861003a565b005b600054610100900460ff168061005357506100536100e9565b80610061575060005460ff16155b61009c5760405162461bcd60e51b815260040180806020018281038252602e8152602001806100f0602e913960400191505060405180910390fd5b600054610100900460ff161580156100c7576000805460ff1961ff0019909116610100171660011790555b6033805460ff1916600117905580156100e6576000805461ff00191690555b50565b303b159056fe436f6e747261637420696e7374616e63652068617320616c7265616479206265656e20696e697469616c697a6564a265627a7a72315820e92c7317c0855052327958acc99812d07b496a8b5ee53129ea6d18f8e9d0963d64736f6c63430005110032",
  "source": "pragma solidity >=0.4.24 <0.7.0;\n\nimport \"@openzeppelin/upgrades/contracts/Initializable.sol\";\n\n\n/**\n * Wrapper around OpenZeppelin's Initializable contract.\n * Exposes initialized state management to ensure logic contract functions cannot be called before initialization.\n * This is needed because OZ's Initializable contract no longer exposes initialized state variable.\n * https://github.com/OpenZeppelin/openzeppelin-sdk/blob/v2.8.0/packages/lib/contracts/Initializable.sol\n */\ncontract InitializableV2 is Initializable {\n    bool private isInitialized;\n\n    string private constant ERROR_NOT_INITIALIZED = \"InitializableV2: Not initialized\";\n\n    /**\n     * @notice wrapper function around parent contract Initializable's `initializable` modifier\n     *      initializable modifier ensures this function can only be called once by each deployed child contract\n     *      sets isInitialized flag to true to which is used by _requireIsInitialized()\n     */\n    function initialize() public initializer {\n        isInitialized = true;\n    }\n\n    /**\n     * @notice Reverts transaction if isInitialized is false. Used by child contracts to ensure\n     *      contract is initialized before functions can be called.\n     */\n    function _requireIsInitialized() internal view {\n        require(isInitialized == true, ERROR_NOT_INITIALIZED);\n    }\n\n    /**\n     * @notice Exposes isInitialized bool var to child contracts with read-only access\n     */\n    function _isInitialized() internal view returns (bool) {\n        return isInitialized;\n    }\n}\n",
  "sourcePath": "/Users/joey/workspace/audius-protocol/eth-contracts/contracts/InitializableV2.sol",
  "compiler": {
    "name": "solc",
    "version": "0.5.17+commit.d19bba13.Emscripten.clang"
  },
  "schemaVersion": "3.1.0",
  "updatedAt": "2020-12-10T14:59:16.069Z",
  "networkType": "ethereum",
  "devdoc": {
    "methods": {}
  },
  "userdoc": {
    "methods": {
      "initialize()": {
        "notice": "wrapper function around parent contract Initializable's `initializable` modifier     initializable modifier ensures this function can only be called once by each deployed child contract     sets isInitialized flag to true to which is used by _requireIsInitialized()"
      }
    },
    "notice": "Wrapper around OpenZeppelin's Initializable contract. Exposes initialized state management to ensure logic contract functions cannot be called before initialization. This is needed because OZ's Initializable contract no longer exposes initialized state variable. https://github.com/OpenZeppelin/openzeppelin-sdk/blob/v2.8.0/packages/lib/contracts/Initializable.sol"
  }
}