{
  "contractName": "Registry",
  "abi": [
    {
      "anonymous": false,
      "inputs": [
        {
          "indexed": true,
          "internalType": "bytes32",
          "name": "_name",
          "type": "bytes32"
        },
        {
          "indexed": true,
          "internalType": "address",
          "name": "_address",
          "type": "address"
        }
      ],
      "name": "ContractAdded",
      "type": "event"
    },
    {
      "anonymous": false,
      "inputs": [
        {
          "indexed": true,
          "internalType": "bytes32",
          "name": "_name",
          "type": "bytes32"
        },
        {
          "indexed": true,
          "internalType": "address",
          "name": "_address",
          "type": "address"
        }
      ],
      "name": "ContractRemoved",
      "type": "event"
    },
    {
      "anonymous": false,
      "inputs": [
        {
          "indexed": true,
          "internalType": "bytes32",
          "name": "_name",
          "type": "bytes32"
        },
        {
          "indexed": true,
          "internalType": "address",
          "name": "_oldAddress",
          "type": "address"
        },
        {
          "indexed": true,
          "internalType": "address",
          "name": "_newAddress",
          "type": "address"
        }
      ],
      "name": "ContractUpgraded",
      "type": "event"
    },
    {
      "anonymous": false,
      "inputs": [
        {
          "indexed": true,
          "internalType": "address",
          "name": "previousOwner",
          "type": "address"
        },
        {
          "indexed": true,
          "internalType": "address",
          "name": "newOwner",
          "type": "address"
        }
      ],
      "name": "OwnershipTransferred",
      "type": "event"
    },
    {
      "constant": true,
      "inputs": [],
      "name": "isOwner",
      "outputs": [
        {
          "internalType": "bool",
          "name": "",
          "type": "bool"
        }
      ],
      "payable": false,
      "stateMutability": "view",
      "type": "function"
    },
    {
      "constant": true,
      "inputs": [],
      "name": "owner",
      "outputs": [
        {
          "internalType": "address",
          "name": "",
          "type": "address"
        }
      ],
      "payable": false,
      "stateMutability": "view",
      "type": "function"
    },
    {
      "constant": false,
      "inputs": [],
      "name": "renounceOwnership",
      "outputs": [],
      "payable": false,
      "stateMutability": "nonpayable",
      "type": "function"
    },
    {
      "constant": false,
      "inputs": [
        {
          "internalType": "address",
          "name": "newOwner",
          "type": "address"
        }
      ],
      "name": "transferOwnership",
      "outputs": [],
      "payable": false,
      "stateMutability": "nonpayable",
      "type": "function"
    },
    {
      "constant": false,
      "inputs": [],
      "name": "initialize",
      "outputs": [],
      "payable": false,
      "stateMutability": "nonpayable",
      "type": "function"
    },
    {
      "constant": false,
      "inputs": [
        {
          "internalType": "address",
          "name": "sender",
          "type": "address"
        }
      ],
      "name": "initialize",
      "outputs": [],
      "payable": false,
      "stateMutability": "nonpayable",
      "type": "function"
    },
    {
      "constant": false,
      "inputs": [
        {
          "internalType": "bytes32",
          "name": "_name",
          "type": "bytes32"
        },
        {
          "internalType": "address",
          "name": "_address",
          "type": "address"
        }
      ],
      "name": "addContract",
      "outputs": [],
      "payable": false,
      "stateMutability": "nonpayable",
      "type": "function"
    },
    {
      "constant": false,
      "inputs": [
        {
          "internalType": "bytes32",
          "name": "_name",
          "type": "bytes32"
        }
      ],
      "name": "removeContract",
      "outputs": [],
      "payable": false,
      "stateMutability": "nonpayable",
      "type": "function"
    },
    {
      "constant": false,
      "inputs": [
        {
          "internalType": "bytes32",
          "name": "_name",
          "type": "bytes32"
        },
        {
          "internalType": "address",
          "name": "_newAddress",
          "type": "address"
        }
      ],
      "name": "upgradeContract",
      "outputs": [],
      "payable": false,
      "stateMutability": "nonpayable",
      "type": "function"
    },
    {
      "constant": true,
      "inputs": [
        {
          "internalType": "bytes32",
          "name": "_name",
          "type": "bytes32"
        },
        {
          "internalType": "uint256",
          "name": "_version",
          "type": "uint256"
        }
      ],
      "name": "getContract",
      "outputs": [
        {
          "internalType": "address",
          "name": "contractAddr",
          "type": "address"
        }
      ],
      "payable": false,
      "stateMutability": "view",
      "type": "function"
    },
    {
      "constant": true,
      "inputs": [
        {
          "internalType": "bytes32",
          "name": "_name",
          "type": "bytes32"
        }
      ],
      "name": "getContract",
      "outputs": [
        {
          "internalType": "address",
          "name": "contractAddr",
          "type": "address"
        }
      ],
      "payable": false,
      "stateMutability": "view",
      "type": "function"
    },
    {
      "constant": true,
      "inputs": [
        {
          "internalType": "bytes32",
          "name": "_name",
          "type": "bytes32"
        }
      ],
      "name": "getContractVersionCount",
      "outputs": [
        {
          "internalType": "uint256",
          "name": "",
          "type": "uint256"
        }
      ],
      "payable": false,
      "stateMutability": "view",
      "type": "function"
    }
  ],
  "bytecode": "0x6080604052610e42806100136000396000f3fe608060405234801561001057600080fd5b50600436106100b45760003560e01c80639c44d17a116100715780639c44d17a1461015a578063a43e04d814610186578063c4d66de8146101a3578063e16c7d98146101c9578063efa6bc43146101e6578063f2fde38b14610215576100b4565b80635188f996146100b9578063715018a6146100e75780638129fc1c146100ef5780638da5cb5b146100f75780638f32d59b1461011b57806396f27b2914610137575b600080fd5b6100e5600480360360408110156100cf57600080fd5b50803590602001356001600160a01b031661023b565b005b6100e5610367565b6100e56103fe565b6100ff6104b1565b604080516001600160a01b039092168252519081900360200190f35b6101236104c5565b604080519115158252519081900360200190f35b6100ff6004803603604081101561014d57600080fd5b50803590602001356104f0565b6100e56004803603604081101561017057600080fd5b50803590602001356001600160a01b031661058c565b6100e56004803603602081101561019c57600080fd5b50356106c4565b6100e5600480360360208110156101b957600080fd5b50356001600160a01b03166107ac565b6100ff600480360360208110156101df57600080fd5b50356108a5565b610203600480360360208110156101fc57600080fd5b50356108cb565b60408051918252519081900360200190f35b6100e56004803603602081101561022b57600080fd5b50356001600160a01b03166108e8565b6102436104c5565b610282576040805162461bcd60e51b81526020600482018190526024820152600080516020610d3d833981519152604482015290519081900360640190fd5b61028a610938565b6000828152606660205260409020546001600160a01b0316156102de5760405162461bcd60e51b8152600401808060200182810382526036815260200180610d8b6036913960400191505060405180910390fd5b6001600160a01b0381166103235760405162461bcd60e51b8152600401808060200182810382526027815260200180610de76027913960400191505060405180910390fd5b61032d8282610a00565b6040516001600160a01b0382169083907f643cefa5894755d9e02f78cb384977d4ee3a06c8394b062a290e19176e9c69de90600090a35050565b61036f6104c5565b6103ae576040805162461bcd60e51b81526020600482018190526024820152600080516020610d3d833981519152604482015290519081900360640190fd5b60335460405160009161010090046001600160a01b0316907f8be0079c531659141344cd1fd0a4f28419497f9722a3daafe3b4186f6b6457e0908390a360338054610100600160a81b0319169055565b600054610100900460ff16806104175750610417610a52565b80610425575060005460ff16155b6104605760405162461bcd60e51b815260040180806020018281038252602e815260200180610d5d602e913960400191505060405180910390fd5b600054610100900460ff1615801561048b576000805460ff1961ff0019909116610100171660011790555b610494336107ac565b61049c610a58565b80156104ae576000805461ff00191690555b50565b60335461010090046001600160a01b031690565b60335460009061010090046001600160a01b03166104e1610b06565b6001600160a01b031614905090565b60006104fa610938565b6000838152606760205260409020548211156105475760405162461bcd60e51b8152600401808060200182810382526026815260200180610dc16026913960400191505060405180910390fd5b600083815260676020526040902061056683600163ffffffff610b0a16565b8154811061057057fe5b6000918252602090912001546001600160a01b03169392505050565b6105946104c5565b6105d3576040805162461bcd60e51b81526020600482018190526024820152600080516020610d3d833981519152604482015290519081900360640190fd5b6105db610938565b6000828152606660205260409020546001600160a01b03168061062f5760405162461bcd60e51b8152600401808060200182810382526043815260200180610c9c6043913960600191505060405180910390fd5b6001600160a01b0382166106745760405162461bcd60e51b8152600401808060200182810382526038815260200180610d056038913960400191505060405180910390fd5b61067e8383610a00565b816001600160a01b0316816001600160a01b0316847f8b3c9342e23b53b74b0f760c251b1b6b5553d1c3d23239357405f70d5fe43d5560405160405180910390a4505050565b6106cc6104c5565b61070b576040805162461bcd60e51b81526020600482018190526024820152600080516020610d3d833981519152604482015290519081900360640190fd5b610713610938565b6000818152606660205260409020546001600160a01b0316806107675760405162461bcd60e51b8152600401808060200182810382526042815260200180610c5a6042913960600191505060405180910390fd5b610772826000610a00565b6040516001600160a01b0382169083907f266f45300baf5abcdb8653dcec68c843b20fb984df2fae4cd1e3fecaf461995290600090a35050565b600054610100900460ff16806107c557506107c5610a52565b806107d3575060005460ff16155b61080e5760405162461bcd60e51b815260040180806020018281038252602e815260200180610d5d602e913960400191505060405180910390fd5b600054610100900460ff16158015610839576000805460ff1961ff0019909116610100171660011790555b60338054610100600160a81b0319166101006001600160a01b0385811682029290921792839055604051920416906000907f8be0079c531659141344cd1fd0a4f28419497f9722a3daafe3b4186f6b6457e0908290a380156108a1576000805461ff00191690555b5050565b60006108af610938565b506000908152606660205260409020546001600160a01b031690565b60006108d5610938565b5060009081526067602052604090205490565b6108f06104c5565b61092f576040805162461bcd60e51b81526020600482018190526024820152600080516020610d3d833981519152604482015290519081900360640190fd5b6104ae81610b53565b6033546040805180820190915260208082527f496e697469616c697a61626c6556323a204e6f7420696e697469616c697a6564908201529060ff1615156001146104ae5760405162461bcd60e51b81526004018080602001828103825283818151815260200191508051906020019080838360005b838110156109c55781810151838201526020016109ad565b50505050905090810190601f1680156109f25780820380516001836020036101000a031916815260200191505b509250505060405180910390fd5b600091825260666020908152604080842080546001600160a01b039094166001600160a01b03199485168117909155606783529084208054600181018255908552919093200180549091169091179055565b303b1590565b600054610100900460ff1680610a715750610a71610a52565b80610a7f575060005460ff16155b610aba5760405162461bcd60e51b815260040180806020018281038252602e815260200180610d5d602e913960400191505060405180910390fd5b600054610100900460ff16158015610ae5576000805460ff1961ff0019909116610100171660011790555b6033805460ff1916600117905580156104ae576000805461ff001916905550565b3390565b6000610b4c83836040518060400160405280601e81526020017f536166654d6174683a207375627472616374696f6e206f766572666c6f770000815250610bff565b9392505050565b6001600160a01b038116610b985760405162461bcd60e51b8152600401808060200182810382526026815260200180610cdf6026913960400191505060405180910390fd5b6033546040516001600160a01b0380841692610100900416907f8be0079c531659141344cd1fd0a4f28419497f9722a3daafe3b4186f6b6457e090600090a3603380546001600160a01b0390921661010002610100600160a81b0319909216919091179055565b60008184841115610c515760405162461bcd60e51b81526020600482018181528351602484015283519092839260449091019190850190808383600083156109c55781810151838201526020016109ad565b50505090039056fe52656769737472793a2043616e6e6f742072656d6f7665202d206e6f20636f6e74726163742072656769737465726564207769746820676976656e205f6e616d652e52656769737472793a2043616e6e6f742075706772616465202d206e6f20636f6e74726163742072656769737465726564207769746820676976656e205f6e616d652e4f776e61626c653a206e6577206f776e657220697320746865207a65726f206164647265737352656769737472793a2043616e6e6f742075706772616465202d2063616e6e6f74207265676973746572207a65726f20616464726573732e4f776e61626c653a2063616c6c6572206973206e6f7420746865206f776e6572436f6e747261637420696e7374616e63652068617320616c7265616479206265656e20696e697469616c697a656452656769737472793a20436f6e747261637420616c72656164792072656769737465726564207769746820676976656e206e616d652e52656769737472793a20496e646578206f7574206f662072616e6765205f76657273696f6e2e52656769737472793a2043616e6e6f74207265676973746572207a65726f20616464726573732ea265627a7a72315820d0f6af350624e66dfc1ef5c0e265f00a89e1584e193c5b2547b540c3b5766e0164736f6c63430005110032",
  "source": "pragma solidity ^0.5.0;\n\nimport \"@openzeppelin/contracts-ethereum-package/contracts/ownership/Ownable.sol\";\nimport \"@openzeppelin/contracts-ethereum-package/contracts/math/SafeMath.sol\";\n\nimport \"../InitializableV2.sol\";\n\n\n/**\n* @title Central hub for Audius protocol. It stores all contract addresses to facilitate\n*   external access and enable version management.\n*/\ncontract Registry is InitializableV2, Ownable {\n    using SafeMath for uint256;\n\n    /**\n     * @dev addressStorage mapping allows efficient lookup of current contract version\n     *      addressStorageHistory maintains record of all contract versions\n     */\n    mapping(bytes32 => address) private addressStorage;\n    mapping(bytes32 => address[]) private addressStorageHistory;\n\n    event ContractAdded(\n        bytes32 indexed _name,\n        address indexed _address\n    );\n\n    event ContractRemoved(\n        bytes32 indexed _name,\n        address indexed _address\n    );\n\n    event ContractUpgraded(\n        bytes32 indexed _name,\n        address indexed _oldAddress,\n        address indexed _newAddress\n    );\n\n    function initialize() public initializer {\n        /// @notice Ownable.initialize(address _sender) sets contract owner to _sender.\n        Ownable.initialize(msg.sender);\n        InitializableV2.initialize();\n    }\n\n    // ========================================= Setters =========================================\n\n    /**\n     * @notice addContract registers contract name to address mapping under given registry key\n     * @param _name - registry key that will be used for lookups\n     * @param _address - address of contract\n     */\n    function addContract(bytes32 _name, address _address) external onlyOwner {\n        _requireIsInitialized();\n\n        require(\n            addressStorage[_name] == address(0x00),\n            \"Registry: Contract already registered with given name.\"\n        );\n        require(\n            _address != address(0x00),\n            \"Registry: Cannot register zero address.\"\n        );\n\n        setAddress(_name, _address);\n\n        emit ContractAdded(_name, _address);\n    }\n\n    /**\n     * @notice removes contract address registered under given registry key\n     * @param _name - registry key for lookup\n     */\n    function removeContract(bytes32 _name) external onlyOwner {\n        _requireIsInitialized();\n\n        address contractAddress = addressStorage[_name];\n        require(\n            contractAddress != address(0x00),\n            \"Registry: Cannot remove - no contract registered with given _name.\"\n        );\n\n        setAddress(_name, address(0x00));\n\n        emit ContractRemoved(_name, contractAddress);\n    }\n\n    /**\n     * @notice replaces contract address registered under given key with provided address\n     * @param _name - registry key for lookup\n     * @param _newAddress - new contract address to register under given key\n     */\n    function upgradeContract(bytes32 _name, address _newAddress) external onlyOwner {\n        _requireIsInitialized();\n\n        address oldAddress = addressStorage[_name];\n        require(\n            oldAddress != address(0x00),\n            \"Registry: Cannot upgrade - no contract registered with given _name.\"\n        );\n        require(\n            _newAddress != address(0x00),\n            \"Registry: Cannot upgrade - cannot register zero address.\"\n        );\n\n        setAddress(_name, _newAddress);\n\n        emit ContractUpgraded(_name, oldAddress, _newAddress);\n    }\n\n    // ========================================= Getters =========================================\n\n    /**\n     * @notice returns contract address registered under given registry key\n     * @param _name - registry key for lookup\n     * @return contractAddr - address of contract registered under given registry key\n     */\n    function getContract(bytes32 _name) external view returns (address contractAddr) {\n        _requireIsInitialized();\n\n        return addressStorage[_name];\n    }\n\n    /// @notice overloaded getContract to return explicit version of contract\n    function getContract(bytes32 _name, uint256 _version) external view\n    returns (address contractAddr)\n    {\n        _requireIsInitialized();\n\n        // array length for key implies version number\n        require(\n            _version <= addressStorageHistory[_name].length,\n            \"Registry: Index out of range _version.\"\n        );\n        return addressStorageHistory[_name][_version.sub(1)];\n    }\n\n    /**\n     * @notice Returns the number of versions for a contract key\n     * @param _name - registry key for lookup\n     * @return number of contract versions\n     */\n    function getContractVersionCount(bytes32 _name) external view returns (uint256) {\n        _requireIsInitialized();\n\n        return addressStorageHistory[_name].length;\n    }\n\n    // ========================================= Private functions =========================================\n\n    /**\n     * @param _key the key for the contract address\n     * @param _value the contract address\n     */\n    function setAddress(bytes32 _key, address _value) private {\n        // main map for cheap lookup\n        addressStorage[_key] = _value;\n        // keep track of contract address history\n        addressStorageHistory[_key].push(_value);\n    }\n\n}\n",
  "sourcePath": "/Users/joey/workspace/audius-protocol/eth-contracts/contracts/registry/Registry.sol",
  "compiler": {
    "name": "solc",
    "version": "0.5.17+commit.d19bba13.Emscripten.clang"
  },
  "schemaVersion": "3.1.0",
  "updatedAt": "2020-12-10T14:59:32.174Z",
  "networkType": "ethereum",
  "devdoc": {
    "methods": {
      "addContract(bytes32,address)": {
        "params": {
          "_address": "- address of contract",
          "_name": "- registry key that will be used for lookups"
        }
      },
      "getContract(bytes32)": {
        "params": {
          "_name": "- registry key for lookup"
        },
        "return": "contractAddr - address of contract registered under given registry key"
      },
      "getContractVersionCount(bytes32)": {
        "params": {
          "_name": "- registry key for lookup"
        },
        "return": "number of contract versions"
      },
      "initialize(address)": {
        "details": "Initializes the contract setting the deployer as the initial owner."
      },
      "isOwner()": {
        "details": "Returns true if the caller is the current owner."
      },
      "owner()": {
        "details": "Returns the address of the current owner."
      },
      "removeContract(bytes32)": {
        "params": {
          "_name": "- registry key for lookup"
        }
      },
      "renounceOwnership()": {
        "details": "Leaves the contract without owner. It will not be possible to call `onlyOwner` functions anymore. Can only be called by the current owner.     * > Note: Renouncing ownership will leave the contract without an owner, thereby removing any functionality that is only available to the owner."
      },
      "transferOwnership(address)": {
        "details": "Transfers ownership of the contract to a new account (`newOwner`). Can only be called by the current owner."
      },
      "upgradeContract(bytes32,address)": {
        "params": {
          "_name": "- registry key for lookup",
          "_newAddress": "- new contract address to register under given key"
        }
      }
    },
    "title": "Central hub for Audius protocol. It stores all contract addresses to facilitate  external access and enable version management."
  },
  "userdoc": {
    "methods": {
      "addContract(bytes32,address)": {
        "notice": "addContract registers contract name to address mapping under given registry key"
      },
      "getContract(bytes32)": {
        "notice": "returns contract address registered under given registry key"
      },
      "getContract(bytes32,uint256)": {
        "notice": "overloaded getContract to return explicit version of contract"
      },
      "getContractVersionCount(bytes32)": {
        "notice": "Returns the number of versions for a contract key"
      },
      "removeContract(bytes32)": {
        "notice": "removes contract address registered under given registry key"
      },
      "upgradeContract(bytes32,address)": {
        "notice": "replaces contract address registered under given key with provided address"
      }
    }
  }
}