{
  "contractName": "ServiceProviderFactory",
  "abi": [
    {
      "anonymous": false,
      "inputs": [
        {
          "indexed": true,
          "internalType": "address",
          "name": "_newClaimsManagerAddress",
          "type": "address"
        }
      ],
      "name": "ClaimsManagerAddressUpdated",
      "type": "event"
    },
    {
      "anonymous": false,
      "inputs": [
        {
          "indexed": true,
          "internalType": "uint256",
          "name": "_lockupDuration",
          "type": "uint256"
        }
      ],
      "name": "DecreaseStakeLockupDurationUpdated",
      "type": "event"
    },
    {
      "anonymous": false,
      "inputs": [
        {
          "indexed": true,
          "internalType": "address",
          "name": "_owner",
          "type": "address"
        },
        {
          "indexed": true,
          "internalType": "uint256",
          "name": "_decreaseAmount",
          "type": "uint256"
        },
        {
          "indexed": true,
          "internalType": "uint256",
          "name": "_lockupExpiryBlock",
          "type": "uint256"
        }
      ],
      "name": "DecreaseStakeRequestCancelled",
      "type": "event"
    },
    {
      "anonymous": false,
      "inputs": [
        {
          "indexed": true,
          "internalType": "address",
          "name": "_owner",
          "type": "address"
        },
        {
          "indexed": true,
          "internalType": "uint256",
          "name": "_decreaseAmount",
          "type": "uint256"
        },
        {
          "indexed": true,
          "internalType": "uint256",
          "name": "_newStakeAmount",
          "type": "uint256"
        }
      ],
      "name": "DecreaseStakeRequestEvaluated",
      "type": "event"
    },
    {
      "anonymous": false,
      "inputs": [
        {
          "indexed": true,
          "internalType": "address",
          "name": "_owner",
          "type": "address"
        },
        {
          "indexed": true,
          "internalType": "uint256",
          "name": "_decreaseAmount",
          "type": "uint256"
        },
        {
          "indexed": true,
          "internalType": "uint256",
          "name": "_lockupExpiryBlock",
          "type": "uint256"
        }
      ],
      "name": "DecreaseStakeRequested",
      "type": "event"
    },
    {
      "anonymous": false,
      "inputs": [
        {
          "indexed": true,
          "internalType": "address",
          "name": "_newDelegateManagerAddress",
          "type": "address"
        }
      ],
      "name": "DelegateManagerAddressUpdated",
      "type": "event"
    },
    {
      "anonymous": false,
      "inputs": [
        {
          "indexed": true,
          "internalType": "address",
          "name": "_owner",
          "type": "address"
        },
        {
          "indexed": true,
          "internalType": "bytes32",
          "name": "_serviceType",
          "type": "bytes32"
        },
        {
          "indexed": true,
          "internalType": "uint256",
          "name": "_spID",
          "type": "uint256"
        },
        {
          "indexed": false,
          "internalType": "address",
          "name": "_updatedWallet",
          "type": "address"
        }
      ],
      "name": "DelegateOwnerWalletUpdated",
      "type": "event"
    },
    {
      "anonymous": false,
      "inputs": [
        {
          "indexed": true,
          "internalType": "address",
          "name": "_owner",
          "type": "address"
        },
        {
          "indexed": true,
          "internalType": "uint256",
          "name": "_requestedCut",
          "type": "uint256"
        },
        {
          "indexed": true,
          "internalType": "uint256",
          "name": "_finalCut",
          "type": "uint256"
        }
      ],
      "name": "DeployerCutUpdateRequestCancelled",
      "type": "event"
    },
    {
      "anonymous": false,
      "inputs": [
        {
          "indexed": true,
          "internalType": "address",
          "name": "_owner",
          "type": "address"
        },
        {
          "indexed": true,
          "internalType": "uint256",
          "name": "_updatedCut",
          "type": "uint256"
        }
      ],
      "name": "DeployerCutUpdateRequestEvaluated",
      "type": "event"
    },
    {
      "anonymous": false,
      "inputs": [
        {
          "indexed": true,
          "internalType": "address",
          "name": "_owner",
          "type": "address"
        },
        {
          "indexed": true,
          "internalType": "uint256",
          "name": "_updatedCut",
          "type": "uint256"
        },
        {
          "indexed": true,
          "internalType": "uint256",
          "name": "_lockupExpiryBlock",
          "type": "uint256"
        }
      ],
      "name": "DeployerCutUpdateRequested",
      "type": "event"
    },
    {
      "anonymous": false,
      "inputs": [
        {
          "indexed": true,
          "internalType": "uint256",
          "name": "_spID",
          "type": "uint256"
        },
        {
          "indexed": true,
          "internalType": "bytes32",
          "name": "_serviceType",
          "type": "bytes32"
        },
        {
          "indexed": true,
          "internalType": "address",
          "name": "_owner",
          "type": "address"
        },
        {
          "indexed": false,
          "internalType": "string",
          "name": "_endpoint",
          "type": "string"
        },
        {
          "indexed": false,
          "internalType": "uint256",
          "name": "_unstakeAmount",
          "type": "uint256"
        }
      ],
      "name": "DeregisteredServiceProvider",
      "type": "event"
    },
    {
      "anonymous": false,
      "inputs": [
        {
          "indexed": true,
          "internalType": "bytes32",
          "name": "_serviceType",
          "type": "bytes32"
        },
        {
          "indexed": true,
          "internalType": "address",
          "name": "_owner",
          "type": "address"
        },
        {
          "indexed": false,
          "internalType": "string",
          "name": "_oldEndpoint",
          "type": "string"
        },
        {
          "indexed": false,
          "internalType": "string",
          "name": "_newEndpoint",
          "type": "string"
        },
        {
          "indexed": true,
          "internalType": "uint256",
          "name": "_spID",
          "type": "uint256"
        }
      ],
      "name": "EndpointUpdated",
      "type": "event"
    },
    {
      "anonymous": false,
      "inputs": [
        {
          "indexed": true,
          "internalType": "address",
          "name": "_newGovernanceAddress",
          "type": "address"
        }
      ],
      "name": "GovernanceAddressUpdated",
      "type": "event"
    },
    {
      "anonymous": false,
      "inputs": [
        {
          "indexed": true,
          "internalType": "address",
          "name": "_owner",
          "type": "address"
        },
        {
          "indexed": true,
          "internalType": "uint256",
          "name": "_increaseAmount",
          "type": "uint256"
        },
        {
          "indexed": true,
          "internalType": "uint256",
          "name": "_newStakeAmount",
          "type": "uint256"
        }
      ],
      "name": "IncreasedStake",
      "type": "event"
    },
    {
      "anonymous": false,
      "inputs": [
        {
          "indexed": true,
          "internalType": "uint256",
          "name": "_spID",
          "type": "uint256"
        },
        {
          "indexed": true,
          "internalType": "bytes32",
          "name": "_serviceType",
          "type": "bytes32"
        },
        {
          "indexed": true,
          "internalType": "address",
          "name": "_owner",
          "type": "address"
        },
        {
          "indexed": false,
          "internalType": "string",
          "name": "_endpoint",
          "type": "string"
        },
        {
          "indexed": false,
          "internalType": "uint256",
          "name": "_stakeAmount",
          "type": "uint256"
        }
      ],
      "name": "RegisteredServiceProvider",
      "type": "event"
    },
    {
      "anonymous": false,
      "inputs": [
        {
          "indexed": true,
          "internalType": "address",
          "name": "_newServiceTypeManagerAddress",
          "type": "address"
        }
      ],
      "name": "ServiceTypeManagerAddressUpdated",
      "type": "event"
    },
    {
      "anonymous": false,
      "inputs": [
        {
          "indexed": true,
          "internalType": "address",
          "name": "_newStakingAddress",
          "type": "address"
        }
      ],
      "name": "StakingAddressUpdated",
      "type": "event"
    },
    {
      "anonymous": false,
      "inputs": [
        {
          "indexed": true,
          "internalType": "uint256",
          "name": "_lockupDuration",
          "type": "uint256"
        }
      ],
      "name": "UpdateDeployerCutLockupDurationUpdated",
      "type": "event"
    },
    {
      "constant": false,
      "inputs": [
        {
          "internalType": "address",
          "name": "_governanceAddress",
          "type": "address"
        },
        {
          "internalType": "address",
          "name": "_claimsManagerAddress",
          "type": "address"
        },
        {
          "internalType": "uint256",
          "name": "_decreaseStakeLockupDuration",
          "type": "uint256"
        },
        {
          "internalType": "uint256",
          "name": "_deployerCutLockupDuration",
          "type": "uint256"
        }
      ],
      "name": "initialize",
      "outputs": [],
      "payable": false,
      "stateMutability": "nonpayable",
      "type": "function"
    },
    {
      "constant": false,
      "inputs": [],
      "name": "initialize",
      "outputs": [],
      "payable": false,
      "stateMutability": "nonpayable",
      "type": "function"
    },
    {
      "constant": false,
      "inputs": [
        {
          "internalType": "bytes32",
          "name": "_serviceType",
          "type": "bytes32"
        },
        {
          "internalType": "string",
          "name": "_endpoint",
          "type": "string"
        },
        {
          "internalType": "uint256",
          "name": "_stakeAmount",
          "type": "uint256"
        },
        {
          "internalType": "address",
          "name": "_delegateOwnerWallet",
          "type": "address"
        }
      ],
      "name": "register",
      "outputs": [
        {
          "internalType": "uint256",
          "name": "",
          "type": "uint256"
        }
      ],
      "payable": false,
      "stateMutability": "nonpayable",
      "type": "function"
    },
    {
      "constant": false,
      "inputs": [
        {
          "internalType": "bytes32",
          "name": "_serviceType",
          "type": "bytes32"
        },
        {
          "internalType": "string",
          "name": "_endpoint",
          "type": "string"
        }
      ],
      "name": "deregister",
      "outputs": [
        {
          "internalType": "uint256",
          "name": "",
          "type": "uint256"
        }
      ],
      "payable": false,
      "stateMutability": "nonpayable",
      "type": "function"
    },
    {
      "constant": false,
      "inputs": [
        {
          "internalType": "uint256",
          "name": "_increaseStakeAmount",
          "type": "uint256"
        }
      ],
      "name": "increaseStake",
      "outputs": [
        {
          "internalType": "uint256",
          "name": "",
          "type": "uint256"
        }
      ],
      "payable": false,
      "stateMutability": "nonpayable",
      "type": "function"
    },
    {
      "constant": false,
      "inputs": [
        {
          "internalType": "uint256",
          "name": "_decreaseStakeAmount",
          "type": "uint256"
        }
      ],
      "name": "requestDecreaseStake",
      "outputs": [
        {
          "internalType": "uint256",
          "name": "",
          "type": "uint256"
        }
      ],
      "payable": false,
      "stateMutability": "nonpayable",
      "type": "function"
    },
    {
      "constant": false,
      "inputs": [
        {
          "internalType": "address",
          "name": "_account",
          "type": "address"
        }
      ],
      "name": "cancelDecreaseStakeRequest",
      "outputs": [],
      "payable": false,
      "stateMutability": "nonpayable",
      "type": "function"
    },
    {
      "constant": false,
      "inputs": [],
      "name": "decreaseStake",
      "outputs": [
        {
          "internalType": "uint256",
          "name": "",
          "type": "uint256"
        }
      ],
      "payable": false,
      "stateMutability": "nonpayable",
      "type": "function"
    },
    {
      "constant": false,
      "inputs": [
        {
          "internalType": "bytes32",
          "name": "_serviceType",
          "type": "bytes32"
        },
        {
          "internalType": "string",
          "name": "_endpoint",
          "type": "string"
        },
        {
          "internalType": "address",
          "name": "_updatedDelegateOwnerWallet",
          "type": "address"
        }
      ],
      "name": "updateDelegateOwnerWallet",
      "outputs": [],
      "payable": false,
      "stateMutability": "nonpayable",
      "type": "function"
    },
    {
      "constant": false,
      "inputs": [
        {
          "internalType": "bytes32",
          "name": "_serviceType",
          "type": "bytes32"
        },
        {
          "internalType": "string",
          "name": "_oldEndpoint",
          "type": "string"
        },
        {
          "internalType": "string",
          "name": "_newEndpoint",
          "type": "string"
        }
      ],
      "name": "updateEndpoint",
      "outputs": [
        {
          "internalType": "uint256",
          "name": "",
          "type": "uint256"
        }
      ],
      "payable": false,
      "stateMutability": "nonpayable",
      "type": "function"
    },
    {
      "constant": false,
      "inputs": [
        {
          "internalType": "address",
          "name": "_serviceProvider",
          "type": "address"
        },
        {
          "internalType": "uint256",
          "name": "_cut",
          "type": "uint256"
        }
      ],
      "name": "requestUpdateDeployerCut",
      "outputs": [],
      "payable": false,
      "stateMutability": "nonpayable",
      "type": "function"
    },
    {
      "constant": false,
      "inputs": [
        {
          "internalType": "address",
          "name": "_serviceProvider",
          "type": "address"
        }
      ],
      "name": "cancelUpdateDeployerCut",
      "outputs": [],
      "payable": false,
      "stateMutability": "nonpayable",
      "type": "function"
    },
    {
      "constant": false,
      "inputs": [
        {
          "internalType": "address",
          "name": "_serviceProvider",
          "type": "address"
        }
      ],
      "name": "updateDeployerCut",
      "outputs": [],
      "payable": false,
      "stateMutability": "nonpayable",
      "type": "function"
    },
    {
      "constant": false,
      "inputs": [
        {
          "internalType": "address",
          "name": "_serviceProvider",
          "type": "address"
        },
        {
          "internalType": "uint256",
          "name": "_amount",
          "type": "uint256"
        }
      ],
      "name": "updateServiceProviderStake",
      "outputs": [],
      "payable": false,
      "stateMutability": "nonpayable",
      "type": "function"
    },
    {
      "constant": false,
      "inputs": [
        {
          "internalType": "uint256",
          "name": "_duration",
          "type": "uint256"
        }
      ],
      "name": "updateDecreaseStakeLockupDuration",
      "outputs": [],
      "payable": false,
      "stateMutability": "nonpayable",
      "type": "function"
    },
    {
      "constant": false,
      "inputs": [
        {
          "internalType": "uint256",
          "name": "_duration",
          "type": "uint256"
        }
      ],
      "name": "updateDeployerCutLockupDuration",
      "outputs": [],
      "payable": false,
      "stateMutability": "nonpayable",
      "type": "function"
    },
    {
      "constant": true,
      "inputs": [],
      "name": "getServiceProviderDeployerCutBase",
      "outputs": [
        {
          "internalType": "uint256",
          "name": "",
          "type": "uint256"
        }
      ],
      "payable": false,
      "stateMutability": "view",
      "type": "function"
    },
    {
      "constant": true,
      "inputs": [],
      "name": "getDeployerCutLockupDuration",
      "outputs": [
        {
          "internalType": "uint256",
          "name": "",
          "type": "uint256"
        }
      ],
      "payable": false,
      "stateMutability": "view",
      "type": "function"
    },
    {
      "constant": true,
      "inputs": [
        {
          "internalType": "bytes32",
          "name": "_serviceType",
          "type": "bytes32"
        }
      ],
      "name": "getTotalServiceTypeProviders",
      "outputs": [
        {
          "internalType": "uint256",
          "name": "",
          "type": "uint256"
        }
      ],
      "payable": false,
      "stateMutability": "view",
      "type": "function"
    },
    {
      "constant": true,
      "inputs": [
        {
          "internalType": "string",
          "name": "_endpoint",
          "type": "string"
        }
      ],
      "name": "getServiceProviderIdFromEndpoint",
      "outputs": [
        {
          "internalType": "uint256",
          "name": "",
          "type": "uint256"
        }
      ],
      "payable": false,
      "stateMutability": "view",
      "type": "function"
    },
    {
      "constant": true,
      "inputs": [
        {
          "internalType": "address",
          "name": "_ownerAddress",
          "type": "address"
        },
        {
          "internalType": "bytes32",
          "name": "_serviceType",
          "type": "bytes32"
        }
      ],
      "name": "getServiceProviderIdsFromAddress",
      "outputs": [
        {
          "internalType": "uint256[]",
          "name": "",
          "type": "uint256[]"
        }
      ],
      "payable": false,
      "stateMutability": "view",
      "type": "function"
    },
    {
      "constant": true,
      "inputs": [
        {
          "internalType": "bytes32",
          "name": "_serviceType",
          "type": "bytes32"
        },
        {
          "internalType": "uint256",
          "name": "_serviceId",
          "type": "uint256"
        }
      ],
      "name": "getServiceEndpointInfo",
      "outputs": [
        {
          "internalType": "address",
          "name": "owner",
          "type": "address"
        },
        {
          "internalType": "string",
          "name": "endpoint",
          "type": "string"
        },
        {
          "internalType": "uint256",
          "name": "blockNumber",
          "type": "uint256"
        },
        {
          "internalType": "address",
          "name": "delegateOwnerWallet",
          "type": "address"
        }
      ],
      "payable": false,
      "stateMutability": "view",
      "type": "function"
    },
    {
      "constant": true,
      "inputs": [
        {
          "internalType": "address",
          "name": "_serviceProvider",
          "type": "address"
        }
      ],
      "name": "getServiceProviderDetails",
      "outputs": [
        {
          "internalType": "uint256",
          "name": "deployerStake",
          "type": "uint256"
        },
        {
          "internalType": "uint256",
          "name": "deployerCut",
          "type": "uint256"
        },
        {
          "internalType": "bool",
          "name": "validBounds",
          "type": "bool"
        },
        {
          "internalType": "uint256",
          "name": "numberOfEndpoints",
          "type": "uint256"
        },
        {
          "internalType": "uint256",
          "name": "minAccountStake",
          "type": "uint256"
        },
        {
          "internalType": "uint256",
          "name": "maxAccountStake",
          "type": "uint256"
        }
      ],
      "payable": false,
      "stateMutability": "view",
      "type": "function"
    },
    {
      "constant": true,
      "inputs": [
        {
          "internalType": "address",
          "name": "_serviceProvider",
          "type": "address"
        }
      ],
      "name": "getPendingDecreaseStakeRequest",
      "outputs": [
        {
          "internalType": "uint256",
          "name": "amount",
          "type": "uint256"
        },
        {
          "internalType": "uint256",
          "name": "lockupExpiryBlock",
          "type": "uint256"
        }
      ],
      "payable": false,
      "stateMutability": "view",
      "type": "function"
    },
    {
      "constant": true,
      "inputs": [
        {
          "internalType": "address",
          "name": "_serviceProvider",
          "type": "address"
        }
      ],
      "name": "getPendingUpdateDeployerCutRequest",
      "outputs": [
        {
          "internalType": "uint256",
          "name": "newDeployerCut",
          "type": "uint256"
        },
        {
          "internalType": "uint256",
          "name": "lockupExpiryBlock",
          "type": "uint256"
        }
      ],
      "payable": false,
      "stateMutability": "view",
      "type": "function"
    },
    {
      "constant": true,
      "inputs": [],
      "name": "getDecreaseStakeLockupDuration",
      "outputs": [
        {
          "internalType": "uint256",
          "name": "",
          "type": "uint256"
        }
      ],
      "payable": false,
      "stateMutability": "view",
      "type": "function"
    },
    {
      "constant": true,
      "inputs": [
        {
          "internalType": "address",
          "name": "_serviceProvider",
          "type": "address"
        }
      ],
      "name": "validateAccountStakeBalance",
      "outputs": [],
      "payable": false,
      "stateMutability": "view",
      "type": "function"
    },
    {
      "constant": true,
      "inputs": [],
      "name": "getGovernanceAddress",
      "outputs": [
        {
          "internalType": "address",
          "name": "",
          "type": "address"
        }
      ],
      "payable": false,
      "stateMutability": "view",
      "type": "function"
    },
    {
      "constant": true,
      "inputs": [],
      "name": "getStakingAddress",
      "outputs": [
        {
          "internalType": "address",
          "name": "",
          "type": "address"
        }
      ],
      "payable": false,
      "stateMutability": "view",
      "type": "function"
    },
    {
      "constant": true,
      "inputs": [],
      "name": "getDelegateManagerAddress",
      "outputs": [
        {
          "internalType": "address",
          "name": "",
          "type": "address"
        }
      ],
      "payable": false,
      "stateMutability": "view",
      "type": "function"
    },
    {
      "constant": true,
      "inputs": [],
      "name": "getServiceTypeManagerAddress",
      "outputs": [
        {
          "internalType": "address",
          "name": "",
          "type": "address"
        }
      ],
      "payable": false,
      "stateMutability": "view",
      "type": "function"
    },
    {
      "constant": true,
      "inputs": [],
      "name": "getClaimsManagerAddress",
      "outputs": [
        {
          "internalType": "address",
          "name": "",
          "type": "address"
        }
      ],
      "payable": false,
      "stateMutability": "view",
      "type": "function"
    },
    {
      "constant": false,
      "inputs": [
        {
          "internalType": "address",
          "name": "_governanceAddress",
          "type": "address"
        }
      ],
      "name": "setGovernanceAddress",
      "outputs": [],
      "payable": false,
      "stateMutability": "nonpayable",
      "type": "function"
    },
    {
      "constant": false,
      "inputs": [
        {
          "internalType": "address",
          "name": "_address",
          "type": "address"
        }
      ],
      "name": "setStakingAddress",
      "outputs": [],
      "payable": false,
      "stateMutability": "nonpayable",
      "type": "function"
    },
    {
      "constant": false,
      "inputs": [
        {
          "internalType": "address",
          "name": "_address",
          "type": "address"
        }
      ],
      "name": "setDelegateManagerAddress",
      "outputs": [],
      "payable": false,
      "stateMutability": "nonpayable",
      "type": "function"
    },
    {
      "constant": false,
      "inputs": [
        {
          "internalType": "address",
          "name": "_address",
          "type": "address"
        }
      ],
      "name": "setServiceTypeManagerAddress",
      "outputs": [],
      "payable": false,
      "stateMutability": "nonpayable",
      "type": "function"
    },
    {
      "constant": false,
      "inputs": [
        {
          "internalType": "address",
          "name": "_address",
          "type": "address"
        }
      ],
      "name": "setClaimsManagerAddress",
      "outputs": [],
      "payable": false,
      "stateMutability": "nonpayable",
      "type": "function"
    }
  ],
  "bytecode": "0x608060405234801561001057600080fd5b5061451e806100206000396000f3fe608060405234801561001057600080fd5b50600436106102275760003560e01c8063aa70d23611610130578063eb3c972a116100b8578063f4e0d9ac1161007c578063f4e0d9ac14610868578063f615a11a1461088e578063f9b37ed31461090c578063fda5f2011461097a578063ff653c8a146109a057610227565b8063eb3c972a14610739578063eb990c59146107ae578063eedad66b146107ea578063f273e9a814610807578063f277a2241461086057610227565b8063d16543f6116100ff578063d16543f6146106a2578063d5ecac02146106aa578063e2995f8d146106d0578063e8de38c0146106ed578063ea63d6511461071357610227565b8063aa70d23614610622578063b4fa14de14610648578063b90bc85214610650578063cfc162541461067c57610227565b8063623fa631116101b3578063748ea82c11610182578063748ea82c146104f25780637a5c13f1146105ad5780638129fc1c146105ec578063948e5426146105f4578063a1c24ceb146105fc57610227565b8063623fa631146104a8578063693410c5146104c55780636c75fdf3146104e257806373252494146104ea57610227565b80632bec8e16116101fa5780632bec8e16146103725780632ef41dee146103ee57806341cdc60c146103f65780634fe84c09146103fe57806354350cee1461048257610227565b80630e9ed68b1461022c5780630fcb34b4146102505780631a7c96fe1461032757806325246ab614610346575b600080fd5b6102346109c6565b604080516001600160a01b039092168252519081900360200190f35b6103156004803603606081101561026657600080fd5b81359190810190604081016020820135600160201b81111561028757600080fd5b82018360208201111561029957600080fd5b803590602001918460018302840111600160201b831117156102ba57600080fd5b919390929091602081019035600160201b8111156102d757600080fd5b8201836020820111156102e957600080fd5b803590602001918460018302840111600160201b8311171561030a57600080fd5b5090925090506109e6565b60408051918252519081900360200190f35b6103446004803603602081101561033d57600080fd5b5035610e10565b005b6103446004803603604081101561035c57600080fd5b506001600160a01b038135169060200135610f02565b61039e6004803603604081101561038857600080fd5b506001600160a01b0381351690602001356110bc565b60408051602080825283518183015283519192839290830191858101910280838360005b838110156103da5781810151838201526020016103c2565b505050509050019250505060405180910390f35b610315611139565b61031561114a565b6103156004803603608081101561041457600080fd5b81359190810190604081016020820135600160201b81111561043557600080fd5b82018360208201111561044757600080fd5b803590602001918460018302840111600160201b8311171561046857600080fd5b9193509150803590602001356001600160a01b03166113df565b6103446004803603602081101561049857600080fd5b50356001600160a01b03166119f7565b610315600480360360208110156104be57600080fd5b5035611b37565b610344600480360360208110156104db57600080fd5b5035611b54565b610315611c09565b610234611c19565b6105156004803603604081101561050857600080fd5b5080359060200135611c33565b604080516001600160a01b038087168252918101849052908216606082015260806020808301828152865192840192909252855160a084019187019080838360005b8381101561056f578181015183820152602001610557565b50505050905090810190601f16801561059c5780820380516001836020036101000a031916815260200191505b509550505050505060405180910390f35b6105d3600480360360208110156105c357600080fd5b50356001600160a01b0316611d56565b6040805192835260208301919091528051918290030190f35b610344611d86565b610234611e35565b6103446004803603602081101561061257600080fd5b50356001600160a01b0316611e4f565b6103446004803603602081101561063857600080fd5b50356001600160a01b0316611f17565b610234611fdf565b6103446004803603604081101561066657600080fd5b506001600160a01b038135169060200135611ff9565b6103446004803603602081101561069257600080fd5b50356001600160a01b0316612082565b610234612140565b610344600480360360208110156106c057600080fd5b50356001600160a01b031661215a565b610315600480360360208110156106e657600080fd5b5035612271565b6103446004803603602081101561070357600080fd5b50356001600160a01b0316612437565b6103446004803603602081101561072957600080fd5b50356001600160a01b03166124ce565b6103156004803603604081101561074f57600080fd5b81359190810190604081016020820135600160201b81111561077057600080fd5b82018360208201111561078257600080fd5b803590602001918460018302840111600160201b831117156107a357600080fd5b509092509050612596565b610344600480360360808110156107c457600080fd5b506001600160a01b03813581169160208101359091169060408101359060600135612b92565b6103156004803603602081101561080057600080fd5b5035612c76565b61082d6004803603602081101561081d57600080fd5b50356001600160a01b0316612edf565b604080519687526020870195909552921515858501526060850191909152608084015260a0830152519081900360c00190f35b610315612f3b565b6103446004803603602081101561087e57600080fd5b50356001600160a01b0316612f4c565b610344600480360360608110156108a457600080fd5b81359190810190604081016020820135600160201b8111156108c557600080fd5b8201836020820111156108d757600080fd5b803590602001918460018302840111600160201b831117156108f857600080fd5b9193509150356001600160a01b031661301c565b6103156004803603602081101561092257600080fd5b810190602081018135600160201b81111561093c57600080fd5b82018360208201111561094e57600080fd5b803590602001918460018302840111600160201b8311171561096f57600080fd5b509092509050613194565b6103446004803603602081101561099057600080fd5b50356001600160a01b03166131d5565b6105d3600480360360208110156109b657600080fd5b50356001600160a01b0316613325565b60006109d0613355565b5060335461010090046001600160a01b03165b90565b60006109f0613355565b60405163f9b37ed360e01b815260206004820190815260248201869052600091309163f9b37ed391899189918190604401848480828437600083820152604051601f909101601f191690920195506020945090925050508083038186803b158015610a5a57600080fd5b505afa158015610a6e573d6000803e3d6000fd5b505050506040513d6020811015610a8457600080fd5b5051905080610ac45760405162461bcd60e51b815260040180806020018281038252604a815260200180613df5604a913960600191505060405180910390fd5b610acc613b95565b6000888152603c60209081526040808320858452825291829020825160808101845281546001600160a01b03168152600180830180548651600261010094831615949094026000190190911692909204601f8101869004860283018601909652858252919492938581019391929190830182828015610b8c5780601f10610b6157610100808354040283529160200191610b8c565b820191906000526020600020905b815481529060010190602001808311610b6f57829003601f168201915b5050509183525050600282015460208201526003909101546001600160a01b039081166040909201919091528151919250163314610bfb5760405162461bcd60e51b8152600401808060200182810382526046815260200180613f796046913960600191505060405180910390fd5b86866040518083838082843760405192018290039091206020808701518051910120149350610c5f925050505760405162461bcd60e51b815260040180806020018281038252605d815260200180614325605d913960600191505060405180910390fd5b6020808201518051908201206000908152603d82526040808220919091558051601f8701839004830281018301909152858152908690869081908401838280828437600092018290525060208681019586528d8252603c815260408083208984528252909120865181546001600160a01b0319166001600160a01b039091161781559451805187969550610cfc9450600186019350910190613bcf565b506040820151816002015560608201518160030160006101000a8154816001600160a01b0302191690836001600160a01b0316021790555090505081603d60008787604051808383808284378083019250505092505050604051809103902081526020019081526020016000208190555081336001600160a01b0316897f7533010434d2066fea01bb712667c69a370a5c6c20813690fa6ddbc1f9fc059f8a8a8a8a6040518080602001806020018381038352878782818152602001925080828437600083820152601f01601f191690910184810383528581526020019050858580828437600083820152604051601f909101601f19169092018290039850909650505050505050a4509695505050505050565b610e18613355565b6035546040805160608101909152603c8082526001600160a01b03909216331491614480602083013990610eca5760405162461bcd60e51b81526004018080602001828103825283818151815260200191508051906020019080838360005b83811015610e8f578181015183820152602001610e77565b50505050905090810190601f168015610ebc5780820380516001836020036101000a031916815260200191505b509250505060405180910390fd5b50610ed4816133e0565b60405181907f3934b310f24fb67bc4b421ffbf8e2c81d939002aa0f323d20477bb98cf53814790600090a250565b610f0a613355565b336001600160a01b0383161480610f2b57506035546001600160a01b031633145b6040518060800160405280604781526020016143826047913990610f905760405162461bcd60e51b8152602060048201818152835160248401528351909283926044909101919085019080838360008315610e8f578181015183820152602001610e77565b506001600160a01b038216600090815260406020819052902060010154158015610fd057506001600160a01b038216600090815260406020819052902054155b61100b5760405162461bcd60e51b815260040180806020018281038252603d815260200180613e74603d913960400191505060405180910390fd5b606481111561104b5760405162461bcd60e51b81526004018080602001828103825260458152602001806144026045913960600191505060405180910390fd5b6039546040805180820182528381524390920160208084018281526001600160a01b03871660008181529285905284832095518655905160019095019490945591519092839285927fb4a78f19d28347c475e23b6b1cd903845fe48733cc9fda8e1c47241e712718489190a4505050565b60606110c6613355565b6001600160a01b0383166000908152603e602090815260408083208584528252918290208054835181840281018401909452808452909183018282801561112c57602002820191906000526020600020905b815481526020019060010190808311611118575b5050505050905092915050565b6000611143613355565b5060385490565b6000611154613355565b61115c613491565b611165336134df565b6111a05760405162461bcd60e51b815260040180806020018281038252603e815260200180613f3b603e913960400191505060405180910390fd5b336000908152603f60205260409020600101544310156111f15760405162461bcd60e51b815260040180806020018281038252602e8152602001806144bc602e913960400191505060405180910390fd5b603354336000818152603f6020526040808220548151630dbbc22360e21b815260048101949094526024840181905290516101009094046001600160a01b031693909284926336ef088c9260448084019382900301818387803b15801561125757600080fd5b505af115801561126b573d6000803e3d6000fd5b505060408051634b341aed60e01b81523360048201529051600093506001600160a01b0386169250634b341aed91602480820192602092909190829003018186803b1580156112b957600080fd5b505afa1580156112cd573d6000803e3d6000fd5b505050506040513d60208110156112e357600080fd5b5051336000908152603a6020526040902054909150611308908363ffffffff61352616565b336000908152603a60205260409020908155600301541561137957604080516303a378e360e61b81523360048201529051309163e8de38c0916024808301926000929190829003018186803b15801561136057600080fd5b505afa158015611374573d6000803e3d6000fd5b505050505b336000818152603a60209081526040808320600201805460ff19166001908117909155603f909252808320838155909101829055518392859290917f4fa1898c33227e9e35023440f0fa23fcb2dbf6d8a31c3b0f975c302e7f806bfa9190a49250505090565b60006113e9613355565b6113f1613491565b6113f961356f565b6114016135b6565b60365460408051639bf7734b60e01b81526004810189905290516001600160a01b0390921691639bf7734b91602480820192602092909190829003018186803b15801561144d57600080fd5b505afa158015611461573d6000803e3d6000fd5b505050506040513d602081101561147757600080fd5b50516114b45760405162461bcd60e51b8152600401808060200182810382526033815260200180613fbf6033913960400191505060405180910390fd5b821561156f576114c3336135fd565b156114ff5760405162461bcd60e51b815260040180806020018281038252603181526020018061411a6031913960400191505060405180910390fd5b603354604080516305dc812160e31b81523360048201526024810186905290516101009092046001600160a01b031691632ee409089160448082019260009290919082900301818387803b15801561155657600080fd5b505af115801561156a573d6000803e3d6000fd5b505050505b603d60008686604051808383808284376040805191909301819003902086525060208501959095525050500160002054156115db5760405162461bcd60e51b8152600401808060200182810382526033815260200180613cef6033913960400191505060405180910390fd5b6000868152603b60205260408120546115fb90600163ffffffff61368016565b6000888152603b602090815260409182902083905581516080810183523381528251601f8a018390048302810183019093528883529293508281019190899089908190840183828082843760009201829052509385525050436020808501919091526001600160a01b038881166040958601528c8452603c8252848420878552825293909220845181546001600160a01b0319169416939093178355508281015180516116ae9260018501920190613bcf565b506040820151816002015560608201518160030160006101000a8154816001600160a01b0302191690836001600160a01b0316021790555090505080603d600088886040518083838082843760408051919093018190039020865250602080860196909652938401600090812096909655505033808552603e84528285208c8652845282852080546001808201835591875285872001879055908552603a909352509091206003015461176091613680565b336000908152603a60205260409020600381019190915554611788908563ffffffff61368016565b336000908152603a6020526040808220929092556036548251634df3567b60e11b8152600481018b90529251919283926001600160a01b0390921691639be6acf691602480820192606092909190829003018186803b1580156117ea57600080fd5b505afa1580156117fe573d6000803e3d6000fd5b505050506040513d606081101561181457600080fd5b50602080820151604092830151336000908152603a909352929091206004015490935090915061184a908363ffffffff61368016565b336000908152603a60205260409020600481019190915560050154611875908263ffffffff61368016565b336000818152603a60205260408082206005019390935582516303a378e360e61b815260048101929092529151309263e8de38c09260248082019391829003018186803b1580156118c557600080fd5b505afa1580156118d9573d6000803e3d6000fd5b505060335460408051634b341aed60e01b81523360048201529051600094506101009092046001600160a01b03169250634b341aed916024808301926020929190829003018186803b15801561192e57600080fd5b505afa158015611942573d6000803e3d6000fd5b505050506040513d602081101561195857600080fd5b5051336000818152603a6020908152604091829020600201805460ff1916600117905581519081018490528181529081018b9052919250908b9086907fda2823651979534b78c11c1fd32e8a90ecd0f8f98a8648a8f78fb12d01765c6d908d908d9087908060608101858580828437600083820152604051601f909101601f1916909201829003965090945050505050a4509198975050505050505050565b6119ff613355565b611a076136da565b336001600160a01b0382161480611a2857506034546001600160a01b031633145b611a635760405162461bcd60e51b8152600401808060200182810382526035815260200180613e3f6035913960400191505060405180910390fd5b611a6c816134df565b611aa75760405162461bcd60e51b815260040180806020018281038252603e815260200180613f3b603e913960400191505060405180910390fd5b611aaf613c4d565b506001600160a01b0381166000818152603f602081815260408084208151808301835281548152600182018054828601908152845180860186528881528087018981528a8a529790965294519092559351905590518251915192949093919290917fd2527e9dd387f680eb86b6449b3e79d6b26070ca004f2f228a81cc65a8b8452391a45050565b6000611b41613355565b506000908152603b602052604090205490565b611b5c613355565b6035546040805160608101909152603c8082526001600160a01b03909216331491614480602083013990611bd15760405162461bcd60e51b8152602060048201818152835160248401528351909283926044909101919085019080838360008315610e8f578181015183820152602001610e77565b50611bdb81613721565b60405181907fdc3fafbbdb1a933aec8f5bf13e91717daef615f7489a2d3ea7cddab94a39cab790600090a250565b6000611c13613355565b50606490565b6000611c23613355565b506035546001600160a01b031690565b60006060600080611c42613355565b611c4a613b95565b6000878152603c60209081526040808320898452825291829020825160808101845281546001600160a01b03168152600180830180548651600261010094831615949094026000190190911692909204601f8101869004860283018601909652858252919492938581019391929190830182828015611d0a5780601f10611cdf57610100808354040283529160200191611d0a565b820191906000526020600020905b815481529060010190602001808311611ced57829003601f168201915b505050918352505060028201546020808301919091526003909201546001600160a01b031660409182015282519183015190830151606090930151919a90995091975095509350505050565b600080611d61613355565b50506001600160a01b0316600090815260406020819052902080546001909101549091565b600054610100900460ff1680611d9f5750611d9f613843565b80611dad575060005460ff16155b611de85760405162461bcd60e51b815260040180806020018281038252602e8152602001806140ec602e913960400191505060405180910390fd5b600054610100900460ff16158015611e13576000805460ff1961ff0019909116610100171660011790555b6033805460ff191660011790558015611e32576000805461ff00191690555b50565b6000611e3f613355565b506037546001600160a01b031690565b611e57613355565b6035546040805160608101909152603c8082526001600160a01b03909216331491614480602083013990611ecc5760405162461bcd60e51b8152602060048201818152835160248401528351909283926044909101919085019080838360008315610e8f578181015183820152602001610e77565b50603680546001600160a01b0319166001600160a01b0383169081179091556040517f974dd22d9c68e24879e45eea1873ba5c4cc1957464d5e7c29a41a3c2418bb10c90600090a250565b611f1f613355565b6035546040805160608101909152603c8082526001600160a01b03909216331491614480602083013990611f945760405162461bcd60e51b8152602060048201818152835160248401528351909283926044909101919085019080838360008315610e8f578181015183820152602001610e77565b50603780546001600160a01b0319166001600160a01b0383169081179091556040517f3b3679838ffd21f454712cf443ab98f11d36d5552da016314c5cbe364a10c24390600090a250565b6000611fe9613355565b506036546001600160a01b031690565b612001613355565b612009613491565b6120116136da565b6034546001600160a01b0316331461205a5760405162461bcd60e51b81526004018080602001828103825260388152602001806142be6038913960400191505060405180910390fd5b6001600160a01b0382166000908152603a6020526040902081905561207e82613849565b5050565b61208a613355565b6035546040805160608101909152603c8082526001600160a01b039092163314916144806020830139906120ff5760405162461bcd60e51b8152602060048201818152835160248401528351909283926044909101919085019080838360008315610e8f578181015183820152602001610e77565b5061210981613967565b6040516001600160a01b038216907fd0e77a42021adb46a85dc0dbcdd75417f2042ed5c51474cb43a25ce0f1049a1e90600090a250565b600061214a613355565b506034546001600160a01b031690565b612162613355565b61216b81613a2e565b336001600160a01b038216148061218c57506035546001600160a01b031633145b60405180608001604052806047815260200161438260479139906121f15760405162461bcd60e51b8152602060048201818152835160248401528351909283926044909101919085019080838360008315610e8f578181015183820152602001610e77565b506121fa613c4d565b506001600160a01b038116600081815260406020818152818320825180840184528154815260018083018054838601528787529286905591859055603a9092528284200154815192519194909390917f13d9b8f24ffbc23445a81a777df068844fc14f5e3e6f4d0933644a2fb815c9889190a45050565b600061227b613355565b612283613491565b61228b6135b6565b600082116122ca5760405162461bcd60e51b8152600401808060200182810382526051815260200180613eb16051913960600191505060405180910390fd5b6122d3336135fd565b1561230f5760405162461bcd60e51b815260040180806020018281038252604f81526020018061409d604f913960600191505060405180910390fd5b60335460408051634b341aed60e01b815233600482015290516101009092046001600160a01b0316916000918391634b341aed91602480820192602092909190829003018186803b15801561236357600080fd5b505afa158015612377573d6000803e3d6000fd5b505050506040513d602081101561238d57600080fd5b505190506123aa336123a5838763ffffffff61352616565b613a85565b60006123c16038544361368090919063ffffffff16565b6040805180820182528781526020808201848152336000818152603f9093528483209351845590516001909301929092559151929350839288927f4416674e7d3d1bce767895146914b4d2efe964ac8e226c625738a058627903a291a461242e828663ffffffff61352616565b95945050505050565b61243f613355565b612447613491565b60335460408051634b341aed60e01b81526001600160a01b0380851660048301529151611e329385936101009091041691634b341aed916024808301926020929190829003018186803b15801561249d57600080fd5b505afa1580156124b1573d6000803e3d6000fd5b505050506040513d60208110156124c757600080fd5b5051613a85565b6124d6613355565b6035546040805160608101909152603c8082526001600160a01b0390921633149161448060208301399061254b5760405162461bcd60e51b8152602060048201818152835160248401528351909283926044909101919085019080838360008315610e8f578181015183820152602001610e77565b50603480546001600160a01b0319166001600160a01b0383169081179091556040517fc6f2f93d680d907c15617652a0861512922e68a2c4c4821732a8aa324ec541ea90600090a250565b60006125a0613355565b6125a8613491565b6125b061356f565b336000908152603a602052604081206003015481906001141561262b57336000908152603a60209081526040918290205482518084019093528083526038549094509082019061260790439063ffffffff61368016565b9052336000908152603f602090815260409091208251815591015160019182015590505b603d600086866040518083838082843760408051919093018190039020865250602085019590955250505001600020546126965760405162461bcd60e51b815260040180806020018281038252602f8152602001806142f6602f913960400191505060405180910390fd5b6000603d60008787604051808383808284378083019250505092505050604051809103902081526020019081526020016000205490506000603d60008888604051808383808284378083019250505092505050604051809103902081526020019081526020016000208190555085856040518083838082843780830192505050925050506040518091039020603c6000898152602001908152602001600020600083815260200190815260200160002060010160405180828054600181600116156101000203166002900480156127a45780601f106127825761010080835404028352918201916127a4565b820191906000526020600020905b815481529060010190602001808311612790575b50509150506040518091039020146127ed5760405162461bcd60e51b81526004018080602001828103825260398152602001806143c96039913960400191505060405180910390fd5b6000878152603c602090815260408083208484529091529020546001600160a01b0316331461284d5760405162461bcd60e51b81526004018080602001828103825260378152602001806140666037913960400191505060405180910390fd5b6000878152603c60209081526040808320848452909152812080546001600160a01b0319168155906128826001830182613c67565b50600060028201819055600390910180546001600160a01b0319169055338152603e602090815260408083208a8452909152812054905b8181101561299657336000908152603e602090815260408083208c845290915290208054849190839081106128ea57fe5b9060005260206000200154141561298e57336000908152603e602090815260408083208c845290915290208054600019840190811061292557fe5b6000918252602080832090910154338352603e825260408084208d8552909252912080548390811061295357fe5b6000918252602080832090910192909255338152603e825260408082208c835290925220805490612988906000198301613cab565b50612996565b6001016128b9565b50336000908152603a602052604080822060030180546000190190556036548151634df3567b60e11b8152600481018c9052915183926001600160a01b0390921691639be6acf6916024808301926060929190829003018186803b1580156129fd57600080fd5b505afa158015612a11573d6000803e3d6000fd5b505050506040513d6060811015612a2757600080fd5b50602080820151604092830151336000908152603a9093529290912060040154909350909150612a5d908363ffffffff61352616565b336000908152603a60205260409020600481019190915560050154612a88908263ffffffff61352616565b336000818152603a602090815260409182902060050193909355805192830189905280835282018a9052908b9086907f4b8bf251858c5cb19e132cd9a354e12ccae21f47bf38534fd03b2708c0fba5a4908d908d908c908060608101858580828437600083820152604051601f909101601f1916909201829003965090945050505050a484612b8457604080516303a378e360e61b81523360048201529051309163e8de38c0916024808301926000929190829003018186803b158015612b4e57600080fd5b505afa158015612b62573d6000803e3d6000fd5b5050336000908152603a60205260409020600201805460ff1916600117905550505b509198975050505050505050565b600054610100900460ff1680612bab5750612bab613843565b80612bb9575060005460ff16155b612bf45760405162461bcd60e51b815260040180806020018281038252602e8152602001806140ec602e913960400191505060405180910390fd5b600054610100900460ff16158015612c1f576000805460ff1961ff0019909116610100171660011790555b612c2885613967565b603780546001600160a01b0319166001600160a01b038616179055612c4c83613721565b612c55826133e0565b612c5d611d86565b8015612c6f576000805461ff00191690555b5050505050565b6000612c80613355565b612c88613491565b612c906135b6565b336000908152603a6020526040902060030154612cde5760405162461bcd60e51b8152600401808060200182810382526046815260200180613d226046913960600191505060405180910390fd5b612ce7336135fd565b15612d235760405162461bcd60e51b815260040180806020018281038252604f81526020018061409d604f913960600191505060405180910390fd5b603354604080516305dc812160e31b81523360048201526024810185905290516101009092046001600160a01b0316918291632ee4090891604480830192600092919082900301818387803b158015612d7b57600080fd5b505af1158015612d8f573d6000803e3d6000fd5b505060408051634b341aed60e01b81523360048201529051600093506001600160a01b0385169250634b341aed91602480820192602092909190829003018186803b158015612ddd57600080fd5b505afa158015612df1573d6000803e3d6000fd5b505050506040513d6020811015612e0757600080fd5b5051336000908152603a6020526040902054909150612e2c908563ffffffff61368016565b336000818152603a60205260408082209390935582516303a378e360e61b815260048101929092529151309263e8de38c09260248082019391829003018186803b158015612e7957600080fd5b505afa158015612e8d573d6000803e3d6000fd5b5050336000818152603a6020526040808220600201805460ff19166001179055518594508893507f6eb0fb3dc7f27147f8688c17c909de0e4f661c9a7349ae9166a6cce7aeeee5df9190a49392505050565b600080600080600080612ef0613355565b505050506001600160a01b03929092166000908152603a6020526040902080546001820154600283015460038401546004850154600590950154939792965060ff9091169450929190565b6000612f45613355565b5060395490565b612f54613355565b6035546040805160608101909152603c8082526001600160a01b03909216331491614480602083013990612fc95760405162461bcd60e51b8152602060048201818152835160248401528351909283926044909101919085019080838360008315610e8f578181015183820152602001610e77565b5060338054610100600160a81b0319166101006001600160a01b038416908102919091179091556040517f8ae96d8af35324a34b19e4f33e72d620b502f69595bb43870ab5fd7a7de7823990600090a250565b613024613355565b60405163f9b37ed360e01b815260206004820190815260248201849052600091309163f9b37ed391879187918190604401848480828437600083820152604051601f909101601f191690920195506020945090925050508083038186803b15801561308e57600080fd5b505afa1580156130a2573d6000803e3d6000fd5b505050506040513d60208110156130b857600080fd5b50516000868152603c602090815260408083208484529091529020549091506001600160a01b0316331461311d5760405162461bcd60e51b815260040180806020018281038252603d815260200180613ff2603d913960400191505060405180910390fd5b6000858152603c6020908152604080832084845282529182902060030180546001600160a01b0319166001600160a01b038616908117909155825190815291518392889233927ff7a7e9c74ac4e66767d51e4dff726cfb05a9a41710b2287ec56a6ca314dc82c09281900390910190a45050505050565b600061319e613355565b603d600084846040518083838082843760408051919093018190039020865250602085019590955250505001600020549392505050565b6131dd613355565b6131e681613a2e565b336001600160a01b038216148061320757506035546001600160a01b031633145b604051806080016040528060478152602001614382604791399061326c5760405162461bcd60e51b8152602060048201818152835160248401528351909283926044909101919085019080838360008315610e8f578181015183820152602001610e77565b506001600160a01b0381166000908152604060208190529020600101544310156132c75760405162461bcd60e51b815260040180806020018281038252602e8152602001806144bc602e913960400191505060405180910390fd5b6001600160a01b0381166000818152604060208181528183208054603a9092528284206001908101928355848255018390555490519092917ff935666edb102c30bbfdd70149a3f000dca0deaacf126388ddcef0a8daea085491a350565b600080613330613355565b50506001600160a01b03166000908152603f6020526040902080546001909101549091565b6033546040805180820190915260208082527f496e697469616c697a61626c6556323a204e6f7420696e697469616c697a6564908201529060ff161515600114611e325760405162461bcd60e51b8152602060048201818152835160248401528351909283926044909101919085019080838360008315610e8f578181015183820152602001610e77565b6037546040805163088c2ce360e31b8152905183926001600160a01b0316916344616718916004808301926020929190829003018186803b15801561342457600080fd5b505afa158015613438573d6000803e3d6000fd5b505050506040513d602081101561344e57600080fd5b50511061348c5760405162461bcd60e51b81526004018080602001828103825260578152602001806142676057913960600191505060405180910390fd5b603955565b60335461010090046001600160a01b03166134dd5760405162461bcd60e51b81526004018080602001828103825260318152602001806141bc6031913960400191505060405180910390fd5b565b6001600160a01b0381166000908152603f60205260408120600101541580159061352057506001600160a01b0382166000908152603f602052604090205415155b92915050565b600061356883836040518060400160405280601e81526020017f536166654d6174683a207375627472616374696f6e206f766572666c6f770000815250613b3b565b9392505050565b6036546001600160a01b03166134dd5760405162461bcd60e51b815260040180806020018281038252603c815260200180614180603c913960400191505060405180910390fd5b6037546001600160a01b03166134dd5760405162461bcd60e51b815260040180806020018281038252603781526020018061402f6037913960400191505060405180910390fd5b6037546040805163d017f48360e01b81526001600160a01b0384811660048301529151600093929092169163d017f48391602480820192602092909190829003018186803b15801561364e57600080fd5b505afa158015613662573d6000803e3d6000fd5b505050506040513d602081101561367857600080fd5b505192915050565b600082820183811015613568576040805162461bcd60e51b815260206004820152601b60248201527f536166654d6174683a206164646974696f6e206f766572666c6f770000000000604482015290519081900360640190fd5b6034546001600160a01b03166134dd5760405162461bcd60e51b8152600401808060200182810382526039815260200180613f026039913960400191505060405180910390fd5b60355460408051630628888560e01b815290516001600160a01b039092169182916306288885916004808301926020929190829003018186803b15801561376757600080fd5b505afa15801561377b573d6000803e3d6000fd5b505050506040513d602081101561379157600080fd5b505160408051633ecc6a4360e01b815290516001600160a01b03841691633ecc6a43916004808301926020929190829003018186803b1580156137d357600080fd5b505afa1580156137e7573d6000803e3d6000fd5b505050506040513d60208110156137fd57600080fd5b505101821161383d5760405162461bcd60e51b815260040180806020018281038252607a8152602001806141ed607a913960800191505060405180910390fd5b50603855565b303b1590565b60335460408051634b341aed60e01b81526001600160a01b0384811660048301529151600093610100900490921691634b341aed91602480820192602092909190829003018186803b15801561389e57600080fd5b505afa1580156138b2573d6000803e3d6000fd5b505050506040513d60208110156138c857600080fd5b50516001600160a01b0383166000908152603a602052604090206004015490915081108061391057506001600160a01b0382166000908152603a602052604090206005015481115b1561393d576001600160a01b0382166000908152603a60205260409020600201805460ff1916905561207e565b6001600160a01b0382166000908152603a60205260409020600201805460ff191660011790555050565b806001600160a01b0316630ea773076040518163ffffffff1660e01b815260040160206040518083038186803b1580156139a057600080fd5b505afa1580156139b4573d6000803e3d6000fd5b505050506040513d60208110156139ca57600080fd5b50511515600114613a0c5760405162461bcd60e51b815260040180806020018281038252604d815260200180613da8604d913960600191505060405180910390fd5b603580546001600160a01b0319166001600160a01b0392909216919091179055565b6001600160a01b038116600090815260406020819052902060010154611e325760405162461bcd60e51b8152600401808060200182810382526040815260200180613d686040913960400191505060405180910390fd5b6001600160a01b0382166000908152603a6020526040902060050154811115613adf5760405162461bcd60e51b815260040180806020018281038252603581526020018061414b6035913960400191505060405180910390fd5b6001600160a01b0382166000908152603a6020526040902060048101549054101561207e5760405162461bcd60e51b81526004018080602001828103825260398152602001806144476039913960400191505060405180910390fd5b60008184841115613b8d5760405162461bcd60e51b8152602060048201818152835160248401528351909283926044909101919085019080838360008315610e8f578181015183820152602001610e77565b505050900390565b604051806080016040528060006001600160a01b03168152602001606081526020016000815260200160006001600160a01b031681525090565b828054600181600116156101000203166002900490600052602060002090601f016020900481019282601f10613c1057805160ff1916838001178555613c3d565b82800160010185558215613c3d579182015b82811115613c3d578251825591602001919060010190613c22565b50613c49929150613cd4565b5090565b604051806040016040528060008152602001600081525090565b50805460018160011615610100020316600290046000825580601f10613c8d5750611e32565b601f016020900490600052602060002090810190611e329190613cd4565b815481835581811115613ccf57600083815260209020613ccf918101908301613cd4565b505050565b6109e391905b80821115613c495760008155600101613cda56fe5365727669636550726f7669646572466163746f72793a20456e64706f696e7420616c726561647920726567697374657265645365727669636550726f7669646572466163746f72793a205265676973746572656420656e64706f696e7420726571756972656420746f20696e637265617365207374616b655365727669636550726f7669646572466163746f72793a204e6f20757064617465206465706c6f79657220637574206f7065726174696f6e2070656e64696e675365727669636550726f7669646572466163746f72793a205f676f7665726e616e636541646472657373206973206e6f7420612076616c696420676f7665726e616e636520636f6e74726163745365727669636550726f7669646572466163746f72793a20436f756c64206e6f742066696e6420736572766963652070726f76696465722077697468207468617420656e64706f696e745365727669636550726f7669646572466163746f72793a204f6e6c79206f776e6572206f722044656c65676174654d616e616765725365727669636550726f7669646572466163746f72793a20557064617465206465706c6f79657220637574206f7065726174696f6e2070656e64696e675365727669636550726f7669646572466163746f72793a20526571756573746564207374616b6520646563726561736520616d6f756e74206d7573742062652067726561746572207468616e207a65726f5365727669636550726f7669646572466163746f72793a2064656c65676174654d616e6167657241646472657373206973206e6f74207365745365727669636550726f7669646572466163746f72793a204465637265617365207374616b652072657175657374206d7573742062652070656e64696e675365727669636550726f7669646572466163746f72793a20496e76616c69642075706461746520656e64706f696e74206f7065726174696f6e2c2077726f6e67206f776e65725365727669636550726f7669646572466163746f72793a2056616c6964207365727669636520747970652072657175697265645365727669636550726f7669646572466163746f72793a20496e76616c696420757064617465206f7065726174696f6e2c2077726f6e67206f776e65725365727669636550726f7669646572466163746f72793a20636c61696d734d616e6167657241646472657373206973206e6f74207365745365727669636550726f7669646572466163746f72793a204f6e6c792063616c6c61626c6520627920656e64706f696e74206f776e65725365727669636550726f7669646572466163746f72793a204e6f20636c61696d20657870656374656420746f2062652070656e64696e67207072696f7220746f207374616b65207472616e73666572436f6e747261637420696e7374616e63652068617320616c7265616479206265656e20696e697469616c697a65645365727669636550726f7669646572466163746f72793a204e6f2070656e64696e6720636c61696d2065787065637465645365727669636550726f7669646572466163746f72793a204d6178696d756d207374616b6520616d6f756e742065786365656465645365727669636550726f7669646572466163746f72793a2073657276696365547970654d616e6167657241646472657373206973206e6f74207365745365727669636550726f7669646572466163746f72793a207374616b696e6741646472657373206973206e6f74207365745365727669636550726f7669646572466163746f72793a2064656372656173655374616b654c6f636b75704475726174696f6e206475726174696f6e206d7573742062652067726561746572207468616e20676f7665726e616e636520766f74696e67506572696f64202b20657865637574696f6e44656c61795365727669636550726f7669646572466163746f72793a20496e636f6d696e67206475726174696f6e206d7573742062652067726561746572207468616e2066756e64696e6720726f756e6420626c6f636b20646966665365727669636550726f7669646572466163746f72793a206f6e6c792063616c6c61626c652062792044656c65676174654d616e616765725365727669636550726f7669646572466163746f72793a20456e64706f696e74206e6f7420726567697374657265645365727669636550726f7669646572466163746f72793a204f6c6420656e64706f696e7420646f65736e2774206d6174636820776861742773207265676973746572656420666f722074686520736572766963652070726f76696465725365727669636550726f7669646572466163746f72793a204f6e6c792063616c6c61626c6520627920536572766963652050726f7669646572206f7220476f7665726e616e63655365727669636550726f7669646572466163746f72793a20496e76616c696420656e64706f696e7420666f72207365727669636520747970655365727669636550726f7669646572466163746f72793a20536572766963652050726f7669646572206375742063616e6e6f742065786365656420626173652076616c75655365727669636550726f7669646572466163746f72793a204d696e696d756d207374616b6520726571756972656d656e74206e6f74206d65745365727669636550726f7669646572466163746f72793a204f6e6c792063616c6c61626c6520627920476f7665726e616e636520636f6e74726163745365727669636550726f7669646572466163746f72793a204c6f636b7570206d7573742062652065787069726564a265627a7a7231582095b4ade8f49cb7d8fb2576df7f3a0b4f18b0e09ec400e2e7c16aa7cad6989ac564736f6c63430005110032",
  "source": "pragma solidity ^0.5.0;\n\nimport \"@openzeppelin/contracts-ethereum-package/contracts/math/SafeMath.sol\";\nimport \"./ServiceTypeManager.sol\";\nimport \"./ClaimsManager.sol\";\nimport \"./Staking.sol\";\n/// @notice Governance imported via Staking.sol\n\n\ncontract ServiceProviderFactory is InitializableV2 {\n    using SafeMath for uint256;\n\n    /// @dev - denominator for deployer cut calculations\n    /// @dev - user values are intended to be x/DEPLOYER_CUT_BASE\n    uint256 private constant DEPLOYER_CUT_BASE = 100;\n\n    string private constant ERROR_ONLY_GOVERNANCE = (\n        \"ServiceProviderFactory: Only callable by Governance contract\"\n    );\n    string private constant ERROR_ONLY_SP_GOVERNANCE = (\n        \"ServiceProviderFactory: Only callable by Service Provider or Governance\"\n    );\n\n    address private stakingAddress;\n    address private delegateManagerAddress;\n    address private governanceAddress;\n    address private serviceTypeManagerAddress;\n    address private claimsManagerAddress;\n\n    /// @notice Period in blocks that a decrease stake operation is delayed.\n    ///         Must be greater than governance votingPeriod + executionDelay in order to\n    ///         prevent pre-emptive withdrawal in anticipation of a slash proposal\n    uint256 private decreaseStakeLockupDuration;\n\n    /// @notice Period in blocks that an update deployer cut operation is delayed.\n    ///         Must be greater than funding round block diff in order\n    ///         to prevent manipulation around a funding round\n    uint256 private deployerCutLockupDuration;\n\n    /// @dev - Stores following entities\n    ///        1) Directly staked amount by SP, not including delegators\n    ///        2) % Cut of delegator tokens taken during reward\n    ///        3) Bool indicating whether this SP has met min/max requirements\n    ///        4) Number of endpoints registered by SP\n    ///        5) Minimum deployer stake for this service provider\n    ///        6) Maximum total stake for this account\n    struct ServiceProviderDetails {\n        uint256 deployerStake;\n        uint256 deployerCut;\n        bool validBounds;\n        uint256 numberOfEndpoints;\n        uint256 minAccountStake;\n        uint256 maxAccountStake;\n    }\n\n    /// @dev - Data structure for time delay during withdrawal\n    struct DecreaseStakeRequest {\n        uint256 decreaseAmount;\n        uint256 lockupExpiryBlock;\n    }\n\n    /// @dev - Data structure for time delay during deployer cut update\n    struct UpdateDeployerCutRequest {\n        uint256 newDeployerCut;\n        uint256 lockupExpiryBlock;\n    }\n\n    /// @dev - Struct maintaining information about sp\n    /// @dev - blocknumber is block.number when endpoint registered\n    struct ServiceEndpoint {\n        address owner;\n        string endpoint;\n        uint256 blocknumber;\n        address delegateOwnerWallet;\n    }\n\n    /// @dev - Mapping of service provider address to details\n    mapping(address => ServiceProviderDetails) private spDetails;\n\n    /// @dev - Uniquely assigned serviceProvider ID, incremented for each service type\n    /// @notice - Keeps track of the total number of services registered regardless of\n    ///           whether some have been deregistered since\n    mapping(bytes32 => uint256) private serviceProviderTypeIDs;\n\n    /// @dev - mapping of (serviceType -> (serviceInstanceId <-> serviceProviderInfo))\n    /// @notice - stores the actual service provider data like endpoint and owner wallet\n    ///           with the ability lookup by service type and service id */\n    mapping(bytes32 => mapping(uint256 => ServiceEndpoint)) private serviceProviderInfo;\n\n    /// @dev - mapping of keccak256(endpoint) to uint256 ID\n    /// @notice - used to check if a endpoint has already been registered and also lookup\n    /// the id of an endpoint\n    mapping(bytes32 => uint256) private serviceProviderEndpointToId;\n\n    /// @dev - mapping of address -> sp id array */\n    /// @notice - stores all the services registered by a provider. for each address,\n    /// provides the ability to lookup by service type and see all registered services\n    mapping(address => mapping(bytes32 => uint256[])) private serviceProviderAddressToId;\n\n    /// @dev - Mapping of service provider -> decrease stake request\n    mapping(address => DecreaseStakeRequest) private decreaseStakeRequests;\n\n    /// @dev - Mapping of service provider -> update deployer cut requests\n    mapping(address => UpdateDeployerCutRequest) private updateDeployerCutRequests;\n\n    event RegisteredServiceProvider(\n      uint256 indexed _spID,\n      bytes32 indexed _serviceType,\n      address indexed _owner,\n      string _endpoint,\n      uint256 _stakeAmount\n    );\n\n    event DeregisteredServiceProvider(\n      uint256 indexed _spID,\n      bytes32 indexed _serviceType,\n      address indexed _owner,\n      string _endpoint,\n      uint256 _unstakeAmount\n    );\n\n    event IncreasedStake(\n      address indexed _owner,\n      uint256 indexed _increaseAmount,\n      uint256 indexed _newStakeAmount\n    );\n\n    event DecreaseStakeRequested(\n      address indexed _owner,\n      uint256 indexed _decreaseAmount,\n      uint256 indexed _lockupExpiryBlock\n    );\n\n    event DecreaseStakeRequestCancelled(\n      address indexed _owner,\n      uint256 indexed _decreaseAmount,\n      uint256 indexed _lockupExpiryBlock\n    );\n\n    event DecreaseStakeRequestEvaluated(\n      address indexed _owner,\n      uint256 indexed _decreaseAmount,\n      uint256 indexed _newStakeAmount\n    );\n\n    event EndpointUpdated(\n      bytes32 indexed _serviceType,\n      address indexed _owner,\n      string _oldEndpoint,\n      string _newEndpoint,\n      uint256 indexed _spID\n    );\n\n    event DelegateOwnerWalletUpdated(\n      address indexed _owner,\n      bytes32 indexed _serviceType,\n      uint256 indexed _spID,\n      address _updatedWallet\n    );\n\n    event DeployerCutUpdateRequested(\n      address indexed _owner,\n      uint256 indexed _updatedCut,\n      uint256 indexed _lockupExpiryBlock\n    );\n\n    event DeployerCutUpdateRequestCancelled(\n      address indexed _owner,\n      uint256 indexed _requestedCut,\n      uint256 indexed _finalCut\n    );\n\n    event DeployerCutUpdateRequestEvaluated(\n      address indexed _owner,\n      uint256 indexed _updatedCut\n    );\n\n    event DecreaseStakeLockupDurationUpdated(uint256 indexed _lockupDuration);\n    event UpdateDeployerCutLockupDurationUpdated(uint256 indexed _lockupDuration);\n    event GovernanceAddressUpdated(address indexed _newGovernanceAddress);\n    event StakingAddressUpdated(address indexed _newStakingAddress);\n    event ClaimsManagerAddressUpdated(address indexed _newClaimsManagerAddress);\n    event DelegateManagerAddressUpdated(address indexed _newDelegateManagerAddress);\n    event ServiceTypeManagerAddressUpdated(address indexed _newServiceTypeManagerAddress);\n\n    /**\n     * @notice Function to initialize the contract\n     * @dev stakingAddress must be initialized separately after Staking contract is deployed\n     * @dev delegateManagerAddress must be initialized separately after DelegateManager contract is deployed\n     * @dev serviceTypeManagerAddress must be initialized separately after ServiceTypeManager contract is deployed\n     * @dev claimsManagerAddress must be initialized separately after ClaimsManager contract is deployed\n     * @param _governanceAddress - Governance proxy address\n     */\n    function initialize (\n        address _governanceAddress,\n        address _claimsManagerAddress,\n        uint256 _decreaseStakeLockupDuration,\n        uint256 _deployerCutLockupDuration\n    ) public initializer\n    {\n        _updateGovernanceAddress(_governanceAddress);\n        claimsManagerAddress = _claimsManagerAddress;\n        _updateDecreaseStakeLockupDuration(_decreaseStakeLockupDuration);\n        _updateDeployerCutLockupDuration(_deployerCutLockupDuration);\n        InitializableV2.initialize();\n    }\n\n    /**\n     * @notice Register a new endpoint to the account of msg.sender\n     * @dev Transfers stake from service provider into staking pool\n     * @param _serviceType - type of service to register, must be valid in ServiceTypeManager\n     * @param _endpoint - url of the service to register - url of the service to register\n     * @param _stakeAmount - amount to stake, must be within bounds in ServiceTypeManager\n     * @param _delegateOwnerWallet - wallet to delegate some permissions for some basic management properties\n     * @return New service provider ID for this endpoint\n     */\n    function register(\n        bytes32 _serviceType,\n        string calldata _endpoint,\n        uint256 _stakeAmount,\n        address _delegateOwnerWallet\n    ) external returns (uint256)\n    {\n        _requireIsInitialized();\n        _requireStakingAddressIsSet();\n        _requireServiceTypeManagerAddressIsSet();\n        _requireClaimsManagerAddressIsSet();\n\n        require(\n            ServiceTypeManager(serviceTypeManagerAddress).serviceTypeIsValid(_serviceType),\n            \"ServiceProviderFactory: Valid service type required\");\n\n        // Stake token amount from msg.sender\n        if (_stakeAmount > 0) {\n            require(\n                !_claimPending(msg.sender),\n                \"ServiceProviderFactory: No pending claim expected\"\n            );\n            Staking(stakingAddress).stakeFor(msg.sender, _stakeAmount);\n        }\n\n        require (\n            serviceProviderEndpointToId[keccak256(bytes(_endpoint))] == 0,\n            \"ServiceProviderFactory: Endpoint already registered\");\n\n        uint256 newServiceProviderID = serviceProviderTypeIDs[_serviceType].add(1);\n        serviceProviderTypeIDs[_serviceType] = newServiceProviderID;\n\n        // Index spInfo\n        serviceProviderInfo[_serviceType][newServiceProviderID] = ServiceEndpoint({\n            owner: msg.sender,\n            endpoint: _endpoint,\n            blocknumber: block.number,\n            delegateOwnerWallet: _delegateOwnerWallet\n        });\n\n        // Update endpoint mapping\n        serviceProviderEndpointToId[keccak256(bytes(_endpoint))] = newServiceProviderID;\n\n        // Update (address -> type -> ids[])\n        serviceProviderAddressToId[msg.sender][_serviceType].push(newServiceProviderID);\n\n        // Increment number of endpoints for this address\n        spDetails[msg.sender].numberOfEndpoints = spDetails[msg.sender].numberOfEndpoints.add(1);\n\n        // Update deployer total\n        spDetails[msg.sender].deployerStake = (\n            spDetails[msg.sender].deployerStake.add(_stakeAmount)\n        );\n\n        // Update min and max totals for this service provider\n        (, uint256 typeMin, uint256 typeMax) = ServiceTypeManager(\n            serviceTypeManagerAddress\n        ).getServiceTypeInfo(_serviceType);\n        spDetails[msg.sender].minAccountStake = spDetails[msg.sender].minAccountStake.add(typeMin);\n        spDetails[msg.sender].maxAccountStake = spDetails[msg.sender].maxAccountStake.add(typeMax);\n\n        // Confirm both aggregate account balance and directly staked amount are valid\n        this.validateAccountStakeBalance(msg.sender);\n        uint256 currentlyStakedForOwner = Staking(stakingAddress).totalStakedFor(msg.sender);\n\n\n        // Indicate this service provider is within bounds\n        spDetails[msg.sender].validBounds = true;\n\n        emit RegisteredServiceProvider(\n            newServiceProviderID,\n            _serviceType,\n            msg.sender,\n            _endpoint,\n            currentlyStakedForOwner\n        );\n\n        return newServiceProviderID;\n    }\n\n    /**\n     * @notice Deregister an endpoint from the account of msg.sender\n     * @dev Unstakes all tokens for service provider if this is the last endpoint\n     * @param _serviceType - type of service to deregister\n     * @param _endpoint - endpoint to deregister\n     * @return spId of the service that was deregistered\n     */\n    function deregister(\n        bytes32 _serviceType,\n        string calldata _endpoint\n    ) external returns (uint256)\n    {\n        _requireIsInitialized();\n        _requireStakingAddressIsSet();\n        _requireServiceTypeManagerAddressIsSet();\n\n        // Unstake on deregistration if and only if this is the last service endpoint\n        uint256 unstakeAmount = 0;\n        bool unstaked = false;\n        // owned by the service provider\n        if (spDetails[msg.sender].numberOfEndpoints == 1) {\n            unstakeAmount = spDetails[msg.sender].deployerStake;\n\n            // Submit request to decrease stake, overriding any pending request\n            decreaseStakeRequests[msg.sender] = DecreaseStakeRequest({\n                decreaseAmount: unstakeAmount,\n                lockupExpiryBlock: block.number.add(decreaseStakeLockupDuration)\n            });\n\n            unstaked = true;\n        }\n\n        require (\n            serviceProviderEndpointToId[keccak256(bytes(_endpoint))] != 0,\n            \"ServiceProviderFactory: Endpoint not registered\");\n\n        // Cache invalided service provider ID\n        uint256 deregisteredID = serviceProviderEndpointToId[keccak256(bytes(_endpoint))];\n\n        // Update endpoint mapping\n        serviceProviderEndpointToId[keccak256(bytes(_endpoint))] = 0;\n\n        require(\n            keccak256(bytes(serviceProviderInfo[_serviceType][deregisteredID].endpoint)) == keccak256(bytes(_endpoint)),\n            \"ServiceProviderFactory: Invalid endpoint for service type\");\n\n        require (\n            serviceProviderInfo[_serviceType][deregisteredID].owner == msg.sender,\n            \"ServiceProviderFactory: Only callable by endpoint owner\");\n\n        // Update info mapping\n        delete serviceProviderInfo[_serviceType][deregisteredID];\n        // Reset id, update array\n        uint256 spTypeLength = serviceProviderAddressToId[msg.sender][_serviceType].length;\n        for (uint256 i = 0; i < spTypeLength; i ++) {\n            if (serviceProviderAddressToId[msg.sender][_serviceType][i] == deregisteredID) {\n                // Overwrite element to be deleted with last element in array\n                serviceProviderAddressToId[msg.sender][_serviceType][i] = serviceProviderAddressToId[msg.sender][_serviceType][spTypeLength - 1];\n                // Reduce array size, exit loop\n                serviceProviderAddressToId[msg.sender][_serviceType].length--;\n                // Confirm this ID has been found for the service provider\n                break;\n            }\n        }\n\n        // Decrement number of endpoints for this address\n        spDetails[msg.sender].numberOfEndpoints -= 1;\n\n        // Update min and max totals for this service provider\n        (, uint256 typeMin, uint256 typeMax) = ServiceTypeManager(\n            serviceTypeManagerAddress\n        ).getServiceTypeInfo(_serviceType);\n        spDetails[msg.sender].minAccountStake = spDetails[msg.sender].minAccountStake.sub(typeMin);\n        spDetails[msg.sender].maxAccountStake = spDetails[msg.sender].maxAccountStake.sub(typeMax);\n\n        emit DeregisteredServiceProvider(\n            deregisteredID,\n            _serviceType,\n            msg.sender,\n            _endpoint,\n            unstakeAmount);\n\n        // Confirm both aggregate account balance and directly staked amount are valid\n        // Only if unstake operation has not occurred\n        if (!unstaked) {\n            this.validateAccountStakeBalance(msg.sender);\n            // Indicate this service provider is within bounds\n            spDetails[msg.sender].validBounds = true;\n        }\n\n        return deregisteredID;\n    }\n\n    /**\n     * @notice Increase stake for service provider\n     * @param _increaseStakeAmount - amount to increase staked amount by\n     * @return New total stake for service provider\n     */\n    function increaseStake(\n        uint256 _increaseStakeAmount\n    ) external returns (uint256)\n    {\n        _requireIsInitialized();\n        _requireStakingAddressIsSet();\n        _requireClaimsManagerAddressIsSet();\n\n        // Confirm owner has an endpoint\n        require(\n            spDetails[msg.sender].numberOfEndpoints > 0,\n            \"ServiceProviderFactory: Registered endpoint required to increase stake\"\n        );\n        require(\n            !_claimPending(msg.sender),\n            \"ServiceProviderFactory: No claim expected to be pending prior to stake transfer\"\n        );\n\n        Staking stakingContract = Staking(\n            stakingAddress\n        );\n\n        // Stake increased token amount for msg.sender\n        stakingContract.stakeFor(msg.sender, _increaseStakeAmount);\n\n        uint256 newStakeAmount = stakingContract.totalStakedFor(msg.sender);\n\n        // Update deployer total\n        spDetails[msg.sender].deployerStake = (\n            spDetails[msg.sender].deployerStake.add(_increaseStakeAmount)\n        );\n\n        // Confirm both aggregate account balance and directly staked amount are valid\n        this.validateAccountStakeBalance(msg.sender);\n\n        // Indicate this service provider is within bounds\n        spDetails[msg.sender].validBounds = true;\n\n        emit IncreasedStake(\n            msg.sender,\n            _increaseStakeAmount,\n            newStakeAmount\n        );\n\n        return newStakeAmount;\n    }\n\n    /**\n     * @notice Request to decrease stake. This sets a lockup for decreaseStakeLockupDuration after\n               which the actual decreaseStake can be called\n     * @dev Decreasing stake is only processed if a service provider is within valid bounds\n     * @param _decreaseStakeAmount - amount to decrease stake by in wei\n     * @return New total stake amount after the lockup\n     */\n    function requestDecreaseStake(uint256 _decreaseStakeAmount)\n    external returns (uint256)\n    {\n        _requireIsInitialized();\n        _requireStakingAddressIsSet();\n        _requireClaimsManagerAddressIsSet();\n\n        require(\n            _decreaseStakeAmount > 0,\n            \"ServiceProviderFactory: Requested stake decrease amount must be greater than zero\"\n        );\n        require(\n            !_claimPending(msg.sender),\n            \"ServiceProviderFactory: No claim expected to be pending prior to stake transfer\"\n        );\n\n        Staking stakingContract = Staking(\n            stakingAddress\n        );\n\n        uint256 currentStakeAmount = stakingContract.totalStakedFor(msg.sender);\n\n        // Prohibit decreasing stake to invalid bounds\n        _validateBalanceInternal(msg.sender, (currentStakeAmount.sub(_decreaseStakeAmount)));\n\n        uint256 expiryBlock = block.number.add(decreaseStakeLockupDuration);\n        decreaseStakeRequests[msg.sender] = DecreaseStakeRequest({\n            decreaseAmount: _decreaseStakeAmount,\n            lockupExpiryBlock: expiryBlock\n        });\n\n        emit DecreaseStakeRequested(msg.sender, _decreaseStakeAmount, expiryBlock);\n        return currentStakeAmount.sub(_decreaseStakeAmount);\n    }\n\n    /**\n     * @notice Cancel a decrease stake request during the lockup\n     * @dev Either called by the service provider via DelegateManager or governance\n            during a slash action\n     * @param _account - address of service provider\n     */\n    function cancelDecreaseStakeRequest(address _account) external\n    {\n        _requireIsInitialized();\n        _requireDelegateManagerAddressIsSet();\n\n        require(\n            msg.sender == _account || msg.sender == delegateManagerAddress,\n            \"ServiceProviderFactory: Only owner or DelegateManager\"\n        );\n        require(\n            _decreaseRequestIsPending(_account),\n            \"ServiceProviderFactory: Decrease stake request must be pending\"\n        );\n\n        DecreaseStakeRequest memory cancelledRequest = decreaseStakeRequests[_account];\n\n        // Clear decrease stake request\n        decreaseStakeRequests[_account] = DecreaseStakeRequest({\n            decreaseAmount: 0,\n            lockupExpiryBlock: 0\n        });\n\n        emit DecreaseStakeRequestCancelled(\n            _account,\n            cancelledRequest.decreaseAmount,\n            cancelledRequest.lockupExpiryBlock\n        );\n    }\n\n    /**\n     * @notice Called by user to decrease a stake after waiting the appropriate lockup period.\n     * @return New total stake after decrease\n     */\n    function decreaseStake() external returns (uint256)\n    {\n        _requireIsInitialized();\n        _requireStakingAddressIsSet();\n\n        require(\n            _decreaseRequestIsPending(msg.sender),\n            \"ServiceProviderFactory: Decrease stake request must be pending\"\n        );\n        require(\n            decreaseStakeRequests[msg.sender].lockupExpiryBlock <= block.number,\n            \"ServiceProviderFactory: Lockup must be expired\"\n        );\n\n        Staking stakingContract = Staking(\n            stakingAddress\n        );\n\n        uint256 decreaseAmount = decreaseStakeRequests[msg.sender].decreaseAmount;\n        // Decrease staked token amount for msg.sender\n        stakingContract.unstakeFor(msg.sender, decreaseAmount);\n\n        // Query current stake\n        uint256 newStakeAmount = stakingContract.totalStakedFor(msg.sender);\n\n        // Update deployer total\n        spDetails[msg.sender].deployerStake = (\n            spDetails[msg.sender].deployerStake.sub(decreaseAmount)\n        );\n\n        // Confirm both aggregate account balance and directly staked amount are valid\n        // During registration this validation is bypassed since no endpoints remain\n        if (spDetails[msg.sender].numberOfEndpoints > 0) {\n            this.validateAccountStakeBalance(msg.sender);\n        }\n\n        // Indicate this service provider is within bounds\n        spDetails[msg.sender].validBounds = true;\n\n        // Clear decrease stake request\n        delete decreaseStakeRequests[msg.sender];\n\n        emit DecreaseStakeRequestEvaluated(msg.sender, decreaseAmount, newStakeAmount);\n        return newStakeAmount;\n    }\n\n    /**\n     * @notice Update delegate owner wallet for a given endpoint\n     * @param _serviceType - type of service to register, must be valid in ServiceTypeManager\n     * @param _endpoint - url of the service to register - url of the service to register\n     * @param _updatedDelegateOwnerWallet - address of new delegate wallet\n     */\n    function updateDelegateOwnerWallet(\n        bytes32 _serviceType,\n        string calldata _endpoint,\n        address _updatedDelegateOwnerWallet\n    ) external\n    {\n        _requireIsInitialized();\n\n        uint256 spID = this.getServiceProviderIdFromEndpoint(_endpoint);\n\n        require(\n            serviceProviderInfo[_serviceType][spID].owner == msg.sender,\n            \"ServiceProviderFactory: Invalid update operation, wrong owner\"\n        );\n\n        serviceProviderInfo[_serviceType][spID].delegateOwnerWallet = _updatedDelegateOwnerWallet;\n        emit DelegateOwnerWalletUpdated(\n            msg.sender,\n            _serviceType,\n            spID,\n            _updatedDelegateOwnerWallet\n        );\n    }\n\n    /**\n     * @notice Update the endpoint for a given service\n     * @param _serviceType - type of service to register, must be valid in ServiceTypeManager\n     * @param _oldEndpoint - old endpoint currently registered\n     * @param _newEndpoint - new endpoint to replace old endpoint\n     * @return ID of updated service provider\n     */\n    function updateEndpoint(\n        bytes32 _serviceType,\n        string calldata _oldEndpoint,\n        string calldata _newEndpoint\n    ) external returns (uint256)\n    {\n        _requireIsInitialized();\n\n        uint256 spId = this.getServiceProviderIdFromEndpoint(_oldEndpoint);\n        require (\n            spId != 0,\n            \"ServiceProviderFactory: Could not find service provider with that endpoint\"\n        );\n\n        ServiceEndpoint memory serviceEndpoint = serviceProviderInfo[_serviceType][spId];\n\n        require(\n            serviceEndpoint.owner == msg.sender,\n            \"ServiceProviderFactory: Invalid update endpoint operation, wrong owner\"\n        );\n        require(\n            keccak256(bytes(serviceEndpoint.endpoint)) == keccak256(bytes(_oldEndpoint)),\n            \"ServiceProviderFactory: Old endpoint doesn't match what's registered for the service provider\"\n        );\n\n        // invalidate old endpoint\n        serviceProviderEndpointToId[keccak256(bytes(serviceEndpoint.endpoint))] = 0;\n\n        // update to new endpoint\n        serviceEndpoint.endpoint = _newEndpoint;\n        serviceProviderInfo[_serviceType][spId] = serviceEndpoint;\n        serviceProviderEndpointToId[keccak256(bytes(_newEndpoint))] = spId;\n\n        emit EndpointUpdated(_serviceType, msg.sender, _oldEndpoint, _newEndpoint, spId);\n        return spId;\n    }\n\n    /**\n     * @notice Update the deployer cut for a given service provider\n     * @param _serviceProvider - address of service provider\n     * @param _cut - new value for deployer cut\n     */\n    function requestUpdateDeployerCut(address _serviceProvider, uint256 _cut) external\n    {\n        _requireIsInitialized();\n\n        require(\n            msg.sender == _serviceProvider || msg.sender == governanceAddress,\n            ERROR_ONLY_SP_GOVERNANCE\n        );\n\n        require(\n            (updateDeployerCutRequests[_serviceProvider].lockupExpiryBlock == 0) &&\n            (updateDeployerCutRequests[_serviceProvider].newDeployerCut == 0),\n            \"ServiceProviderFactory: Update deployer cut operation pending\"\n        );\n\n        require(\n            _cut <= DEPLOYER_CUT_BASE,\n            \"ServiceProviderFactory: Service Provider cut cannot exceed base value\"\n        );\n\n        uint256 expiryBlock = block.number + deployerCutLockupDuration;\n        updateDeployerCutRequests[_serviceProvider] = UpdateDeployerCutRequest({\n            lockupExpiryBlock: expiryBlock,\n            newDeployerCut: _cut\n        });\n\n        emit DeployerCutUpdateRequested(_serviceProvider, _cut, expiryBlock);\n    }\n\n    /**\n     * @notice Cancel a pending request to update deployer cut\n     * @param _serviceProvider - address of service provider\n     */\n    function cancelUpdateDeployerCut(address _serviceProvider) external\n    {\n        _requireIsInitialized();\n        _requirePendingDeployerCutOperation(_serviceProvider);\n\n        require(\n            msg.sender == _serviceProvider || msg.sender == governanceAddress,\n            ERROR_ONLY_SP_GOVERNANCE\n        );\n\n        UpdateDeployerCutRequest memory cancelledRequest = (\n            updateDeployerCutRequests[_serviceProvider]\n        );\n\n        // Zero out request information\n        delete updateDeployerCutRequests[_serviceProvider];\n        emit DeployerCutUpdateRequestCancelled(\n            _serviceProvider,\n            cancelledRequest.newDeployerCut,\n            spDetails[_serviceProvider].deployerCut\n        );\n    }\n\n    /**\n     * @notice Evalue request to update service provider cut of claims\n     * @notice Update service provider cut as % of delegate claim, divided by the deployerCutBase.\n     * @dev SPs will interact with this value as a percent, value translation done client side\n       @dev A value of 5 dictates a 5% cut, with ( 5 / 100 ) * delegateReward going to an SP from each delegator each round.\n     */\n    function updateDeployerCut(address _serviceProvider) external\n    {\n        _requireIsInitialized();\n        _requirePendingDeployerCutOperation(_serviceProvider);\n\n        require(\n            msg.sender == _serviceProvider || msg.sender == governanceAddress,\n            ERROR_ONLY_SP_GOVERNANCE\n        );\n\n        require(\n            updateDeployerCutRequests[_serviceProvider].lockupExpiryBlock <= block.number,\n            \"ServiceProviderFactory: Lockup must be expired\"\n        );\n\n        spDetails[_serviceProvider].deployerCut = (\n            updateDeployerCutRequests[_serviceProvider].newDeployerCut\n        );\n\n        // Zero out request information\n        delete updateDeployerCutRequests[_serviceProvider];\n\n        emit DeployerCutUpdateRequestEvaluated(\n            _serviceProvider,\n            spDetails[_serviceProvider].deployerCut\n        );\n    }\n\n    /**\n     * @notice Update service provider balance\n     * @dev Called by DelegateManager by functions modifying entire stake like claim and slash\n     * @param _serviceProvider - address of service provider\n     * @param _amount - new amount of direct state for service provider\n     */\n    function updateServiceProviderStake(\n        address _serviceProvider,\n        uint256 _amount\n     ) external\n    {\n        _requireIsInitialized();\n        _requireStakingAddressIsSet();\n        _requireDelegateManagerAddressIsSet();\n\n        require(\n            msg.sender == delegateManagerAddress,\n            \"ServiceProviderFactory: only callable by DelegateManager\"\n        );\n        // Update SP tracked total\n        spDetails[_serviceProvider].deployerStake = _amount;\n        _updateServiceProviderBoundStatus(_serviceProvider);\n    }\n\n    /// @notice Update service provider lockup duration\n    function updateDecreaseStakeLockupDuration(uint256 _duration) external {\n        _requireIsInitialized();\n\n        require(\n            msg.sender == governanceAddress,\n            ERROR_ONLY_GOVERNANCE\n        );\n\n        _updateDecreaseStakeLockupDuration(_duration);\n        emit DecreaseStakeLockupDurationUpdated(_duration);\n    }\n\n    /// @notice Update service provider lockup duration\n    function updateDeployerCutLockupDuration(uint256 _duration) external {\n        _requireIsInitialized();\n\n        require(\n            msg.sender == governanceAddress,\n            ERROR_ONLY_GOVERNANCE\n        );\n\n        _updateDeployerCutLockupDuration(_duration);\n        emit UpdateDeployerCutLockupDurationUpdated(_duration);\n    }\n\n    /// @notice Get denominator for deployer cut calculations\n    function getServiceProviderDeployerCutBase()\n    external view returns (uint256)\n    {\n        _requireIsInitialized();\n\n        return DEPLOYER_CUT_BASE;\n    }\n\n    /// @notice Get current deployer cut update lockup duration\n    function getDeployerCutLockupDuration()\n    external view returns (uint256)\n    {\n        _requireIsInitialized();\n\n        return deployerCutLockupDuration;\n    }\n\n    /// @notice Get total number of service providers for a given serviceType\n    function getTotalServiceTypeProviders(bytes32 _serviceType)\n    external view returns (uint256)\n    {\n        _requireIsInitialized();\n\n        return serviceProviderTypeIDs[_serviceType];\n    }\n\n    /// @notice Get service provider id for an endpoint\n    function getServiceProviderIdFromEndpoint(string calldata _endpoint)\n    external view returns (uint256)\n    {\n        _requireIsInitialized();\n\n        return serviceProviderEndpointToId[keccak256(bytes(_endpoint))];\n    }\n\n    /**\n     * @notice Get service provider ids for a given service provider and service type\n     * @return List of service ids of that type for a service provider\n     */\n    function getServiceProviderIdsFromAddress(address _ownerAddress, bytes32 _serviceType)\n    external view returns (uint256[] memory)\n    {\n        _requireIsInitialized();\n\n        return serviceProviderAddressToId[_ownerAddress][_serviceType];\n    }\n\n    /**\n     * @notice Get information about a service endpoint given its service id\n     * @param _serviceType - type of service, must be a valid service from ServiceTypeManager\n     * @param _serviceId - id of service\n     */\n    function getServiceEndpointInfo(bytes32 _serviceType, uint256 _serviceId)\n    external view returns (address owner, string memory endpoint, uint256 blockNumber, address delegateOwnerWallet)\n    {\n        _requireIsInitialized();\n\n        ServiceEndpoint memory serviceEndpoint = serviceProviderInfo[_serviceType][_serviceId];\n        return (\n            serviceEndpoint.owner,\n            serviceEndpoint.endpoint,\n            serviceEndpoint.blocknumber,\n            serviceEndpoint.delegateOwnerWallet\n        );\n    }\n\n    /**\n     * @notice Get information about a service provider given their address\n     * @param _serviceProvider - address of service provider\n     */\n    function getServiceProviderDetails(address _serviceProvider)\n    external view returns (\n        uint256 deployerStake,\n        uint256 deployerCut,\n        bool validBounds,\n        uint256 numberOfEndpoints,\n        uint256 minAccountStake,\n        uint256 maxAccountStake)\n    {\n        _requireIsInitialized();\n\n        return (\n            spDetails[_serviceProvider].deployerStake,\n            spDetails[_serviceProvider].deployerCut,\n            spDetails[_serviceProvider].validBounds,\n            spDetails[_serviceProvider].numberOfEndpoints,\n            spDetails[_serviceProvider].minAccountStake,\n            spDetails[_serviceProvider].maxAccountStake\n        );\n    }\n\n    /**\n     * @notice Get information about pending decrease stake requests for service provider\n     * @param _serviceProvider - address of service provider\n     */\n    function getPendingDecreaseStakeRequest(address _serviceProvider)\n    external view returns (uint256 amount, uint256 lockupExpiryBlock)\n    {\n        _requireIsInitialized();\n\n        return (\n            decreaseStakeRequests[_serviceProvider].decreaseAmount,\n            decreaseStakeRequests[_serviceProvider].lockupExpiryBlock\n        );\n    }\n\n    /**\n     * @notice Get information about pending decrease stake requests for service provider\n     * @param _serviceProvider - address of service provider\n     */\n    function getPendingUpdateDeployerCutRequest(address _serviceProvider)\n    external view returns (uint256 newDeployerCut, uint256 lockupExpiryBlock)\n    {\n        _requireIsInitialized();\n\n        return (\n            updateDeployerCutRequests[_serviceProvider].newDeployerCut,\n            updateDeployerCutRequests[_serviceProvider].lockupExpiryBlock\n        );\n    }\n\n    /// @notice Get current unstake lockup duration\n    function getDecreaseStakeLockupDuration()\n    external view returns (uint256)\n    {\n        _requireIsInitialized();\n\n        return decreaseStakeLockupDuration;\n    }\n\n    /**\n     * @notice Validate that the total service provider balance is between the min and max stakes\n               for all their registered services and validate  direct stake for sp is above minimum\n     * @param _serviceProvider - address of service provider\n     */\n    function validateAccountStakeBalance(address _serviceProvider)\n    external view\n    {\n        _requireIsInitialized();\n        _requireStakingAddressIsSet();\n\n        _validateBalanceInternal(\n            _serviceProvider,\n            Staking(stakingAddress).totalStakedFor(_serviceProvider)\n        );\n    }\n\n    /// @notice Get the Governance address\n    function getGovernanceAddress() external view returns (address) {\n        _requireIsInitialized();\n\n        return governanceAddress;\n    }\n\n    /// @notice Get the Staking address\n    function getStakingAddress() external view returns (address) {\n        _requireIsInitialized();\n\n        return stakingAddress;\n    }\n\n    /// @notice Get the DelegateManager address\n    function getDelegateManagerAddress() external view returns (address) {\n        _requireIsInitialized();\n\n        return delegateManagerAddress;\n    }\n\n    /// @notice Get the ServiceTypeManager address\n    function getServiceTypeManagerAddress() external view returns (address) {\n        _requireIsInitialized();\n\n        return serviceTypeManagerAddress;\n    }\n\n    /// @notice Get the ClaimsManager address\n    function getClaimsManagerAddress() external view returns (address) {\n        _requireIsInitialized();\n\n        return claimsManagerAddress;\n    }\n\n    /**\n     * @notice Set the Governance address\n     * @dev Only callable by Governance address\n     * @param _governanceAddress - address for new Governance contract\n     */\n    function setGovernanceAddress(address _governanceAddress) external {\n        _requireIsInitialized();\n\n        require(msg.sender == governanceAddress, ERROR_ONLY_GOVERNANCE);\n        _updateGovernanceAddress(_governanceAddress);\n        emit GovernanceAddressUpdated(_governanceAddress);\n    }\n\n    /**\n     * @notice Set the Staking address\n     * @dev Only callable by Governance address\n     * @param _address - address for new Staking contract\n     */\n    function setStakingAddress(address _address) external {\n        _requireIsInitialized();\n\n        require(msg.sender == governanceAddress, ERROR_ONLY_GOVERNANCE);\n        stakingAddress = _address;\n        emit StakingAddressUpdated(_address);\n    }\n\n    /**\n     * @notice Set the DelegateManager address\n     * @dev Only callable by Governance address\n     * @param _address - address for new DelegateManager contract\n     */\n    function setDelegateManagerAddress(address _address) external {\n        _requireIsInitialized();\n\n        require(msg.sender == governanceAddress, ERROR_ONLY_GOVERNANCE);\n        delegateManagerAddress = _address;\n        emit DelegateManagerAddressUpdated(_address);\n    }\n\n    /**\n     * @notice Set the ServiceTypeManager address\n     * @dev Only callable by Governance address\n     * @param _address - address for new ServiceTypeManager contract\n     */\n    function setServiceTypeManagerAddress(address _address) external {\n        _requireIsInitialized();\n\n        require(msg.sender == governanceAddress, ERROR_ONLY_GOVERNANCE);\n        serviceTypeManagerAddress = _address;\n        emit ServiceTypeManagerAddressUpdated(_address);\n    }\n\n    /**\n     * @notice Set the ClaimsManager address\n     * @dev Only callable by Governance address\n     * @param _address - address for new ClaimsManager contract\n     */\n    function setClaimsManagerAddress(address _address) external {\n        _requireIsInitialized();\n\n        require(msg.sender == governanceAddress, ERROR_ONLY_GOVERNANCE);\n        claimsManagerAddress = _address;\n        emit ClaimsManagerAddressUpdated(_address);\n    }\n\n    // ========================================= Internal Functions =========================================\n\n    /**\n     * @notice Update status in spDetails if the bounds for a service provider is valid\n     */\n    function _updateServiceProviderBoundStatus(address _serviceProvider) internal {\n        // Validate bounds for total stake\n        uint256 totalSPStake = Staking(stakingAddress).totalStakedFor(_serviceProvider);\n        if (totalSPStake < spDetails[_serviceProvider].minAccountStake ||\n            totalSPStake > spDetails[_serviceProvider].maxAccountStake) {\n            // Indicate this service provider is out of bounds\n            spDetails[_serviceProvider].validBounds = false;\n        } else {\n            // Indicate this service provider is within bounds\n            spDetails[_serviceProvider].validBounds = true;\n        }\n    }\n\n    /**\n     * @notice Set the governance address after confirming contract identity\n     * @param _governanceAddress - Incoming governance address\n     */\n    function _updateGovernanceAddress(address _governanceAddress) internal {\n        require(\n            Governance(_governanceAddress).isGovernanceAddress() == true,\n            \"ServiceProviderFactory: _governanceAddress is not a valid governance contract\"\n        );\n        governanceAddress = _governanceAddress;\n    }\n\n    /**\n     * @notice Set the deployer cut lockup duration\n     * @param _duration - incoming duration\n     */\n    function _updateDeployerCutLockupDuration(uint256 _duration) internal\n    {\n        require(\n            ClaimsManager(claimsManagerAddress).getFundingRoundBlockDiff() < _duration,\n            \"ServiceProviderFactory: Incoming duration must be greater than funding round block diff\"\n        );\n        deployerCutLockupDuration = _duration;\n    }\n\n    /**\n     * @notice Set the decrease stake lockup duration\n     * @param _duration - incoming duration\n     */\n    function _updateDecreaseStakeLockupDuration(uint256 _duration) internal\n    {\n        Governance governance = Governance(governanceAddress);\n        require(\n            _duration > governance.getVotingPeriod() + governance.getExecutionDelay(),\n            \"ServiceProviderFactory: decreaseStakeLockupDuration duration must be greater than governance votingPeriod + executionDelay\"\n        );\n        decreaseStakeLockupDuration = _duration;\n    }\n\n    /**\n     * @notice Compare a given amount input against valid min and max bounds for service provider\n     * @param _serviceProvider - address of service provider\n     * @param _amount - amount in wei to compare\n     */\n    function _validateBalanceInternal(address _serviceProvider, uint256 _amount) internal view\n    {\n        require(\n            _amount <= spDetails[_serviceProvider].maxAccountStake,\n            \"ServiceProviderFactory: Maximum stake amount exceeded\"\n        );\n        require(\n            spDetails[_serviceProvider].deployerStake >= spDetails[_serviceProvider].minAccountStake,\n            \"ServiceProviderFactory: Minimum stake requirement not met\"\n        );\n    }\n\n    /**\n     * @notice Get whether a decrease request has been initiated for service provider\n     * @param _serviceProvider - address of service provider\n     * return Boolean of whether decrease request has been initiated\n     */\n    function _decreaseRequestIsPending(address _serviceProvider)\n    internal view returns (bool)\n    {\n        return (\n            (decreaseStakeRequests[_serviceProvider].lockupExpiryBlock > 0) &&\n            (decreaseStakeRequests[_serviceProvider].decreaseAmount > 0)\n        );\n    }\n\n    /**\n     * @notice Boolean indicating whether a claim is pending for this service provider\n     */\n     /**\n     * @notice Get whether a claim is pending for this service provider\n     * @param _serviceProvider - address of service provider\n     * return Boolean of whether claim is pending\n     */\n    function _claimPending(address _serviceProvider) internal view returns (bool) {\n        return ClaimsManager(claimsManagerAddress).claimPending(_serviceProvider);\n    }\n\n    // ========================================= Private Functions =========================================\n    function _requirePendingDeployerCutOperation (address _serviceProvider) private view {\n        require(\n            (updateDeployerCutRequests[_serviceProvider].lockupExpiryBlock != 0),\n            \"ServiceProviderFactory: No update deployer cut operation pending\"\n        );\n    }\n\n    function _requireStakingAddressIsSet() private view {\n        require(\n            stakingAddress != address(0x00),\n            \"ServiceProviderFactory: stakingAddress is not set\"\n        );\n    }\n\n    function _requireDelegateManagerAddressIsSet() private view {\n        require(\n            delegateManagerAddress != address(0x00),\n            \"ServiceProviderFactory: delegateManagerAddress is not set\"\n        );\n    }\n\n    function _requireServiceTypeManagerAddressIsSet() private view {\n        require(\n            serviceTypeManagerAddress != address(0x00),\n            \"ServiceProviderFactory: serviceTypeManagerAddress is not set\"\n        );\n    }\n\n    function _requireClaimsManagerAddressIsSet() private view {\n        require(\n            claimsManagerAddress != address(0x00),\n            \"ServiceProviderFactory: claimsManagerAddress is not set\"\n        );\n    }\n}\n",
  "sourcePath": "/Users/joey/workspace/audius-protocol/eth-contracts/contracts/ServiceProviderFactory.sol",
  "compiler": {
    "name": "solc",
    "version": "0.5.17+commit.d19bba13.Emscripten.clang"
  },
  "schemaVersion": "3.1.0",
  "updatedAt": "2020-12-10T14:59:32.342Z",
  "networkType": "ethereum",
  "devdoc": {
    "methods": {
      "cancelDecreaseStakeRequest(address)": {
        "details": "Either called by the service provider via DelegateManager or governance during a slash action",
        "params": {
          "_account": "- address of service provider"
        }
      },
      "cancelUpdateDeployerCut(address)": {
        "params": {
          "_serviceProvider": "- address of service provider"
        }
      },
      "decreaseStake()": {
        "return": "New total stake after decrease"
      },
      "deregister(bytes32,string)": {
        "details": "Unstakes all tokens for service provider if this is the last endpoint",
        "params": {
          "_endpoint": "- endpoint to deregister",
          "_serviceType": "- type of service to deregister"
        },
        "return": "spId of the service that was deregistered"
      },
      "getPendingDecreaseStakeRequest(address)": {
        "params": {
          "_serviceProvider": "- address of service provider"
        }
      },
      "getPendingUpdateDeployerCutRequest(address)": {
        "params": {
          "_serviceProvider": "- address of service provider"
        }
      },
      "getServiceEndpointInfo(bytes32,uint256)": {
        "params": {
          "_serviceId": "- id of service",
          "_serviceType": "- type of service, must be a valid service from ServiceTypeManager"
        }
      },
      "getServiceProviderDetails(address)": {
        "params": {
          "_serviceProvider": "- address of service provider"
        }
      },
      "getServiceProviderIdsFromAddress(address,bytes32)": {
        "return": "List of service ids of that type for a service provider"
      },
      "increaseStake(uint256)": {
        "params": {
          "_increaseStakeAmount": "- amount to increase staked amount by"
        },
        "return": "New total stake for service provider"
      },
      "initialize(address,address,uint256,uint256)": {
        "details": "stakingAddress must be initialized separately after Staking contract is deployeddelegateManagerAddress must be initialized separately after DelegateManager contract is deployedserviceTypeManagerAddress must be initialized separately after ServiceTypeManager contract is deployedclaimsManagerAddress must be initialized separately after ClaimsManager contract is deployed",
        "params": {
          "_governanceAddress": "- Governance proxy address"
        }
      },
      "register(bytes32,string,uint256,address)": {
        "details": "Transfers stake from service provider into staking pool",
        "params": {
          "_delegateOwnerWallet": "- wallet to delegate some permissions for some basic management properties",
          "_endpoint": "- url of the service to register - url of the service to register",
          "_serviceType": "- type of service to register, must be valid in ServiceTypeManager",
          "_stakeAmount": "- amount to stake, must be within bounds in ServiceTypeManager"
        },
        "return": "New service provider ID for this endpoint"
      },
      "requestDecreaseStake(uint256)": {
        "details": "Decreasing stake is only processed if a service provider is within valid bounds",
        "params": {
          "_decreaseStakeAmount": "- amount to decrease stake by in wei"
        },
        "return": "New total stake amount after the lockup"
      },
      "requestUpdateDeployerCut(address,uint256)": {
        "params": {
          "_cut": "- new value for deployer cut",
          "_serviceProvider": "- address of service provider"
        }
      },
      "setClaimsManagerAddress(address)": {
        "details": "Only callable by Governance address",
        "params": {
          "_address": "- address for new ClaimsManager contract"
        }
      },
      "setDelegateManagerAddress(address)": {
        "details": "Only callable by Governance address",
        "params": {
          "_address": "- address for new DelegateManager contract"
        }
      },
      "setGovernanceAddress(address)": {
        "details": "Only callable by Governance address",
        "params": {
          "_governanceAddress": "- address for new Governance contract"
        }
      },
      "setServiceTypeManagerAddress(address)": {
        "details": "Only callable by Governance address",
        "params": {
          "_address": "- address for new ServiceTypeManager contract"
        }
      },
      "setStakingAddress(address)": {
        "details": "Only callable by Governance address",
        "params": {
          "_address": "- address for new Staking contract"
        }
      },
      "updateDelegateOwnerWallet(bytes32,string,address)": {
        "params": {
          "_endpoint": "- url of the service to register - url of the service to register",
          "_serviceType": "- type of service to register, must be valid in ServiceTypeManager",
          "_updatedDelegateOwnerWallet": "- address of new delegate wallet"
        }
      },
      "updateDeployerCut(address)": {
        "details": "SPs will interact with this value as a percent, value translation done client sideA value of 5 dictates a 5% cut, with ( 5 / 100 ) * delegateReward going to an SP from each delegator each round."
      },
      "updateEndpoint(bytes32,string,string)": {
        "params": {
          "_newEndpoint": "- new endpoint to replace old endpoint",
          "_oldEndpoint": "- old endpoint currently registered",
          "_serviceType": "- type of service to register, must be valid in ServiceTypeManager"
        },
        "return": "ID of updated service provider"
      },
      "updateServiceProviderStake(address,uint256)": {
        "details": "Called by DelegateManager by functions modifying entire stake like claim and slash",
        "params": {
          "_amount": "- new amount of direct state for service provider",
          "_serviceProvider": "- address of service provider"
        }
      },
      "validateAccountStakeBalance(address)": {
        "params": {
          "_serviceProvider": "- address of service provider"
        }
      }
    }
  },
  "userdoc": {
    "methods": {
      "cancelDecreaseStakeRequest(address)": {
        "notice": "Cancel a decrease stake request during the lockup"
      },
      "cancelUpdateDeployerCut(address)": {
        "notice": "Cancel a pending request to update deployer cut"
      },
      "decreaseStake()": {
        "notice": "Called by user to decrease a stake after waiting the appropriate lockup period."
      },
      "deregister(bytes32,string)": {
        "notice": "Deregister an endpoint from the account of msg.sender"
      },
      "getClaimsManagerAddress()": {
        "notice": "Get the ClaimsManager address"
      },
      "getDecreaseStakeLockupDuration()": {
        "notice": "Get current unstake lockup duration"
      },
      "getDelegateManagerAddress()": {
        "notice": "Get the DelegateManager address"
      },
      "getDeployerCutLockupDuration()": {
        "notice": "Get current deployer cut update lockup duration"
      },
      "getGovernanceAddress()": {
        "notice": "Get the Governance address"
      },
      "getPendingDecreaseStakeRequest(address)": {
        "notice": "Get information about pending decrease stake requests for service provider"
      },
      "getPendingUpdateDeployerCutRequest(address)": {
        "notice": "Get information about pending decrease stake requests for service provider"
      },
      "getServiceEndpointInfo(bytes32,uint256)": {
        "notice": "Get information about a service endpoint given its service id"
      },
      "getServiceProviderDeployerCutBase()": {
        "notice": "Get denominator for deployer cut calculations"
      },
      "getServiceProviderDetails(address)": {
        "notice": "Get information about a service provider given their address"
      },
      "getServiceProviderIdFromEndpoint(string)": {
        "notice": "Get service provider id for an endpoint"
      },
      "getServiceProviderIdsFromAddress(address,bytes32)": {
        "notice": "Get service provider ids for a given service provider and service type"
      },
      "getServiceTypeManagerAddress()": {
        "notice": "Get the ServiceTypeManager address"
      },
      "getStakingAddress()": {
        "notice": "Get the Staking address"
      },
      "getTotalServiceTypeProviders(bytes32)": {
        "notice": "Get total number of service providers for a given serviceType"
      },
      "increaseStake(uint256)": {
        "notice": "Increase stake for service provider"
      },
      "initialize()": {
        "notice": "wrapper function around parent contract Initializable's `initializable` modifier     initializable modifier ensures this function can only be called once by each deployed child contract     sets isInitialized flag to true to which is used by _requireIsInitialized()"
      },
      "initialize(address,address,uint256,uint256)": {
        "notice": "Function to initialize the contract"
      },
      "register(bytes32,string,uint256,address)": {
        "notice": "Register a new endpoint to the account of msg.sender"
      },
      "requestDecreaseStake(uint256)": {
        "notice": "Request to decrease stake. This sets a lockup for decreaseStakeLockupDuration after which the actual decreaseStake can be called"
      },
      "requestUpdateDeployerCut(address,uint256)": {
        "notice": "Update the deployer cut for a given service provider"
      },
      "setClaimsManagerAddress(address)": {
        "notice": "Set the ClaimsManager address"
      },
      "setDelegateManagerAddress(address)": {
        "notice": "Set the DelegateManager address"
      },
      "setGovernanceAddress(address)": {
        "notice": "Set the Governance address"
      },
      "setServiceTypeManagerAddress(address)": {
        "notice": "Set the ServiceTypeManager address"
      },
      "setStakingAddress(address)": {
        "notice": "Set the Staking address"
      },
      "updateDecreaseStakeLockupDuration(uint256)": {
        "notice": "Update service provider lockup duration"
      },
      "updateDelegateOwnerWallet(bytes32,string,address)": {
        "notice": "Update delegate owner wallet for a given endpoint"
      },
      "updateDeployerCut(address)": {
        "notice": "Evalue request to update service provider cut of claimsUpdate service provider cut as % of delegate claim, divided by the deployerCutBase."
      },
      "updateDeployerCutLockupDuration(uint256)": {
        "notice": "Update service provider lockup duration"
      },
      "updateEndpoint(bytes32,string,string)": {
        "notice": "Update the endpoint for a given service"
      },
      "updateServiceProviderStake(address,uint256)": {
        "notice": "Update service provider balance"
      },
      "validateAccountStakeBalance(address)": {
        "notice": "Validate that the total service provider balance is between the min and max stakes for all their registered services and validate  direct stake for sp is above minimum"
      }
    },
    "notice": "Governance imported via Staking.sol"
  }
}